{
  "_format": "hh-sol-artifact-1",
  "contractName": "PredictorPass",
  "sourceName": "contracts/PredictorPass.sol",
  "abi": [
    {
      "inputs": [],
      "stateMutability": "nonpayable",
      "type": "constructor"
    },
    {
      "anonymous": false,
      "inputs": [
        {
          "indexed": true,
          "internalType": "address",
          "name": "owner",
          "type": "address"
        },
        {
          "indexed": true,
          "internalType": "address",
          "name": "approved",
          "type": "address"
        },
        {
          "indexed": true,
          "internalType": "uint256",
          "name": "tokenId",
          "type": "uint256"
        }
      ],
      "name": "Approval",
      "type": "event"
    },
    {
      "anonymous": false,
      "inputs": [
        {
          "indexed": true,
          "internalType": "address",
          "name": "owner",
          "type": "address"
        },
        {
          "indexed": true,
          "internalType": "address",
          "name": "operator",
          "type": "address"
        },
        {
          "indexed": false,
          "internalType": "bool",
          "name": "approved",
          "type": "bool"
        }
      ],
      "name": "ApprovalForAll",
      "type": "event"
    },
    {
      "anonymous": false,
      "inputs": [
        {
          "indexed": true,
          "internalType": "address",
          "name": "owner",
          "type": "address"
        },
        {
          "indexed": false,
          "internalType": "uint256",
          "name": "id",
          "type": "uint256"
        },
        {
          "indexed": false,
          "internalType": "enum PredictorPass.PassType",
          "name": "passType",
          "type": "uint8"
        }
      ],
      "name": "NewPass",
      "type": "event"
    },
    {
      "anonymous": false,
      "inputs": [
        {
          "indexed": true,
          "internalType": "address",
          "name": "previousOwner",
          "type": "address"
        },
        {
          "indexed": true,
          "internalType": "address",
          "name": "newOwner",
          "type": "address"
        }
      ],
      "name": "OwnershipTransferred",
      "type": "event"
    },
    {
      "anonymous": false,
      "inputs": [
        {
          "indexed": true,
          "internalType": "address",
          "name": "from",
          "type": "address"
        },
        {
          "indexed": true,
          "internalType": "address",
          "name": "to",
          "type": "address"
        },
        {
          "indexed": true,
          "internalType": "uint256",
          "name": "tokenId",
          "type": "uint256"
        }
      ],
      "name": "Transfer",
      "type": "event"
    },
    {
      "inputs": [
        {
          "internalType": "address",
          "name": "_addr",
          "type": "address"
        },
        {
          "internalType": "uint8",
          "name": "_discount",
          "type": "uint8"
        }
      ],
      "name": "addDiscount",
      "outputs": [],
      "stateMutability": "nonpayable",
      "type": "function"
    },
    {
      "inputs": [
        {
          "internalType": "address",
          "name": "to",
          "type": "address"
        },
        {
          "internalType": "uint256",
          "name": "tokenId",
          "type": "uint256"
        }
      ],
      "name": "approve",
      "outputs": [],
      "stateMutability": "nonpayable",
      "type": "function"
    },
    {
      "inputs": [
        {
          "internalType": "address",
          "name": "owner",
          "type": "address"
        }
      ],
      "name": "balanceOf",
      "outputs": [
        {
          "internalType": "uint256",
          "name": "",
          "type": "uint256"
        }
      ],
      "stateMutability": "view",
      "type": "function"
    },
    {
      "inputs": [
        {
          "internalType": "address",
          "name": "",
          "type": "address"
        }
      ],
      "name": "discounts",
      "outputs": [
        {
          "internalType": "uint8",
          "name": "",
          "type": "uint8"
        }
      ],
      "stateMutability": "view",
      "type": "function"
    },
    {
      "inputs": [
        {
          "internalType": "enum PredictorPass.PassType",
          "name": "",
          "type": "uint8"
        }
      ],
      "name": "fees",
      "outputs": [
        {
          "internalType": "uint256",
          "name": "",
          "type": "uint256"
        }
      ],
      "stateMutability": "view",
      "type": "function"
    },
    {
      "inputs": [
        {
          "internalType": "uint256",
          "name": "tokenId",
          "type": "uint256"
        }
      ],
      "name": "getApproved",
      "outputs": [
        {
          "internalType": "address",
          "name": "",
          "type": "address"
        }
      ],
      "stateMutability": "view",
      "type": "function"
    },
    {
      "inputs": [
        {
          "internalType": "address",
          "name": "_addr",
          "type": "address"
        }
      ],
      "name": "getDiscount",
      "outputs": [
        {
          "internalType": "uint8",
          "name": "",
          "type": "uint8"
        }
      ],
      "stateMutability": "view",
      "type": "function"
    },
    {
      "inputs": [
        {
          "internalType": "uint256",
          "name": "_id",
          "type": "uint256"
        }
      ],
      "name": "getPass",
      "outputs": [
        {
          "components": [
            {
              "internalType": "enum PredictorPass.PassType",
              "name": "passType",
              "type": "uint8"
            },
            {
              "internalType": "uint256",
              "name": "id",
              "type": "uint256"
            }
          ],
          "internalType": "struct PredictorPass.Pass",
          "name": "",
          "type": "tuple"
        }
      ],
      "stateMutability": "view",
      "type": "function"
    },
    {
      "inputs": [],
      "name": "getPasses",
      "outputs": [
        {
          "components": [
            {
              "internalType": "enum PredictorPass.PassType",
              "name": "passType",
              "type": "uint8"
            },
            {
              "internalType": "uint256",
              "name": "id",
              "type": "uint256"
            }
          ],
          "internalType": "struct PredictorPass.Pass[]",
          "name": "",
          "type": "tuple[]"
        }
      ],
      "stateMutability": "view",
      "type": "function"
    },
    {
      "inputs": [
        {
          "internalType": "address",
          "name": "_addr",
          "type": "address"
        }
      ],
      "name": "getPlayerPass",
      "outputs": [
        {
          "components": [
            {
              "internalType": "enum PredictorPass.PassType",
              "name": "passType",
              "type": "uint8"
            },
            {
              "internalType": "uint256",
              "name": "id",
              "type": "uint256"
            }
          ],
          "internalType": "struct PredictorPass.Pass",
          "name": "",
          "type": "tuple"
        }
      ],
      "stateMutability": "view",
      "type": "function"
    },
    {
      "inputs": [
        {
          "internalType": "address",
          "name": "_addr",
          "type": "address"
        }
      ],
      "name": "getPlayerPassId",
      "outputs": [
        {
          "internalType": "uint256",
          "name": "",
          "type": "uint256"
        }
      ],
      "stateMutability": "view",
      "type": "function"
    },
    {
      "inputs": [
        {
          "internalType": "address",
          "name": "owner",
          "type": "address"
        },
        {
          "internalType": "address",
          "name": "operator",
          "type": "address"
        }
      ],
      "name": "isApprovedForAll",
      "outputs": [
        {
          "internalType": "bool",
          "name": "",
          "type": "bool"
        }
      ],
      "stateMutability": "view",
      "type": "function"
    },
    {
      "inputs": [
        {
          "internalType": "enum PredictorPass.PassType",
          "name": "_passType",
          "type": "uint8"
        }
      ],
      "name": "mintPass",
      "outputs": [],
      "stateMutability": "payable",
      "type": "function"
    },
    {
      "inputs": [],
      "name": "name",
      "outputs": [
        {
          "internalType": "string",
          "name": "",
          "type": "string"
        }
      ],
      "stateMutability": "view",
      "type": "function"
    },
    {
      "inputs": [],
      "name": "owner",
      "outputs": [
        {
          "internalType": "address",
          "name": "",
          "type": "address"
        }
      ],
      "stateMutability": "view",
      "type": "function"
    },
    {
      "inputs": [
        {
          "internalType": "uint256",
          "name": "tokenId",
          "type": "uint256"
        }
      ],
      "name": "ownerOf",
      "outputs": [
        {
          "internalType": "address",
          "name": "",
          "type": "address"
        }
      ],
      "stateMutability": "view",
      "type": "function"
    },
    {
      "inputs": [
        {
          "internalType": "uint256",
          "name": "",
          "type": "uint256"
        }
      ],
      "name": "passes",
      "outputs": [
        {
          "internalType": "enum PredictorPass.PassType",
          "name": "passType",
          "type": "uint8"
        },
        {
          "internalType": "uint256",
          "name": "id",
          "type": "uint256"
        }
      ],
      "stateMutability": "view",
      "type": "function"
    },
    {
      "inputs": [
        {
          "internalType": "address",
          "name": "",
          "type": "address"
        }
      ],
      "name": "playerPassId",
      "outputs": [
        {
          "internalType": "uint256",
          "name": "",
          "type": "uint256"
        }
      ],
      "stateMutability": "view",
      "type": "function"
    },
    {
      "inputs": [
        {
          "internalType": "address",
          "name": "_addr",
          "type": "address"
        }
      ],
      "name": "removeDiscount",
      "outputs": [],
      "stateMutability": "nonpayable",
      "type": "function"
    },
    {
      "inputs": [],
      "name": "renounceOwnership",
      "outputs": [],
      "stateMutability": "nonpayable",
      "type": "function"
    },
    {
      "inputs": [
        {
          "internalType": "address",
          "name": "from",
          "type": "address"
        },
        {
          "internalType": "address",
          "name": "to",
          "type": "address"
        },
        {
          "internalType": "uint256",
          "name": "tokenId",
          "type": "uint256"
        }
      ],
      "name": "safeTransferFrom",
      "outputs": [],
      "stateMutability": "nonpayable",
      "type": "function"
    },
    {
      "inputs": [
        {
          "internalType": "address",
          "name": "from",
          "type": "address"
        },
        {
          "internalType": "address",
          "name": "to",
          "type": "address"
        },
        {
          "internalType": "uint256",
          "name": "tokenId",
          "type": "uint256"
        },
        {
          "internalType": "bytes",
          "name": "data",
          "type": "bytes"
        }
      ],
      "name": "safeTransferFrom",
      "outputs": [],
      "stateMutability": "nonpayable",
      "type": "function"
    },
    {
      "inputs": [
        {
          "internalType": "address",
          "name": "operator",
          "type": "address"
        },
        {
          "internalType": "bool",
          "name": "approved",
          "type": "bool"
        }
      ],
      "name": "setApprovalForAll",
      "outputs": [],
      "stateMutability": "nonpayable",
      "type": "function"
    },
    {
      "inputs": [
        {
          "internalType": "bytes4",
          "name": "interfaceId",
          "type": "bytes4"
        }
      ],
      "name": "supportsInterface",
      "outputs": [
        {
          "internalType": "bool",
          "name": "",
          "type": "bool"
        }
      ],
      "stateMutability": "view",
      "type": "function"
    },
    {
      "inputs": [],
      "name": "symbol",
      "outputs": [
        {
          "internalType": "string",
          "name": "",
          "type": "string"
        }
      ],
      "stateMutability": "view",
      "type": "function"
    },
    {
      "inputs": [
        {
          "internalType": "uint256",
          "name": "tokenId",
          "type": "uint256"
        }
      ],
      "name": "tokenURI",
      "outputs": [
        {
          "internalType": "string",
          "name": "",
          "type": "string"
        }
      ],
      "stateMutability": "view",
      "type": "function"
    },
    {
      "inputs": [
        {
          "internalType": "address",
          "name": "from",
          "type": "address"
        },
        {
          "internalType": "address",
          "name": "to",
          "type": "address"
        },
        {
          "internalType": "uint256",
          "name": "tokenId",
          "type": "uint256"
        }
      ],
      "name": "transferFrom",
      "outputs": [],
      "stateMutability": "nonpayable",
      "type": "function"
    },
    {
      "inputs": [
        {
          "internalType": "address",
          "name": "newOwner",
          "type": "address"
        }
      ],
      "name": "transferOwnership",
      "outputs": [],
      "stateMutability": "nonpayable",
      "type": "function"
    },
    {
      "inputs": [
        {
          "internalType": "enum PredictorPass.PassType",
          "name": "_passType",
          "type": "uint8"
        },
        {
          "internalType": "uint256",
          "name": "_fee",
          "type": "uint256"
        }
      ],
      "name": "updateFee",
      "outputs": [],
      "stateMutability": "nonpayable",
      "type": "function"
    },
    {
      "inputs": [],
      "name": "withdraw",
      "outputs": [],
      "stateMutability": "payable",
      "type": "function"
    }
  ],
  "bytecode": "0x60806040523480156200001157600080fd5b506040518060400160405280600e81526020017f507265646963746f7220506173730000000000000000000000000000000000008152506040518060400160405280600281526020017f5050000000000000000000000000000000000000000000000000000000000000815250816000908051906020019062000096929190620004f7565b508060019080519060200190620000af929190620004f7565b505050620000d2620000c66200041360201b60201c565b6200041b60201b60201c565b620000e96008620004e160201b6200178a1760201c565b600b60405180604001604052806000600381111562000131577f4e487b7100000000000000000000000000000000000000000000000000000000600052602160045260246000fd5b81526020016000815250908060018154018082558091505060019003906000526020600020906002020160009091909190915060008201518160000160006101000a81548160ff02191690836003811115620001b6577f4e487b7100000000000000000000000000000000000000000000000000000000600052602160045260246000fd5b0217905550602082015181600101555050662386f26fc10000600960008060038111156200020d577f4e487b7100000000000000000000000000000000000000000000000000000000600052602160045260246000fd5b600381111562000246577f4e487b7100000000000000000000000000000000000000000000000000000000600052602160045260246000fd5b81526020019081526020016000208190555066470de4df82000060096000600160038111156200029f577f4e487b7100000000000000000000000000000000000000000000000000000000600052602160045260246000fd5b6003811115620002d8577f4e487b7100000000000000000000000000000000000000000000000000000000600052602160045260246000fd5b815260200190815260200160002081905550666a94d74f430000600960006002600381111562000331577f4e487b7100000000000000000000000000000000000000000000000000000000600052602160045260246000fd5b60038111156200036a577f4e487b7100000000000000000000000000000000000000000000000000000000600052602160045260246000fd5b81526020019081526020016000208190555066b1a2bc2ec5000060096000600380811115620003c2577f4e487b7100000000000000000000000000000000000000000000000000000000600052602160045260246000fd5b6003811115620003fb577f4e487b7100000000000000000000000000000000000000000000000000000000600052602160045260246000fd5b8152602001908152602001600020819055506200060c565b600033905090565b6000600760009054906101000a900473ffffffffffffffffffffffffffffffffffffffff16905081600760006101000a81548173ffffffffffffffffffffffffffffffffffffffff021916908373ffffffffffffffffffffffffffffffffffffffff1602179055508173ffffffffffffffffffffffffffffffffffffffff168173ffffffffffffffffffffffffffffffffffffffff167f8be0079c531659141344cd1fd0a4f28419497f9722a3daafe3b4186f6b6457e060405160405180910390a35050565b6001816000016000828254019250508190555050565b8280546200050590620005a7565b90600052602060002090601f01602090048101928262000529576000855562000575565b82601f106200054457805160ff191683800117855562000575565b8280016001018555821562000575579182015b828111156200057457825182559160200191906001019062000557565b5b50905062000584919062000588565b5090565b5b80821115620005a357600081600090555060010162000589565b5090565b60006002820490506001821680620005c057607f821691505b60208210811415620005d757620005d6620005dd565b5b50919050565b7f4e487b7100000000000000000000000000000000000000000000000000000000600052602260045260246000fd5b613bae806200061c6000396000f3fe6080604052600436106101cd5760003560e01c80636e321ce4116100f757806395d89b4111610095578063e985e9c511610064578063e985e9c5146106b7578063eefb4271146106f4578063f2fde38b14610731578063fde1276a1461075a576101cd565b806395d89b41146105fd578063a22cb46514610628578063b88d4fde14610651578063c87b56dd1461067a576101cd565b8063715018a6116100d1578063715018a614610576578063723f571c1461058d5780638b8436f9146105b65780638da5cb5b146105d2576101cd565b80636e321ce4146104d25780637052a5e51461051057806370a0823114610539576101cd565b8063357c13541161016f57806342842e0e1161013e57806342842e0e14610404578063467ccc451461042d57806355a6f86f146104585780636352211e14610495576101cd565b8063357c1354146103435780633ab3c647146103805780633ccfd60b146103bd5780633e6175ae146103c7576101cd565b8063081812fc116101ab578063081812fc14610277578063095ea7b3146102b45780630fff4474146102dd57806323b872dd1461031a576101cd565b806301ffc9a7146101d257806306f2791a1461020f57806306fdde031461024c575b600080fd5b3480156101de57600080fd5b506101f960048036038101906101f49190612a34565b610783565b6040516102069190612fae565b60405180910390f35b34801561021b57600080fd5b5061023660048036038101906102319190612851565b610865565b6040516102439190613253565b60405180910390f35b34801561025857600080fd5b506102616108bb565b60405161026e9190612ff2565b60405180910390f35b34801561028357600080fd5b5061029e60048036038101906102999190612aeb565b61094d565b6040516102ab9190612f25565b60405180910390f35b3480156102c057600080fd5b506102db60048036038101906102d691906129bc565b610993565b005b3480156102e957600080fd5b5061030460048036038101906102ff9190612851565b610aab565b6040516103119190613253565b60405180910390f35b34801561032657600080fd5b50610341600480360381019061033c91906128b6565b610acb565b005b34801561034f57600080fd5b5061036a60048036038101906103659190612a86565b610b2b565b604051610377919061320f565b60405180910390f35b34801561038c57600080fd5b506103a760048036038101906103a29190612851565b610b43565b6040516103b491906131f4565b60405180910390f35b6103c5610cf8565b005b3480156103d357600080fd5b506103ee60048036038101906103e99190612851565b610d56565b6040516103fb919061320f565b60405180910390f35b34801561041057600080fd5b5061042b600480360381019061042691906128b6565b610d9f565b005b34801561043957600080fd5b50610442610dbf565b60405161044f9190612f8c565b60405180910390f35b34801561046457600080fd5b5061047f600480360381019061047a9190612aeb565b610eaf565b60405161048c91906131f4565b60405180910390f35b3480156104a157600080fd5b506104bc60048036038101906104b79190612aeb565b610fa2565b6040516104c99190612f25565b60405180910390f35b3480156104de57600080fd5b506104f960048036038101906104f49190612aeb565b611054565b604051610507929190612fc9565b60405180910390f35b34801561051c57600080fd5b5061053760048036038101906105329190612aaf565b611095565b005b34801561054557600080fd5b50610560600480360381019061055b9190612851565b611129565b60405161056d919061320f565b60405180910390f35b34801561058257600080fd5b5061058b6111e1565b005b34801561059957600080fd5b506105b460048036038101906105af91906129f8565b6111f5565b005b6105d060048036038101906105cb9190612a86565b61126a565b005b3480156105de57600080fd5b506105e76113af565b6040516105f49190612f25565b60405180910390f35b34801561060957600080fd5b506106126113d9565b60405161061f9190612ff2565b60405180910390f35b34801561063457600080fd5b5061064f600480360381019061064a9190612980565b61146b565b005b34801561065d57600080fd5b5061067860048036038101906106739190612905565b611481565b005b34801561068657600080fd5b506106a1600480360381019061069c9190612aeb565b6114e3565b6040516106ae9190612ff2565b60405180910390f35b3480156106c357600080fd5b506106de60048036038101906106d9919061287a565b6115f6565b6040516106eb9190612fae565b60405180910390f35b34801561070057600080fd5b5061071b60048036038101906107169190612851565b61168a565b604051610728919061320f565b60405180910390f35b34801561073d57600080fd5b5061075860048036038101906107539190612851565b6116a2565b005b34801561076657600080fd5b50610781600480360381019061077c9190612851565b611726565b005b60007f80ac58cd000000000000000000000000000000000000000000000000000000007bffffffffffffffffffffffffffffffffffffffffffffffffffffffff1916827bffffffffffffffffffffffffffffffffffffffffffffffffffffffff1916148061084e57507f5b5e139f000000000000000000000000000000000000000000000000000000007bffffffffffffffffffffffffffffffffffffffffffffffffffffffff1916827bffffffffffffffffffffffffffffffffffffffffffffffffffffffff1916145b8061085e575061085d826117a0565b5b9050919050565b6000600c60008373ffffffffffffffffffffffffffffffffffffffff1673ffffffffffffffffffffffffffffffffffffffff16815260200190815260200160002060009054906101000a900460ff169050919050565b6060600080546108ca90613571565b80601f01602080910402602001604051908101604052809291908181526020018280546108f690613571565b80156109435780601f1061091857610100808354040283529160200191610943565b820191906000526020600020905b81548152906001019060200180831161092657829003601f168201915b5050505050905090565b60006109588261180a565b6004600083815260200190815260200160002060009054906101000a900473ffffffffffffffffffffffffffffffffffffffff169050919050565b600061099e82610fa2565b90508073ffffffffffffffffffffffffffffffffffffffff168373ffffffffffffffffffffffffffffffffffffffff161415610a0f576040517f08c379a0000000000000000000000000000000000000000000000000000000008152600401610a0690613194565b60405180910390fd5b8073ffffffffffffffffffffffffffffffffffffffff16610a2e611855565b73ffffffffffffffffffffffffffffffffffffffff161480610a5d5750610a5c81610a57611855565b6115f6565b5b610a9c576040517f08c379a0000000000000000000000000000000000000000000000000000000008152600401610a93906130f4565b60405180910390fd5b610aa6838361185d565b505050565b600c6020528060005260406000206000915054906101000a900460ff1681565b610adc610ad6611855565b82611916565b610b1b576040517f08c379a0000000000000000000000000000000000000000000000000000000008152600401610b12906131d4565b60405180910390fd5b610b268383836119ab565b505050565b60096020528060005260406000206000915090505481565b610b4b612704565b6000600a60008473ffffffffffffffffffffffffffffffffffffffff1673ffffffffffffffffffffffffffffffffffffffff168152602001908152602001600020541415610bce576040517f08c379a0000000000000000000000000000000000000000000000000000000008152600401610bc5906131b4565b60405180910390fd5b600b600a60008473ffffffffffffffffffffffffffffffffffffffff1673ffffffffffffffffffffffffffffffffffffffff1681526020019081526020016000205481548110610c47577f4e487b7100000000000000000000000000000000000000000000000000000000600052603260045260246000fd5b90600052602060002090600202016040518060400160405290816000820160009054906101000a900460ff166003811115610cab577f4e487b7100000000000000000000000000000000000000000000000000000000600052602160045260246000fd5b6003811115610ce3577f4e487b7100000000000000000000000000000000000000000000000000000000600052602160045260246000fd5b81526020016001820154815250509050919050565b610d00611c12565b6000610d0a6113af565b90508073ffffffffffffffffffffffffffffffffffffffff166108fc479081150290604051600060405180830381858888f19350505050158015610d52573d6000803e3d6000fd5b5050565b6000600a60008373ffffffffffffffffffffffffffffffffffffffff1673ffffffffffffffffffffffffffffffffffffffff168152602001908152602001600020549050919050565b610dba83838360405180602001604052806000815250611481565b505050565b6060600b805480602002602001604051908101604052809291908181526020016000905b82821015610ea657838290600052602060002090600202016040518060400160405290816000820160009054906101000a900460ff166003811115610e51577f4e487b7100000000000000000000000000000000000000000000000000000000600052602160045260246000fd5b6003811115610e89577f4e487b7100000000000000000000000000000000000000000000000000000000600052602160045260246000fd5b815260200160018201548152505081526020019060010190610de3565b50505050905090565b610eb7612704565b600b8281548110610ef1577f4e487b7100000000000000000000000000000000000000000000000000000000600052603260045260246000fd5b90600052602060002090600202016040518060400160405290816000820160009054906101000a900460ff166003811115610f55577f4e487b7100000000000000000000000000000000000000000000000000000000600052602160045260246000fd5b6003811115610f8d577f4e487b7100000000000000000000000000000000000000000000000000000000600052602160045260246000fd5b81526020016001820154815250509050919050565b6000806002600084815260200190815260200160002060009054906101000a900473ffffffffffffffffffffffffffffffffffffffff169050600073ffffffffffffffffffffffffffffffffffffffff168173ffffffffffffffffffffffffffffffffffffffff16141561104b576040517f08c379a000000000000000000000000000000000000000000000000000000000815260040161104290613174565b60405180910390fd5b80915050919050565b600b818154811061106457600080fd5b90600052602060002090600202016000915090508060000160009054906101000a900460ff16908060010154905082565b61109d611c12565b80600960008460038111156110db577f4e487b7100000000000000000000000000000000000000000000000000000000600052602160045260246000fd5b6003811115611113577f4e487b7100000000000000000000000000000000000000000000000000000000600052602160045260246000fd5b8152602001908152602001600020819055505050565b60008073ffffffffffffffffffffffffffffffffffffffff168273ffffffffffffffffffffffffffffffffffffffff16141561119a576040517f08c379a0000000000000000000000000000000000000000000000000000000008152600401611191906130d4565b60405180910390fd5b600360008373ffffffffffffffffffffffffffffffffffffffff1673ffffffffffffffffffffffffffffffffffffffff168152602001908152602001600020549050919050565b6111e9611c12565b6111f36000611c90565b565b6111fd611c12565b60648160ff16111561120e57600080fd5b80600c60008473ffffffffffffffffffffffffffffffffffffffff1673ffffffffffffffffffffffffffffffffffffffff16815260200190815260200160002060006101000a81548160ff021916908360ff1602179055505050565b600c60003373ffffffffffffffffffffffffffffffffffffffff1673ffffffffffffffffffffffffffffffffffffffff16815260200190815260200160002060009054906101000a900460ff1660646112c39190613455565b60ff1660096000836003811115611303577f4e487b7100000000000000000000000000000000000000000000000000000000600052602160045260246000fd5b600381111561133b577f4e487b7100000000000000000000000000000000000000000000000000000000600052602160045260246000fd5b81526020019081526020016000205461135491906133c7565b34606461136191906133c7565b10156113a2576040517f08c379a000000000000000000000000000000000000000000000000000000000815260040161139990613154565b60405180910390fd5b6113ab81611d56565b5050565b6000600760009054906101000a900473ffffffffffffffffffffffffffffffffffffffff16905090565b6060600180546113e890613571565b80601f016020809104026020016040519081016040528092919081815260200182805461141490613571565b80156114615780601f1061143657610100808354040283529160200191611461565b820191906000526020600020905b81548152906001019060200180831161144457829003601f168201915b5050505050905090565b61147d611476611855565b8383611ef7565b5050565b61149261148c611855565b83611916565b6114d1576040517f08c379a00000000000000000000000000000000000000000000000000000000081526004016114c8906131d4565b60405180910390fd5b6114dd84848484612064565b50505050565b60606114ee8261180a565b600060066000848152602001908152602001600020805461150e90613571565b80601f016020809104026020016040519081016040528092919081815260200182805461153a90613571565b80156115875780601f1061155c57610100808354040283529160200191611587565b820191906000526020600020905b81548152906001019060200180831161156a57829003601f168201915b5050505050905060006115986120c0565b90506000815114156115ae5781925050506115f1565b6000825111156115e35780826040516020016115cb929190612f01565b604051602081830303815290604052925050506115f1565b6115ec846120d7565b925050505b919050565b6000600560008473ffffffffffffffffffffffffffffffffffffffff1673ffffffffffffffffffffffffffffffffffffffff16815260200190815260200160002060008373ffffffffffffffffffffffffffffffffffffffff1673ffffffffffffffffffffffffffffffffffffffff16815260200190815260200160002060009054906101000a900460ff16905092915050565b600a6020528060005260406000206000915090505481565b6116aa611c12565b600073ffffffffffffffffffffffffffffffffffffffff168173ffffffffffffffffffffffffffffffffffffffff16141561171a576040517f08c379a000000000000000000000000000000000000000000000000000000000815260040161171190613034565b60405180910390fd5b61172381611c90565b50565b61172e611c12565b6000600c60008373ffffffffffffffffffffffffffffffffffffffff1673ffffffffffffffffffffffffffffffffffffffff16815260200190815260200160002060006101000a81548160ff021916908360ff16021790555050565b6001816000016000828254019250508190555050565b60007f01ffc9a7000000000000000000000000000000000000000000000000000000007bffffffffffffffffffffffffffffffffffffffffffffffffffffffff1916827bffffffffffffffffffffffffffffffffffffffffffffffffffffffff1916149050919050565b6118138161213f565b611852576040517f08c379a000000000000000000000000000000000000000000000000000000000815260040161184990613174565b60405180910390fd5b50565b600033905090565b816004600083815260200190815260200160002060006101000a81548173ffffffffffffffffffffffffffffffffffffffff021916908373ffffffffffffffffffffffffffffffffffffffff160217905550808273ffffffffffffffffffffffffffffffffffffffff166118d083610fa2565b73ffffffffffffffffffffffffffffffffffffffff167f8c5be1e5ebec7d5bd14f71427d1e84f3dd0314c0f7b2291e5b200ac8c7c3b92560405160405180910390a45050565b60008061192283610fa2565b90508073ffffffffffffffffffffffffffffffffffffffff168473ffffffffffffffffffffffffffffffffffffffff161480611964575061196381856115f6565b5b806119a257508373ffffffffffffffffffffffffffffffffffffffff1661198a8461094d565b73ffffffffffffffffffffffffffffffffffffffff16145b91505092915050565b8273ffffffffffffffffffffffffffffffffffffffff166119cb82610fa2565b73ffffffffffffffffffffffffffffffffffffffff1614611a21576040517f08c379a0000000000000000000000000000000000000000000000000000000008152600401611a1890613054565b60405180910390fd5b600073ffffffffffffffffffffffffffffffffffffffff168273ffffffffffffffffffffffffffffffffffffffff161415611a91576040517f08c379a0000000000000000000000000000000000000000000000000000000008152600401611a8890613094565b60405180910390fd5b611a9c8383836121ab565b611aa760008261185d565b6001600360008573ffffffffffffffffffffffffffffffffffffffff1673ffffffffffffffffffffffffffffffffffffffff1681526020019081526020016000206000828254611af79190613421565b925050819055506001600360008473ffffffffffffffffffffffffffffffffffffffff1673ffffffffffffffffffffffffffffffffffffffff1681526020019081526020016000206000828254611b4e9190613340565b92505081905550816002600083815260200190815260200160002060006101000a81548173ffffffffffffffffffffffffffffffffffffffff021916908373ffffffffffffffffffffffffffffffffffffffff160217905550808273ffffffffffffffffffffffffffffffffffffffff168473ffffffffffffffffffffffffffffffffffffffff167fddf252ad1be2c89b69c2b068fc378daa952ba7f163c4a11628f55a4df523b3ef60405160405180910390a4611c0d8383836121b0565b505050565b611c1a611855565b73ffffffffffffffffffffffffffffffffffffffff16611c386113af565b73ffffffffffffffffffffffffffffffffffffffff1614611c8e576040517f08c379a0000000000000000000000000000000000000000000000000000000008152600401611c8590613134565b60405180910390fd5b565b6000600760009054906101000a900473ffffffffffffffffffffffffffffffffffffffff16905081600760006101000a81548173ffffffffffffffffffffffffffffffffffffffff021916908373ffffffffffffffffffffffffffffffffffffffff1602179055508173ffffffffffffffffffffffffffffffffffffffff168173ffffffffffffffffffffffffffffffffffffffff167f8be0079c531659141344cd1fd0a4f28419497f9722a3daafe3b4186f6b6457e060405160405180910390a35050565b6000611d62600861178a565b6000611d6e60086121b5565b905060006040518060400160405280856003811115611db6577f4e487b7100000000000000000000000000000000000000000000000000000000600052602160045260246000fd5b8152602001838152509050600b81908060018154018082558091505060019003906000526020600020906002020160009091909190915060008201518160000160006101000a81548160ff02191690836003811115611e3e577f4e487b7100000000000000000000000000000000000000000000000000000000600052602160045260246000fd5b021790555060208201518160010155505081600a60003373ffffffffffffffffffffffffffffffffffffffff1673ffffffffffffffffffffffffffffffffffffffff16815260200190815260200160002081905550611e9d33836121c3565b3373ffffffffffffffffffffffffffffffffffffffff167fef965111aef937208463ba1298170fb472b7433625d24512e8f27bcf04a237a38386604051611ee592919061322a565b60405180910390a28192505050919050565b8173ffffffffffffffffffffffffffffffffffffffff168373ffffffffffffffffffffffffffffffffffffffff161415611f66576040517f08c379a0000000000000000000000000000000000000000000000000000000008152600401611f5d906130b4565b60405180910390fd5b80600560008573ffffffffffffffffffffffffffffffffffffffff1673ffffffffffffffffffffffffffffffffffffffff16815260200190815260200160002060008473ffffffffffffffffffffffffffffffffffffffff1673ffffffffffffffffffffffffffffffffffffffff16815260200190815260200160002060006101000a81548160ff0219169083151502179055508173ffffffffffffffffffffffffffffffffffffffff168373ffffffffffffffffffffffffffffffffffffffff167f17307eab39ab6107e8899845ad3d59bd9653f200f220920489ca2b5937696c31836040516120579190612fae565b60405180910390a3505050565b61206f8484846119ab565b61207b8484848461239d565b6120ba576040517f08c379a00000000000000000000000000000000000000000000000000000000081526004016120b190613014565b60405180910390fd5b50505050565b606060405180602001604052806000815250905090565b60606120e28261180a565b60006120ec6120c0565b9050600081511161210c5760405180602001604052806000815250612137565b8061211684612534565b604051602001612127929190612f01565b6040516020818303038152906040525b915050919050565b60008073ffffffffffffffffffffffffffffffffffffffff166002600084815260200190815260200160002060009054906101000a900473ffffffffffffffffffffffffffffffffffffffff1673ffffffffffffffffffffffffffffffffffffffff1614159050919050565b505050565b505050565b600081600001549050919050565b600073ffffffffffffffffffffffffffffffffffffffff168273ffffffffffffffffffffffffffffffffffffffff161415612233576040517f08c379a000000000000000000000000000000000000000000000000000000000815260040161222a90613114565b60405180910390fd5b61223c8161213f565b1561227c576040517f08c379a000000000000000000000000000000000000000000000000000000000815260040161227390613074565b60405180910390fd5b612288600083836121ab565b6001600360008473ffffffffffffffffffffffffffffffffffffffff1673ffffffffffffffffffffffffffffffffffffffff16815260200190815260200160002060008282546122d89190613340565b92505081905550816002600083815260200190815260200160002060006101000a81548173ffffffffffffffffffffffffffffffffffffffff021916908373ffffffffffffffffffffffffffffffffffffffff160217905550808273ffffffffffffffffffffffffffffffffffffffff16600073ffffffffffffffffffffffffffffffffffffffff167fddf252ad1be2c89b69c2b068fc378daa952ba7f163c4a11628f55a4df523b3ef60405160405180910390a4612399600083836121b0565b5050565b60006123be8473ffffffffffffffffffffffffffffffffffffffff166126e1565b15612527578373ffffffffffffffffffffffffffffffffffffffff1663150b7a026123e7611855565b8786866040518563ffffffff1660e01b81526004016124099493929190612f40565b602060405180830381600087803b15801561242357600080fd5b505af192505050801561245457506040513d601f19601f820116820180604052508101906124519190612a5d565b60015b6124d7573d8060008114612484576040519150601f19603f3d011682016040523d82523d6000602084013e612489565b606091505b506000815114156124cf576040517f08c379a00000000000000000000000000000000000000000000000000000000081526004016124c690613014565b60405180910390fd5b805181602001fd5b63150b7a0260e01b7bffffffffffffffffffffffffffffffffffffffffffffffffffffffff1916817bffffffffffffffffffffffffffffffffffffffffffffffffffffffff19161491505061252c565b600190505b949350505050565b6060600082141561257c576040518060400160405280600181526020017f300000000000000000000000000000000000000000000000000000000000000081525090506126dc565b600082905060005b600082146125ae578080612597906135d4565b915050600a826125a79190613396565b9150612584565b60008167ffffffffffffffff8111156125f0577f4e487b7100000000000000000000000000000000000000000000000000000000600052604160045260246000fd5b6040519080825280601f01601f1916602001820160405280156126225781602001600182028036833780820191505090505b5090505b600085146126d55760018261263b9190613421565b9150600a8561264a919061361d565b60306126569190613340565b60f81b818381518110612692577f4e487b7100000000000000000000000000000000000000000000000000000000600052603260045260246000fd5b60200101907effffffffffffffffffffffffffffffffffffffffffffffffffffffffffffff1916908160001a905350600a856126ce9190613396565b9450612626565b8093505050505b919050565b6000808273ffffffffffffffffffffffffffffffffffffffff163b119050919050565b604051806040016040528060006003811115612749577f4e487b7100000000000000000000000000000000000000000000000000000000600052602160045260246000fd5b8152602001600081525090565b600061276961276484613293565b61326e565b90508281526020810184848401111561278157600080fd5b61278c84828561352f565b509392505050565b6000813590506127a381613af5565b92915050565b6000813590506127b881613b0c565b92915050565b6000813590506127cd81613b23565b92915050565b6000815190506127e281613b23565b92915050565b600082601f8301126127f957600080fd5b8135612809848260208601612756565b91505092915050565b60008135905061282181613b3a565b92915050565b60008135905061283681613b4a565b92915050565b60008135905061284b81613b61565b92915050565b60006020828403121561286357600080fd5b600061287184828501612794565b91505092915050565b6000806040838503121561288d57600080fd5b600061289b85828601612794565b92505060206128ac85828601612794565b9150509250929050565b6000806000606084860312156128cb57600080fd5b60006128d986828701612794565b93505060206128ea86828701612794565b92505060406128fb86828701612827565b9150509250925092565b6000806000806080858703121561291b57600080fd5b600061292987828801612794565b945050602061293a87828801612794565b935050604061294b87828801612827565b925050606085013567ffffffffffffffff81111561296857600080fd5b612974878288016127e8565b91505092959194509250565b6000806040838503121561299357600080fd5b60006129a185828601612794565b92505060206129b2858286016127a9565b9150509250929050565b600080604083850312156129cf57600080fd5b60006129dd85828601612794565b92505060206129ee85828601612827565b9150509250929050565b60008060408385031215612a0b57600080fd5b6000612a1985828601612794565b9250506020612a2a8582860161283c565b9150509250929050565b600060208284031215612a4657600080fd5b6000612a54848285016127be565b91505092915050565b600060208284031215612a6f57600080fd5b6000612a7d848285016127d3565b91505092915050565b600060208284031215612a9857600080fd5b6000612aa684828501612812565b91505092915050565b60008060408385031215612ac257600080fd5b6000612ad085828601612812565b9250506020612ae185828601612827565b9150509250929050565b600060208284031215612afd57600080fd5b6000612b0b84828501612827565b91505092915050565b6000612b208383612e76565b60408301905092915050565b612b3581613489565b82525050565b6000612b46826132d4565b612b508185613302565b9350612b5b836132c4565b8060005b83811015612b8c578151612b738882612b14565b9750612b7e836132f5565b925050600181019050612b5f565b5085935050505092915050565b612ba28161349b565b82525050565b6000612bb3826132df565b612bbd8185613313565b9350612bcd81856020860161353e565b612bd681613739565b840191505092915050565b612bea8161351d565b82525050565b612bf98161351d565b82525050565b6000612c0a826132ea565b612c148185613324565b9350612c2481856020860161353e565b612c2d81613739565b840191505092915050565b6000612c43826132ea565b612c4d8185613335565b9350612c5d81856020860161353e565b80840191505092915050565b6000612c76603283613324565b9150612c818261374a565b604082019050919050565b6000612c99602683613324565b9150612ca482613799565b604082019050919050565b6000612cbc602583613324565b9150612cc7826137e8565b604082019050919050565b6000612cdf601c83613324565b9150612cea82613837565b602082019050919050565b6000612d02602483613324565b9150612d0d82613860565b604082019050919050565b6000612d25601983613324565b9150612d30826138af565b602082019050919050565b6000612d48602983613324565b9150612d53826138d8565b604082019050919050565b6000612d6b603e83613324565b9150612d7682613927565b604082019050919050565b6000612d8e602083613324565b9150612d9982613976565b602082019050919050565b6000612db1602083613324565b9150612dbc8261399f565b602082019050919050565b6000612dd4601383613324565b9150612ddf826139c8565b602082019050919050565b6000612df7601883613324565b9150612e02826139f1565b602082019050919050565b6000612e1a602183613324565b9150612e2582613a1a565b604082019050919050565b6000612e3d601983613324565b9150612e4882613a69565b602082019050919050565b6000612e60602e83613324565b9150612e6b82613a92565b604082019050919050565b604082016000820151612e8c6000850182612be1565b506020820151612e9f6020850182612ed4565b50505050565b604082016000820151612ebb6000850182612be1565b506020820151612ece6020850182612ed4565b50505050565b612edd81613506565b82525050565b612eec81613506565b82525050565b612efb81613510565b82525050565b6000612f0d8285612c38565b9150612f198284612c38565b91508190509392505050565b6000602082019050612f3a6000830184612b2c565b92915050565b6000608082019050612f556000830187612b2c565b612f626020830186612b2c565b612f6f6040830185612ee3565b8181036060830152612f818184612ba8565b905095945050505050565b60006020820190508181036000830152612fa68184612b3b565b905092915050565b6000602082019050612fc36000830184612b99565b92915050565b6000604082019050612fde6000830185612bf0565b612feb6020830184612ee3565b9392505050565b6000602082019050818103600083015261300c8184612bff565b905092915050565b6000602082019050818103600083015261302d81612c69565b9050919050565b6000602082019050818103600083015261304d81612c8c565b9050919050565b6000602082019050818103600083015261306d81612caf565b9050919050565b6000602082019050818103600083015261308d81612cd2565b9050919050565b600060208201905081810360008301526130ad81612cf5565b9050919050565b600060208201905081810360008301526130cd81612d18565b9050919050565b600060208201905081810360008301526130ed81612d3b565b9050919050565b6000602082019050818103600083015261310d81612d5e565b9050919050565b6000602082019050818103600083015261312d81612d81565b9050919050565b6000602082019050818103600083015261314d81612da4565b9050919050565b6000602082019050818103600083015261316d81612dc7565b9050919050565b6000602082019050818103600083015261318d81612dea565b9050919050565b600060208201905081810360008301526131ad81612e0d565b9050919050565b600060208201905081810360008301526131cd81612e30565b9050919050565b600060208201905081810360008301526131ed81612e53565b9050919050565b60006040820190506132096000830184612ea5565b92915050565b60006020820190506132246000830184612ee3565b92915050565b600060408201905061323f6000830185612ee3565b61324c6020830184612bf0565b9392505050565b60006020820190506132686000830184612ef2565b92915050565b6000613278613289565b905061328482826135a3565b919050565b6000604051905090565b600067ffffffffffffffff8211156132ae576132ad61370a565b5b6132b782613739565b9050602081019050919050565b6000819050602082019050919050565b600081519050919050565b600081519050919050565b600081519050919050565b6000602082019050919050565b600082825260208201905092915050565b600082825260208201905092915050565b600082825260208201905092915050565b600081905092915050565b600061334b82613506565b915061335683613506565b9250827fffffffffffffffffffffffffffffffffffffffffffffffffffffffffffffffff0382111561338b5761338a61364e565b5b828201905092915050565b60006133a182613506565b91506133ac83613506565b9250826133bc576133bb61367d565b5b828204905092915050565b60006133d282613506565b91506133dd83613506565b9250817fffffffffffffffffffffffffffffffffffffffffffffffffffffffffffffffff04831182151516156134165761341561364e565b5b828202905092915050565b600061342c82613506565b915061343783613506565b92508282101561344a5761344961364e565b5b828203905092915050565b600061346082613510565b915061346b83613510565b92508282101561347e5761347d61364e565b5b828203905092915050565b6000613494826134e6565b9050919050565b60008115159050919050565b60007fffffffff0000000000000000000000000000000000000000000000000000000082169050919050565b60008190506134e182613ae1565b919050565b600073ffffffffffffffffffffffffffffffffffffffff82169050919050565b6000819050919050565b600060ff82169050919050565b6000613528826134d3565b9050919050565b82818337600083830152505050565b60005b8381101561355c578082015181840152602081019050613541565b8381111561356b576000848401525b50505050565b6000600282049050600182168061358957607f821691505b6020821081141561359d5761359c6136db565b5b50919050565b6135ac82613739565b810181811067ffffffffffffffff821117156135cb576135ca61370a565b5b80604052505050565b60006135df82613506565b91507fffffffffffffffffffffffffffffffffffffffffffffffffffffffffffffffff8214156136125761361161364e565b5b600182019050919050565b600061362882613506565b915061363383613506565b9250826136435761364261367d565b5b828206905092915050565b7f4e487b7100000000000000000000000000000000000000000000000000000000600052601160045260246000fd5b7f4e487b7100000000000000000000000000000000000000000000000000000000600052601260045260246000fd5b7f4e487b7100000000000000000000000000000000000000000000000000000000600052602160045260246000fd5b7f4e487b7100000000000000000000000000000000000000000000000000000000600052602260045260246000fd5b7f4e487b7100000000000000000000000000000000000000000000000000000000600052604160045260246000fd5b6000601f19601f8301169050919050565b7f4552433732313a207472616e7366657220746f206e6f6e20455243373231526560008201527f63656976657220696d706c656d656e7465720000000000000000000000000000602082015250565b7f4f776e61626c653a206e6577206f776e657220697320746865207a65726f206160008201527f6464726573730000000000000000000000000000000000000000000000000000602082015250565b7f4552433732313a207472616e736665722066726f6d20696e636f72726563742060008201527f6f776e6572000000000000000000000000000000000000000000000000000000602082015250565b7f4552433732313a20746f6b656e20616c7265616479206d696e74656400000000600082015250565b7f4552433732313a207472616e7366657220746f20746865207a65726f2061646460008201527f7265737300000000000000000000000000000000000000000000000000000000602082015250565b7f4552433732313a20617070726f766520746f2063616c6c657200000000000000600082015250565b7f4552433732313a2061646472657373207a65726f206973206e6f74206120766160008201527f6c6964206f776e65720000000000000000000000000000000000000000000000602082015250565b7f4552433732313a20617070726f76652063616c6c6572206973206e6f7420746f60008201527f6b656e206f776e6572206e6f7220617070726f76656420666f7220616c6c0000602082015250565b7f4552433732313a206d696e7420746f20746865207a65726f2061646472657373600082015250565b7f4f776e61626c653a2063616c6c6572206973206e6f7420746865206f776e6572600082015250565b7f4e6f7420656e6f756768204554482073656e7400000000000000000000000000600082015250565b7f4552433732313a20696e76616c696420746f6b656e2049440000000000000000600082015250565b7f4552433732313a20617070726f76616c20746f2063757272656e74206f776e6560008201527f7200000000000000000000000000000000000000000000000000000000000000602082015250565b7f5573657220646f6573206e6f7420686176652061207061737300000000000000600082015250565b7f4552433732313a2063616c6c6572206973206e6f7420746f6b656e206f776e6560008201527f72206e6f7220617070726f766564000000000000000000000000000000000000602082015250565b60048110613af257613af16136ac565b5b50565b613afe81613489565b8114613b0957600080fd5b50565b613b158161349b565b8114613b2057600080fd5b50565b613b2c816134a7565b8114613b3757600080fd5b50565b60048110613b4757600080fd5b50565b613b5381613506565b8114613b5e57600080fd5b50565b613b6a81613510565b8114613b7557600080fd5b5056fea26469706673582212206030b03990558814bed32c2fe6e11b4c39b489a192ef63ca5b62c0b3c3a8ffa164736f6c63430008010033",
  "linkReferences": {},
  "deployedLinkReferences": {}
}