{
  "_format": "hh-sol-artifact-1",
  "contractName": "PredictorPass",
  "sourceName": "contracts/PredictorPass.sol",
  "abi": [
    {
      "inputs": [
        {
          "internalType": "string",
          "name": "_baseURI",
          "type": "string"
        },
        {
          "internalType": "contract IERC20",
          "name": "_usdcInstance",
          "type": "address"
        }
      ],
      "stateMutability": "nonpayable",
      "type": "constructor"
    },
    {
      "anonymous": false,
      "inputs": [
        {
          "indexed": true,
          "internalType": "address",
          "name": "owner",
          "type": "address"
        },
        {
          "indexed": true,
          "internalType": "address",
          "name": "approved",
          "type": "address"
        },
        {
          "indexed": true,
          "internalType": "uint256",
          "name": "tokenId",
          "type": "uint256"
        }
      ],
      "name": "Approval",
      "type": "event"
    },
    {
      "anonymous": false,
      "inputs": [
        {
          "indexed": true,
          "internalType": "address",
          "name": "owner",
          "type": "address"
        },
        {
          "indexed": true,
          "internalType": "address",
          "name": "operator",
          "type": "address"
        },
        {
          "indexed": false,
          "internalType": "bool",
          "name": "approved",
          "type": "bool"
        }
      ],
      "name": "ApprovalForAll",
      "type": "event"
    },
    {
      "anonymous": false,
      "inputs": [
        {
          "indexed": true,
          "internalType": "address",
          "name": "owner",
          "type": "address"
        },
        {
          "indexed": false,
          "internalType": "uint256",
          "name": "id",
          "type": "uint256"
        },
        {
          "indexed": false,
          "internalType": "enum PredictorPass.PassType",
          "name": "passType",
          "type": "uint8"
        }
      ],
      "name": "NewPass",
      "type": "event"
    },
    {
      "anonymous": false,
      "inputs": [
        {
          "indexed": true,
          "internalType": "address",
          "name": "previousOwner",
          "type": "address"
        },
        {
          "indexed": true,
          "internalType": "address",
          "name": "newOwner",
          "type": "address"
        }
      ],
      "name": "OwnershipTransferred",
      "type": "event"
    },
    {
      "anonymous": false,
      "inputs": [
        {
          "indexed": true,
          "internalType": "address",
          "name": "from",
          "type": "address"
        },
        {
          "indexed": true,
          "internalType": "address",
          "name": "to",
          "type": "address"
        },
        {
          "indexed": true,
          "internalType": "uint256",
          "name": "tokenId",
          "type": "uint256"
        }
      ],
      "name": "Transfer",
      "type": "event"
    },
    {
      "inputs": [
        {
          "internalType": "address",
          "name": "to",
          "type": "address"
        },
        {
          "internalType": "uint256",
          "name": "tokenId",
          "type": "uint256"
        }
      ],
      "name": "approve",
      "outputs": [],
      "stateMutability": "nonpayable",
      "type": "function"
    },
    {
      "inputs": [
        {
          "internalType": "address",
          "name": "owner",
          "type": "address"
        }
      ],
      "name": "balanceOf",
      "outputs": [
        {
          "internalType": "uint256",
          "name": "",
          "type": "uint256"
        }
      ],
      "stateMutability": "view",
      "type": "function"
    },
    {
      "inputs": [],
      "name": "baseURI",
      "outputs": [
        {
          "internalType": "string",
          "name": "",
          "type": "string"
        }
      ],
      "stateMutability": "view",
      "type": "function"
    },
    {
      "inputs": [
        {
          "internalType": "uint256",
          "name": "tokenId",
          "type": "uint256"
        }
      ],
      "name": "burn",
      "outputs": [],
      "stateMutability": "nonpayable",
      "type": "function"
    },
    {
      "inputs": [
        {
          "internalType": "enum PredictorPass.PassType",
          "name": "",
          "type": "uint8"
        }
      ],
      "name": "fees",
      "outputs": [
        {
          "internalType": "uint256",
          "name": "",
          "type": "uint256"
        }
      ],
      "stateMutability": "view",
      "type": "function"
    },
    {
      "inputs": [
        {
          "internalType": "uint256",
          "name": "tokenId",
          "type": "uint256"
        }
      ],
      "name": "getApproved",
      "outputs": [
        {
          "internalType": "address",
          "name": "",
          "type": "address"
        }
      ],
      "stateMutability": "view",
      "type": "function"
    },
    {
      "inputs": [],
      "name": "getFees",
      "outputs": [
        {
          "internalType": "uint256[4]",
          "name": "",
          "type": "uint256[4]"
        }
      ],
      "stateMutability": "view",
      "type": "function"
    },
    {
      "inputs": [
        {
          "internalType": "uint256",
          "name": "_id",
          "type": "uint256"
        }
      ],
      "name": "getPass",
      "outputs": [
        {
          "internalType": "uint8",
          "name": "",
          "type": "uint8"
        },
        {
          "internalType": "uint256",
          "name": "",
          "type": "uint256"
        }
      ],
      "stateMutability": "view",
      "type": "function"
    },
    {
      "inputs": [],
      "name": "getPasses",
      "outputs": [
        {
          "components": [
            {
              "internalType": "enum PredictorPass.PassType",
              "name": "passType",
              "type": "uint8"
            },
            {
              "internalType": "uint256",
              "name": "id",
              "type": "uint256"
            }
          ],
          "internalType": "struct PredictorPass.Pass[]",
          "name": "",
          "type": "tuple[]"
        }
      ],
      "stateMutability": "view",
      "type": "function"
    },
    {
      "inputs": [
        {
          "internalType": "address",
          "name": "_addr",
          "type": "address"
        }
      ],
      "name": "getPlayerPass",
      "outputs": [
        {
          "internalType": "uint8",
          "name": "",
          "type": "uint8"
        },
        {
          "internalType": "uint256",
          "name": "",
          "type": "uint256"
        }
      ],
      "stateMutability": "view",
      "type": "function"
    },
    {
      "inputs": [
        {
          "internalType": "address",
          "name": "_addr",
          "type": "address"
        }
      ],
      "name": "getPlayerPassId",
      "outputs": [
        {
          "internalType": "uint256",
          "name": "",
          "type": "uint256"
        }
      ],
      "stateMutability": "view",
      "type": "function"
    },
    {
      "inputs": [],
      "name": "getTokenIds",
      "outputs": [
        {
          "internalType": "uint256",
          "name": "",
          "type": "uint256"
        }
      ],
      "stateMutability": "view",
      "type": "function"
    },
    {
      "inputs": [
        {
          "internalType": "address",
          "name": "owner",
          "type": "address"
        },
        {
          "internalType": "address",
          "name": "operator",
          "type": "address"
        }
      ],
      "name": "isApprovedForAll",
      "outputs": [
        {
          "internalType": "bool",
          "name": "",
          "type": "bool"
        }
      ],
      "stateMutability": "view",
      "type": "function"
    },
    {
      "inputs": [
        {
          "internalType": "enum PredictorPass.PassType",
          "name": "_passType",
          "type": "uint8"
        }
      ],
      "name": "mintPass",
      "outputs": [],
      "stateMutability": "payable",
      "type": "function"
    },
    {
      "inputs": [],
      "name": "name",
      "outputs": [
        {
          "internalType": "string",
          "name": "",
          "type": "string"
        }
      ],
      "stateMutability": "view",
      "type": "function"
    },
    {
      "inputs": [],
      "name": "owner",
      "outputs": [
        {
          "internalType": "address",
          "name": "",
          "type": "address"
        }
      ],
      "stateMutability": "view",
      "type": "function"
    },
    {
      "inputs": [
        {
          "internalType": "enum PredictorPass.PassType",
          "name": "_passType",
          "type": "uint8"
        },
        {
          "internalType": "address",
          "name": "_addr",
          "type": "address"
        }
      ],
      "name": "ownerMint",
      "outputs": [
        {
          "internalType": "uint256",
          "name": "",
          "type": "uint256"
        }
      ],
      "stateMutability": "nonpayable",
      "type": "function"
    },
    {
      "inputs": [
        {
          "internalType": "uint256",
          "name": "tokenId",
          "type": "uint256"
        }
      ],
      "name": "ownerOf",
      "outputs": [
        {
          "internalType": "address",
          "name": "",
          "type": "address"
        }
      ],
      "stateMutability": "view",
      "type": "function"
    },
    {
      "inputs": [
        {
          "internalType": "uint256",
          "name": "",
          "type": "uint256"
        }
      ],
      "name": "passes",
      "outputs": [
        {
          "internalType": "enum PredictorPass.PassType",
          "name": "passType",
          "type": "uint8"
        },
        {
          "internalType": "uint256",
          "name": "id",
          "type": "uint256"
        }
      ],
      "stateMutability": "view",
      "type": "function"
    },
    {
      "inputs": [
        {
          "internalType": "address",
          "name": "",
          "type": "address"
        }
      ],
      "name": "playerPassId",
      "outputs": [
        {
          "internalType": "uint256",
          "name": "",
          "type": "uint256"
        }
      ],
      "stateMutability": "view",
      "type": "function"
    },
    {
      "inputs": [],
      "name": "renounceOwnership",
      "outputs": [],
      "stateMutability": "nonpayable",
      "type": "function"
    },
    {
      "inputs": [
        {
          "internalType": "address",
          "name": "from",
          "type": "address"
        },
        {
          "internalType": "address",
          "name": "to",
          "type": "address"
        },
        {
          "internalType": "uint256",
          "name": "tokenId",
          "type": "uint256"
        }
      ],
      "name": "safeTransferFrom",
      "outputs": [],
      "stateMutability": "nonpayable",
      "type": "function"
    },
    {
      "inputs": [
        {
          "internalType": "address",
          "name": "from",
          "type": "address"
        },
        {
          "internalType": "address",
          "name": "to",
          "type": "address"
        },
        {
          "internalType": "uint256",
          "name": "tokenId",
          "type": "uint256"
        },
        {
          "internalType": "bytes",
          "name": "data",
          "type": "bytes"
        }
      ],
      "name": "safeTransferFrom",
      "outputs": [],
      "stateMutability": "nonpayable",
      "type": "function"
    },
    {
      "inputs": [
        {
          "internalType": "address",
          "name": "operator",
          "type": "address"
        },
        {
          "internalType": "bool",
          "name": "approved",
          "type": "bool"
        }
      ],
      "name": "setApprovalForAll",
      "outputs": [],
      "stateMutability": "nonpayable",
      "type": "function"
    },
    {
      "inputs": [
        {
          "internalType": "string",
          "name": "_baseURI",
          "type": "string"
        }
      ],
      "name": "setBaseURI",
      "outputs": [],
      "stateMutability": "nonpayable",
      "type": "function"
    },
    {
      "inputs": [
        {
          "internalType": "bytes4",
          "name": "interfaceId",
          "type": "bytes4"
        }
      ],
      "name": "supportsInterface",
      "outputs": [
        {
          "internalType": "bool",
          "name": "",
          "type": "bool"
        }
      ],
      "stateMutability": "view",
      "type": "function"
    },
    {
      "inputs": [],
      "name": "symbol",
      "outputs": [
        {
          "internalType": "string",
          "name": "",
          "type": "string"
        }
      ],
      "stateMutability": "view",
      "type": "function"
    },
    {
      "inputs": [
        {
          "internalType": "uint256",
          "name": "tokenId",
          "type": "uint256"
        }
      ],
      "name": "tokenURI",
      "outputs": [
        {
          "internalType": "string",
          "name": "",
          "type": "string"
        }
      ],
      "stateMutability": "view",
      "type": "function"
    },
    {
      "inputs": [
        {
          "internalType": "address",
          "name": "from",
          "type": "address"
        },
        {
          "internalType": "address",
          "name": "to",
          "type": "address"
        },
        {
          "internalType": "uint256",
          "name": "tokenId",
          "type": "uint256"
        }
      ],
      "name": "transferFrom",
      "outputs": [],
      "stateMutability": "nonpayable",
      "type": "function"
    },
    {
      "inputs": [
        {
          "internalType": "address",
          "name": "newOwner",
          "type": "address"
        }
      ],
      "name": "transferOwnership",
      "outputs": [],
      "stateMutability": "nonpayable",
      "type": "function"
    },
    {
      "inputs": [
        {
          "internalType": "enum PredictorPass.PassType",
          "name": "_passType",
          "type": "uint8"
        },
        {
          "internalType": "uint256",
          "name": "_fee",
          "type": "uint256"
        }
      ],
      "name": "updateFee",
      "outputs": [],
      "stateMutability": "nonpayable",
      "type": "function"
    },
    {
      "inputs": [],
      "name": "withdraw",
      "outputs": [],
      "stateMutability": "payable",
      "type": "function"
    }
  ],
  "bytecode": "0x60806040523480156200001157600080fd5b5060405162005ad138038062005ad183398181016040528101906200003791906200075d565b6040518060400160405280600e81526020017f507265646963746f7220506173730000000000000000000000000000000000008152506040518060400160405280600281526020017f50500000000000000000000000000000000000000000000000000000000000008152508160009080519060200190620000bb92919062000624565b508060019080519060200190620000d492919062000624565b505050620000f7620000eb6200054060201b60201c565b6200054860201b60201c565b81600990805190602001906200010f92919062000624565b5080600a60006101000a81548173ffffffffffffffffffffffffffffffffffffffff021916908373ffffffffffffffffffffffffffffffffffffffff1602179055506011600a60146101000a81548160ff021916908360ff1602179055506200018460086200060e60201b62001dc21760201c565b600c604051806040016040528060006003811115620001cc577f4e487b7100000000000000000000000000000000000000000000000000000000600052602160045260246000fd5b81526020016000815250908060018154018082558091505060019003906000526020600020906002020160009091909190915060008201518160000160006101000a81548160ff0219169083600381111562000251577f4e487b7100000000000000000000000000000000000000000000000000000000600052602160045260246000fd5b0217905550602082015181600101555050600a60149054906101000a900460ff16600a62000280919062000871565b60016200028e9190620009ae565b600b6000806003811115620002cc577f4e487b7100000000000000000000000000000000000000000000000000000000600052602160045260246000fd5b600381111562000305577f4e487b7100000000000000000000000000000000000000000000000000000000600052602160045260246000fd5b815260200190815260200160002081905550600a60149054906101000a900460ff16600a62000335919062000871565b6002620003439190620009ae565b600b60006001600381111562000382577f4e487b7100000000000000000000000000000000000000000000000000000000600052602160045260246000fd5b6003811115620003bb577f4e487b7100000000000000000000000000000000000000000000000000000000600052602160045260246000fd5b815260200190815260200160002081905550600a60149054906101000a900460ff16600a620003eb919062000871565b6004620003f99190620009ae565b600b60006002600381111562000438577f4e487b7100000000000000000000000000000000000000000000000000000000600052602160045260246000fd5b600381111562000471577f4e487b7100000000000000000000000000000000000000000000000000000000600052602160045260246000fd5b815260200190815260200160002081905550600a60149054906101000a900460ff16600a620004a1919062000871565b6006620004af9190620009ae565b600b6000600380811115620004ed577f4e487b7100000000000000000000000000000000000000000000000000000000600052602160045260246000fd5b600381111562000526577f4e487b7100000000000000000000000000000000000000000000000000000000600052602160045260246000fd5b815260200190815260200160002081905550505062000bd5565b600033905090565b6000600760009054906101000a900473ffffffffffffffffffffffffffffffffffffffff16905081600760006101000a81548173ffffffffffffffffffffffffffffffffffffffff021916908373ffffffffffffffffffffffffffffffffffffffff1602179055508173ffffffffffffffffffffffffffffffffffffffff168173ffffffffffffffffffffffffffffffffffffffff167f8be0079c531659141344cd1fd0a4f28419497f9722a3daafe3b4186f6b6457e060405160405180910390a35050565b6001816000016000828254019250508190555050565b828054620006329062000aa4565b90600052602060002090601f016020900481019282620006565760008555620006a2565b82601f106200067157805160ff1916838001178555620006a2565b82800160010185558215620006a2579182015b82811115620006a157825182559160200191906001019062000684565b5b509050620006b19190620006b5565b5090565b5b80821115620006d0576000816000905550600101620006b6565b5090565b6000620006eb620006e584620007e0565b620007b7565b9050828152602081018484840111156200070457600080fd5b6200071184828562000a6e565b509392505050565b6000815190506200072a8162000bbb565b92915050565b600082601f8301126200074257600080fd5b815162000754848260208601620006d4565b91505092915050565b600080604083850312156200077157600080fd5b600083015167ffffffffffffffff8111156200078c57600080fd5b6200079a8582860162000730565b9250506020620007ad8582860162000719565b9150509250929050565b6000620007c3620007d6565b9050620007d1828262000ada565b919050565b6000604051905090565b600067ffffffffffffffff821115620007fe57620007fd62000b6e565b5b620008098262000b9d565b9050602081019050919050565b6000808291508390505b6001851115620008685780860481111562000840576200083f62000b10565b5b6001851615620008505780820291505b8081029050620008608562000bae565b945062000820565b94509492505050565b60006200087e8262000a57565b91506200088b8362000a61565b9250620008ba7fffffffffffffffffffffffffffffffffffffffffffffffffffffffffffffffff8484620008c2565b905092915050565b600082620008d45760019050620009a7565b81620008e45760009050620009a7565b8160018114620008fd576002811462000908576200093e565b6001915050620009a7565b60ff8411156200091d576200091c62000b10565b5b8360020a91508482111562000937576200093662000b10565b5b50620009a7565b5060208310610133831016604e8410600b8410161715620009785782820a90508381111562000972576200097162000b10565b5b620009a7565b62000987848484600162000816565b92509050818404811115620009a157620009a062000b10565b5b81810290505b9392505050565b6000620009bb8262000a57565b9150620009c88362000a57565b9250817fffffffffffffffffffffffffffffffffffffffffffffffffffffffffffffffff048311821515161562000a045762000a0362000b10565b5b828202905092915050565b600062000a1c8262000a37565b9050919050565b600062000a308262000a0f565b9050919050565b600073ffffffffffffffffffffffffffffffffffffffff82169050919050565b6000819050919050565b600060ff82169050919050565b60005b8381101562000a8e57808201518184015260208101905062000a71565b8381111562000a9e576000848401525b50505050565b6000600282049050600182168062000abd57607f821691505b6020821081141562000ad45762000ad362000b3f565b5b50919050565b62000ae58262000b9d565b810181811067ffffffffffffffff8211171562000b075762000b0662000b6e565b5b80604052505050565b7f4e487b7100000000000000000000000000000000000000000000000000000000600052601160045260246000fd5b7f4e487b7100000000000000000000000000000000000000000000000000000000600052602260045260246000fd5b7f4e487b7100000000000000000000000000000000000000000000000000000000600052604160045260246000fd5b6000601f19601f8301169050919050565b60008160011c9050919050565b62000bc68162000a23565b811462000bd257600080fd5b50565b614eec8062000be56000396000f3fe6080604052600436106101e35760003560e01c80636c0360eb1161010257806395d89b4111610095578063db8d55f111610064578063db8d55f114610711578063e985e9c51461073c578063eefb427114610779578063f2fde38b146107b6576101e3565b806395d89b4114610657578063a22cb46514610682578063b88d4fde146106ab578063c87b56dd146106d4576101e3565b8063715018a6116100d1578063715018a6146105bc5780637b99fab5146105d35780638b8436f9146106105780638da5cb5b1461062c576101e3565b80636c0360eb146104ed5780636e321ce4146105185780637052a5e51461055657806370a082311461057f576101e3565b80633e6175ae1161017a57806355a6f86f1161014957806355a6f86f1461041e57806355f804b31461045c5780636352211e1461048557806367f718a9146104c2576101e3565b80633e6175ae1461036457806342842e0e146103a157806342966c68146103ca578063467ccc45146103f3576101e3565b806323b872dd116101b657806323b872dd146102b6578063357c1354146102df5780633ab3c6471461031c5780633ccfd60b1461035a576101e3565b806301ffc9a7146101e857806306fdde0314610225578063081812fc14610250578063095ea7b31461028d575b600080fd5b3480156101f457600080fd5b5061020f600480360381019061020a919061367c565b6107df565b60405161021c9190613e90565b60405180910390f35b34801561023157600080fd5b5061023a6108c1565b6040516102479190613ed4565b60405180910390f35b34801561025c57600080fd5b50610277600480360381019061027291906137b0565b610953565b6040516102849190613db5565b60405180910390f35b34801561029957600080fd5b506102b460048036038101906102af9190613617565b610999565b005b3480156102c257600080fd5b506102dd60048036038101906102d89190613511565b610ab1565b005b3480156102eb57600080fd5b50610306600480360381019061030191906136ce565b610b4a565b6040516103139190614156565b60405180910390f35b34801561032857600080fd5b50610343600480360381019061033e91906134ac565b610b62565b60405161035192919061419a565b60405180910390f35b610362610d4c565b005b34801561037057600080fd5b5061038b600480360381019061038691906134ac565b610daa565b6040516103989190614156565b60405180910390f35b3480156103ad57600080fd5b506103c860048036038101906103c39190613511565b610df3565b005b3480156103d657600080fd5b506103f160048036038101906103ec91906137b0565b610e13565b005b3480156103ff57600080fd5b50610408610fc2565b6040516104159190613e53565b60405180910390f35b34801561042a57600080fd5b50610445600480360381019061044091906137b0565b6110b2565b60405161045392919061419a565b60405180910390f35b34801561046857600080fd5b50610483600480360381019061047e919061376f565b6111e6565b005b34801561049157600080fd5b506104ac60048036038101906104a791906137b0565b611208565b6040516104b99190613db5565b60405180910390f35b3480156104ce57600080fd5b506104d76112ba565b6040516104e49190614156565b60405180910390f35b3480156104f957600080fd5b506105026112d3565b60405161050f9190613ed4565b60405180910390f35b34801561052457600080fd5b5061053f600480360381019061053a91906137b0565b611361565b60405161054d929190613eab565b60405180910390f35b34801561056257600080fd5b5061057d60048036038101906105789190613733565b6113a2565b005b34801561058b57600080fd5b506105a660048036038101906105a191906134ac565b61145c565b6040516105b39190614156565b60405180910390f35b3480156105c857600080fd5b506105d1611514565b005b3480156105df57600080fd5b506105fa60048036038101906105f591906136f7565b611528565b6040516106079190614156565b60405180910390f35b61062a600480360381019061062591906136ce565b6115c6565b005b34801561063857600080fd5b506106416117d6565b60405161064e9190613db5565b60405180910390f35b34801561066357600080fd5b5061066c611800565b6040516106799190613ed4565b60405180910390f35b34801561068e57600080fd5b506106a960048036038101906106a491906135db565b611892565b005b3480156106b757600080fd5b506106d260048036038101906106cd9190613560565b6118a8565b005b3480156106e057600080fd5b506106fb60048036038101906106f691906137b0565b611943565b6040516107089190613ed4565b60405180910390f35b34801561071d57600080fd5b50610726611a56565b6040516107339190613e75565b60405180910390f35b34801561074857600080fd5b50610763600480360381019061075e91906134d5565b611c92565b6040516107709190613e90565b60405180910390f35b34801561078557600080fd5b506107a0600480360381019061079b91906134ac565b611d26565b6040516107ad9190614156565b60405180910390f35b3480156107c257600080fd5b506107dd60048036038101906107d891906134ac565b611d3e565b005b60007f80ac58cd000000000000000000000000000000000000000000000000000000007bffffffffffffffffffffffffffffffffffffffffffffffffffffffff1916827bffffffffffffffffffffffffffffffffffffffffffffffffffffffff191614806108aa57507f5b5e139f000000000000000000000000000000000000000000000000000000007bffffffffffffffffffffffffffffffffffffffffffffffffffffffff1916827bffffffffffffffffffffffffffffffffffffffffffffffffffffffff1916145b806108ba57506108b982611dd8565b5b9050919050565b6060600080546108d09061474d565b80601f01602080910402602001604051908101604052809291908181526020018280546108fc9061474d565b80156109495780601f1061091e57610100808354040283529160200191610949565b820191906000526020600020905b81548152906001019060200180831161092c57829003601f168201915b5050505050905090565b600061095e82611e42565b6004600083815260200190815260200160002060009054906101000a900473ffffffffffffffffffffffffffffffffffffffff169050919050565b60006109a482611208565b90508073ffffffffffffffffffffffffffffffffffffffff168373ffffffffffffffffffffffffffffffffffffffff161415610a15576040517f08c379a0000000000000000000000000000000000000000000000000000000008152600401610a0c906140d6565b60405180910390fd5b8073ffffffffffffffffffffffffffffffffffffffff16610a34611e8d565b73ffffffffffffffffffffffffffffffffffffffff161480610a635750610a6281610a5d611e8d565b611c92565b5b610aa2576040517f08c379a0000000000000000000000000000000000000000000000000000000008152600401610a9990614056565b60405180910390fd5b610aac8383611e95565b505050565b610abc838383611f4e565b6000600d60008573ffffffffffffffffffffffffffffffffffffffff1673ffffffffffffffffffffffffffffffffffffffff1681526020019081526020016000208190555080600d60008473ffffffffffffffffffffffffffffffffffffffff1673ffffffffffffffffffffffffffffffffffffffff16815260200190815260200160002081905550505050565b600b6020528060005260406000206000915090505481565b6000806000600d60008573ffffffffffffffffffffffffffffffffffffffff1673ffffffffffffffffffffffffffffffffffffffff168152602001908152602001600020541415610be8576040517f08c379a0000000000000000000000000000000000000000000000000000000008152600401610bdf906140f6565b60405180910390fd5b600c600d60008573ffffffffffffffffffffffffffffffffffffffff1673ffffffffffffffffffffffffffffffffffffffff1681526020019081526020016000205481548110610c61577f4e487b7100000000000000000000000000000000000000000000000000000000600052603260045260246000fd5b906000526020600020906002020160000160009054906101000a900460ff166003811115610cb8577f4e487b7100000000000000000000000000000000000000000000000000000000600052602160045260246000fd5b600c600d60008673ffffffffffffffffffffffffffffffffffffffff1673ffffffffffffffffffffffffffffffffffffffff1681526020019081526020016000205481548110610d31577f4e487b7100000000000000000000000000000000000000000000000000000000600052603260045260246000fd5b90600052602060002090600202016001015491509150915091565b610d54611fae565b6000610d5e6117d6565b90508073ffffffffffffffffffffffffffffffffffffffff166108fc479081150290604051600060405180830381858888f19350505050158015610da6573d6000803e3d6000fd5b5050565b6000600d60008373ffffffffffffffffffffffffffffffffffffffff1673ffffffffffffffffffffffffffffffffffffffff168152602001908152602001600020549050919050565b610e0e838383604051806020016040528060008152506118a8565b505050565b610e24610e1e611e8d565b8261202c565b610e63576040517f08c379a0000000000000000000000000000000000000000000000000000000008152600401610e5a90613ef6565b60405180910390fd5b6000610e6e82611208565b9050610e79826120c1565b6000604051806040016040528060006003811115610ec0577f4e487b7100000000000000000000000000000000000000000000000000000000600052602160045260246000fd5b81526020016000815250905080600c8481548110610f07577f4e487b7100000000000000000000000000000000000000000000000000000000600052603260045260246000fd5b906000526020600020906002020160008201518160000160006101000a81548160ff02191690836003811115610f66577f4e487b7100000000000000000000000000000000000000000000000000000000600052602160045260246000fd5b0217905550602082015181600101559050506000600d60008473ffffffffffffffffffffffffffffffffffffffff1673ffffffffffffffffffffffffffffffffffffffff16815260200190815260200160002081905550505050565b6060600c805480602002602001604051908101604052809291908181526020016000905b828210156110a957838290600052602060002090600202016040518060400160405290816000820160009054906101000a900460ff166003811115611054577f4e487b7100000000000000000000000000000000000000000000000000000000600052602160045260246000fd5b600381111561108c577f4e487b7100000000000000000000000000000000000000000000000000000000600052602160045260246000fd5b815260200160018201548152505081526020019060010190610fe6565b50505050905090565b6000806110bf6008612114565b8310611100576040517f08c379a00000000000000000000000000000000000000000000000000000000081526004016110f790614136565b60405180910390fd5b600c838154811061113a577f4e487b7100000000000000000000000000000000000000000000000000000000600052603260045260246000fd5b906000526020600020906002020160000160009054906101000a900460ff166003811115611191577f4e487b7100000000000000000000000000000000000000000000000000000000600052602160045260246000fd5b600c84815481106111cb577f4e487b7100000000000000000000000000000000000000000000000000000000600052603260045260246000fd5b90600052602060002090600202016001015491509150915091565b6111ee611fae565b8060099080519060200190611204929190613244565b5050565b6000806002600084815260200190815260200160002060009054906101000a900473ffffffffffffffffffffffffffffffffffffffff169050600073ffffffffffffffffffffffffffffffffffffffff168173ffffffffffffffffffffffffffffffffffffffff1614156112b1576040517f08c379a00000000000000000000000000000000000000000000000000000000081526004016112a8906140b6565b60405180910390fd5b80915050919050565b60006112c4611fae565b6112ce6008612114565b905090565b600980546112e09061474d565b80601f016020809104026020016040519081016040528092919081815260200182805461130c9061474d565b80156113595780601f1061132e57610100808354040283529160200191611359565b820191906000526020600020905b81548152906001019060200180831161133c57829003601f168201915b505050505081565b600c818154811061137157600080fd5b90600052602060002090600202016000915090508060000160009054906101000a900460ff16908060010154905082565b6113aa611fae565b600a60149054906101000a900460ff16600a6113c6919061444a565b816113d19190614568565b600b600084600381111561140e577f4e487b7100000000000000000000000000000000000000000000000000000000600052602160045260246000fd5b6003811115611446577f4e487b7100000000000000000000000000000000000000000000000000000000600052602160045260246000fd5b8152602001908152602001600020819055505050565b60008073ffffffffffffffffffffffffffffffffffffffff168273ffffffffffffffffffffffffffffffffffffffff1614156114cd576040517f08c379a00000000000000000000000000000000000000000000000000000000081526004016114c490614016565b60405180910390fd5b600360008373ffffffffffffffffffffffffffffffffffffffff1673ffffffffffffffffffffffffffffffffffffffff168152602001908152602001600020549050919050565b61151c611fae565b6115266000612122565b565b6000611532611fae565b6000600d60008473ffffffffffffffffffffffffffffffffffffffff1673ffffffffffffffffffffffffffffffffffffffff16815260200190815260200160002054146115b4576040517f08c379a00000000000000000000000000000000000000000000000000000000081526004016115ab90613ff6565b60405180910390fd5b6115be83836121e8565b905092915050565b6000600d60003373ffffffffffffffffffffffffffffffffffffffff1673ffffffffffffffffffffffffffffffffffffffff1681526020019081526020016000205414611648576040517f08c379a000000000000000000000000000000000000000000000000000000000815260040161163f90613ff6565b60405180910390fd5b6000600a60009054906101000a900473ffffffffffffffffffffffffffffffffffffffff1673ffffffffffffffffffffffffffffffffffffffff166323b872dd336116916117d6565b600b60008760038111156116ce577f4e487b7100000000000000000000000000000000000000000000000000000000600052602160045260246000fd5b6003811115611706577f4e487b7100000000000000000000000000000000000000000000000000000000600052602160045260246000fd5b8152602001908152602001600020546040518463ffffffff1660e01b815260040161173393929190613dd0565b602060405180830381600087803b15801561174d57600080fd5b505af1158015611761573d6000803e3d6000fd5b505050506040513d601f19601f820116820180604052508101906117859190613653565b9050806117c7576040517f08c379a00000000000000000000000000000000000000000000000000000000081526004016117be90613fd6565b60405180910390fd5b6117d182336121e8565b505050565b6000600760009054906101000a900473ffffffffffffffffffffffffffffffffffffffff16905090565b60606001805461180f9061474d565b80601f016020809104026020016040519081016040528092919081815260200182805461183b9061474d565b80156118885780601f1061185d57610100808354040283529160200191611888565b820191906000526020600020905b81548152906001019060200180831161186b57829003601f168201915b5050505050905090565b6118a461189d611e8d565b838361239b565b5050565b6118b484848484612508565b6000600d60008673ffffffffffffffffffffffffffffffffffffffff1673ffffffffffffffffffffffffffffffffffffffff1681526020019081526020016000208190555081600d60008573ffffffffffffffffffffffffffffffffffffffff1673ffffffffffffffffffffffffffffffffffffffff1681526020019081526020016000208190555050505050565b606061194e82611e42565b600060066000848152602001908152602001600020805461196e9061474d565b80601f016020809104026020016040519081016040528092919081815260200182805461199a9061474d565b80156119e75780601f106119bc576101008083540402835291602001916119e7565b820191906000526020600020905b8154815290600101906020018083116119ca57829003601f168201915b5050505050905060006119f861256a565b9050600081511415611a0e578192505050611a51565b600082511115611a43578082604051602001611a2b929190613d57565b60405160208183030381529060405292505050611a51565b611a4c84612581565b925050505b919050565b611a5e6132ca565b6040518060800160405280600b6000806003811115611aa6577f4e487b7100000000000000000000000000000000000000000000000000000000600052602160045260246000fd5b6003811115611ade577f4e487b7100000000000000000000000000000000000000000000000000000000600052602160045260246000fd5b8152602001908152602001600020548152602001600b600060016003811115611b30577f4e487b7100000000000000000000000000000000000000000000000000000000600052602160045260246000fd5b6003811115611b68577f4e487b7100000000000000000000000000000000000000000000000000000000600052602160045260246000fd5b8152602001908152602001600020548152602001600b600060026003811115611bba577f4e487b7100000000000000000000000000000000000000000000000000000000600052602160045260246000fd5b6003811115611bf2577f4e487b7100000000000000000000000000000000000000000000000000000000600052602160045260246000fd5b8152602001908152602001600020548152602001600b6000600380811115611c43577f4e487b7100000000000000000000000000000000000000000000000000000000600052602160045260246000fd5b6003811115611c7b577f4e487b7100000000000000000000000000000000000000000000000000000000600052602160045260246000fd5b815260200190815260200160002054815250905090565b6000600560008473ffffffffffffffffffffffffffffffffffffffff1673ffffffffffffffffffffffffffffffffffffffff16815260200190815260200160002060008373ffffffffffffffffffffffffffffffffffffffff1673ffffffffffffffffffffffffffffffffffffffff16815260200190815260200160002060009054906101000a900460ff16905092915050565b600d6020528060005260406000206000915090505481565b611d46611fae565b600073ffffffffffffffffffffffffffffffffffffffff168173ffffffffffffffffffffffffffffffffffffffff161415611db6576040517f08c379a0000000000000000000000000000000000000000000000000000000008152600401611dad90613f36565b60405180910390fd5b611dbf81612122565b50565b6001816000016000828254019250508190555050565b60007f01ffc9a7000000000000000000000000000000000000000000000000000000007bffffffffffffffffffffffffffffffffffffffffffffffffffffffff1916827bffffffffffffffffffffffffffffffffffffffffffffffffffffffff1916149050919050565b611e4b816125e9565b611e8a576040517f08c379a0000000000000000000000000000000000000000000000000000000008152600401611e81906140b6565b60405180910390fd5b50565b600033905090565b816004600083815260200190815260200160002060006101000a81548173ffffffffffffffffffffffffffffffffffffffff021916908373ffffffffffffffffffffffffffffffffffffffff160217905550808273ffffffffffffffffffffffffffffffffffffffff16611f0883611208565b73ffffffffffffffffffffffffffffffffffffffff167f8c5be1e5ebec7d5bd14f71427d1e84f3dd0314c0f7b2291e5b200ac8c7c3b92560405160405180910390a45050565b611f5f611f59611e8d565b8261202c565b611f9e576040517f08c379a0000000000000000000000000000000000000000000000000000000008152600401611f9590614116565b60405180910390fd5b611fa9838383612655565b505050565b611fb6611e8d565b73ffffffffffffffffffffffffffffffffffffffff16611fd46117d6565b73ffffffffffffffffffffffffffffffffffffffff161461202a576040517f08c379a000000000000000000000000000000000000000000000000000000000815260040161202190614096565b60405180910390fd5b565b60008061203883611208565b90508073ffffffffffffffffffffffffffffffffffffffff168473ffffffffffffffffffffffffffffffffffffffff16148061207a57506120798185611c92565b5b806120b857508373ffffffffffffffffffffffffffffffffffffffff166120a084610953565b73ffffffffffffffffffffffffffffffffffffffff16145b91505092915050565b6120ca816128bc565b60006006600083815260200190815260200160002080546120ea9061474d565b9050146121115760066000828152602001908152602001600020600061211091906132ec565b5b50565b600081600001549050919050565b6000600760009054906101000a900473ffffffffffffffffffffffffffffffffffffffff16905081600760006101000a81548173ffffffffffffffffffffffffffffffffffffffff021916908373ffffffffffffffffffffffffffffffffffffffff1602179055508173ffffffffffffffffffffffffffffffffffffffff168173ffffffffffffffffffffffffffffffffffffffff167f8be0079c531659141344cd1fd0a4f28419497f9722a3daafe3b4186f6b6457e060405160405180910390a35050565b6000806121f56008612114565b90506000604051806040016040528086600381111561223d577f4e487b7100000000000000000000000000000000000000000000000000000000600052602160045260246000fd5b815260200183815250905061225284836129d9565b600c81908060018154018082558091505060019003906000526020600020906002020160009091909190915060008201518160000160006101000a81548160ff021916908360038111156122cf577f4e487b7100000000000000000000000000000000000000000000000000000000600052602160045260246000fd5b021790555060208201518160010155505081600d60008673ffffffffffffffffffffffffffffffffffffffff1673ffffffffffffffffffffffffffffffffffffffff168152602001908152602001600020819055506123368261233187612bb3565b612c1f565b6123406008611dc2565b8373ffffffffffffffffffffffffffffffffffffffff167fef965111aef937208463ba1298170fb472b7433625d24512e8f27bcf04a237a38387604051612388929190614171565b60405180910390a2819250505092915050565b8173ffffffffffffffffffffffffffffffffffffffff168373ffffffffffffffffffffffffffffffffffffffff16141561240a576040517f08c379a000000000000000000000000000000000000000000000000000000000815260040161240190613fb6565b60405180910390fd5b80600560008573ffffffffffffffffffffffffffffffffffffffff1673ffffffffffffffffffffffffffffffffffffffff16815260200190815260200160002060008473ffffffffffffffffffffffffffffffffffffffff1673ffffffffffffffffffffffffffffffffffffffff16815260200190815260200160002060006101000a81548160ff0219169083151502179055508173ffffffffffffffffffffffffffffffffffffffff168373ffffffffffffffffffffffffffffffffffffffff167f17307eab39ab6107e8899845ad3d59bd9653f200f220920489ca2b5937696c31836040516124fb9190613e90565b60405180910390a3505050565b612519612513611e8d565b8361202c565b612558576040517f08c379a000000000000000000000000000000000000000000000000000000000815260040161254f90614116565b60405180910390fd5b61256484848484612c93565b50505050565b606060405180602001604052806000815250905090565b606061258c82611e42565b600061259661256a565b905060008151116125b657604051806020016040528060008152506125e1565b806125c084612cef565b6040516020016125d1929190613d57565b6040516020818303038152906040525b915050919050565b60008073ffffffffffffffffffffffffffffffffffffffff166002600084815260200190815260200160002060009054906101000a900473ffffffffffffffffffffffffffffffffffffffff1673ffffffffffffffffffffffffffffffffffffffff1614159050919050565b8273ffffffffffffffffffffffffffffffffffffffff1661267582611208565b73ffffffffffffffffffffffffffffffffffffffff16146126cb576040517f08c379a00000000000000000000000000000000000000000000000000000000081526004016126c290613f56565b60405180910390fd5b600073ffffffffffffffffffffffffffffffffffffffff168273ffffffffffffffffffffffffffffffffffffffff16141561273b576040517f08c379a000000000000000000000000000000000000000000000000000000000815260040161273290613f96565b60405180910390fd5b612746838383612e9c565b612751600082611e95565b6001600360008573ffffffffffffffffffffffffffffffffffffffff1673ffffffffffffffffffffffffffffffffffffffff16815260200190815260200160002060008282546127a191906145fd565b925050819055506001600360008473ffffffffffffffffffffffffffffffffffffffff1673ffffffffffffffffffffffffffffffffffffffff16815260200190815260200160002060008282546127f89190614308565b92505081905550816002600083815260200190815260200160002060006101000a81548173ffffffffffffffffffffffffffffffffffffffff021916908373ffffffffffffffffffffffffffffffffffffffff160217905550808273ffffffffffffffffffffffffffffffffffffffff168473ffffffffffffffffffffffffffffffffffffffff167fddf252ad1be2c89b69c2b068fc378daa952ba7f163c4a11628f55a4df523b3ef60405160405180910390a46128b7838383612ea1565b505050565b60006128c782611208565b90506128d581600084612e9c565b6128e0600083611e95565b6001600360008373ffffffffffffffffffffffffffffffffffffffff1673ffffffffffffffffffffffffffffffffffffffff168152602001908152602001600020600082825461293091906145fd565b925050819055506002600083815260200190815260200160002060006101000a81549073ffffffffffffffffffffffffffffffffffffffff021916905581600073ffffffffffffffffffffffffffffffffffffffff168273ffffffffffffffffffffffffffffffffffffffff167fddf252ad1be2c89b69c2b068fc378daa952ba7f163c4a11628f55a4df523b3ef60405160405180910390a46129d581600084612ea1565b5050565b600073ffffffffffffffffffffffffffffffffffffffff168273ffffffffffffffffffffffffffffffffffffffff161415612a49576040517f08c379a0000000000000000000000000000000000000000000000000000000008152600401612a4090614076565b60405180910390fd5b612a52816125e9565b15612a92576040517f08c379a0000000000000000000000000000000000000000000000000000000008152600401612a8990613f76565b60405180910390fd5b612a9e60008383612e9c565b6001600360008473ffffffffffffffffffffffffffffffffffffffff1673ffffffffffffffffffffffffffffffffffffffff1681526020019081526020016000206000828254612aee9190614308565b92505081905550816002600083815260200190815260200160002060006101000a81548173ffffffffffffffffffffffffffffffffffffffff021916908373ffffffffffffffffffffffffffffffffffffffff160217905550808273ffffffffffffffffffffffffffffffffffffffff16600073ffffffffffffffffffffffffffffffffffffffff167fddf252ad1be2c89b69c2b068fc378daa952ba7f163c4a11628f55a4df523b3ef60405160405180910390a4612baf60008383612ea1565b5050565b60606009612bf8836003811115612bf3577f4e487b7100000000000000000000000000000000000000000000000000000000600052602160045260246000fd5b612ea6565b604051602001612c09929190613d7b565b6040516020818303038152906040529050919050565b612c28826125e9565b612c67576040517f08c379a0000000000000000000000000000000000000000000000000000000008152600401612c5e90614036565b60405180910390fd5b80600660008481526020019081526020016000209080519060200190612c8e929190613244565b505050565b612c9e848484612655565b612caa8484848461308a565b612ce9576040517f08c379a0000000000000000000000000000000000000000000000000000000008152600401612ce090613f16565b60405180910390fd5b50505050565b60606000821415612d37576040518060400160405280600181526020017f30000000000000000000000000000000000000000000000000000000000000008152509050612e97565b600082905060005b60008214612d69578080612d52906147b0565b915050600a82612d629190614395565b9150612d3f565b60008167ffffffffffffffff811115612dab577f4e487b7100000000000000000000000000000000000000000000000000000000600052604160045260246000fd5b6040519080825280601f01601f191660200182016040528015612ddd5781602001600182028036833780820191505090505b5090505b60008514612e9057600182612df691906145fd565b9150600a85612e059190614823565b6030612e119190614308565b60f81b818381518110612e4d577f4e487b7100000000000000000000000000000000000000000000000000000000600052603260045260246000fd5b60200101907effffffffffffffffffffffffffffffffffffffffffffffffffffffffffffff1916908160001a905350600a85612e899190614395565b9450612de1565b8093505050505b919050565b505050565b505050565b606060008260ff161415612ef1576040518060400160405280600181526020017f30000000000000000000000000000000000000000000000000000000000000008152509050613085565b600082905060005b60008260ff1614612f26578080612f0f906147f9565b915050600a82612f1f91906143c6565b9150612ef9565b60008160ff1667ffffffffffffffff811115612f6b577f4e487b7100000000000000000000000000000000000000000000000000000000600052604160045260246000fd5b6040519080825280601f01601f191660200182016040528015612f9d5781602001600182028036833780820191505090505b50905060008260ff1690505b60008660ff161461307d57600181612fc191906145fd565b90506000600a8088612fd391906143c6565b612fdd91906145c2565b87612fe89190614631565b6030612ff4919061435e565b905060008160f81b905080848481518110613038577f4e487b7100000000000000000000000000000000000000000000000000000000600052603260045260246000fd5b60200101907effffffffffffffffffffffffffffffffffffffffffffffffffffffffffffff1916908160001a905350600a8861307491906143c6565b97505050612fa9565b819450505050505b919050565b60006130ab8473ffffffffffffffffffffffffffffffffffffffff16613221565b15613214578373ffffffffffffffffffffffffffffffffffffffff1663150b7a026130d4611e8d565b8786866040518563ffffffff1660e01b81526004016130f69493929190613e07565b602060405180830381600087803b15801561311057600080fd5b505af192505050801561314157506040513d601f19601f8201168201806040525081019061313e91906136a5565b60015b6131c4573d8060008114613171576040519150601f19603f3d011682016040523d82523d6000602084013e613176565b606091505b506000815114156131bc576040517f08c379a00000000000000000000000000000000000000000000000000000000081526004016131b390613f16565b60405180910390fd5b805181602001fd5b63150b7a0260e01b7bffffffffffffffffffffffffffffffffffffffffffffffffffffffff1916817bffffffffffffffffffffffffffffffffffffffffffffffffffffffff191614915050613219565b600190505b949350505050565b6000808273ffffffffffffffffffffffffffffffffffffffff163b119050919050565b8280546132509061474d565b90600052602060002090601f01602090048101928261327257600085556132b9565b82601f1061328b57805160ff19168380011785556132b9565b828001600101855582156132b9579182015b828111156132b857825182559160200191906001019061329d565b5b5090506132c6919061332c565b5090565b6040518060800160405280600490602082028036833780820191505090505090565b5080546132f89061474d565b6000825580601f1061330a5750613329565b601f016020900490600052602060002090810190613328919061332c565b5b50565b5b8082111561334557600081600090555060010161332d565b5090565b600061335c613357846141e8565b6141c3565b90508281526020810184848401111561337457600080fd5b61337f84828561470b565b509392505050565b600061339a61339584614219565b6141c3565b9050828152602081018484840111156133b257600080fd5b6133bd84828561470b565b509392505050565b6000813590506133d481614e4a565b92915050565b6000813590506133e981614e61565b92915050565b6000815190506133fe81614e61565b92915050565b60008135905061341381614e78565b92915050565b60008151905061342881614e78565b92915050565b600082601f83011261343f57600080fd5b813561344f848260208601613349565b91505092915050565b60008135905061346781614e8f565b92915050565b600082601f83011261347e57600080fd5b813561348e848260208601613387565b91505092915050565b6000813590506134a681614e9f565b92915050565b6000602082840312156134be57600080fd5b60006134cc848285016133c5565b91505092915050565b600080604083850312156134e857600080fd5b60006134f6858286016133c5565b9250506020613507858286016133c5565b9150509250929050565b60008060006060848603121561352657600080fd5b6000613534868287016133c5565b9350506020613545868287016133c5565b925050604061355686828701613497565b9150509250925092565b6000806000806080858703121561357657600080fd5b6000613584878288016133c5565b9450506020613595878288016133c5565b93505060406135a687828801613497565b925050606085013567ffffffffffffffff8111156135c357600080fd5b6135cf8782880161342e565b91505092959194509250565b600080604083850312156135ee57600080fd5b60006135fc858286016133c5565b925050602061360d858286016133da565b9150509250929050565b6000806040838503121561362a57600080fd5b6000613638858286016133c5565b925050602061364985828601613497565b9150509250929050565b60006020828403121561366557600080fd5b6000613673848285016133ef565b91505092915050565b60006020828403121561368e57600080fd5b600061369c84828501613404565b91505092915050565b6000602082840312156136b757600080fd5b60006136c584828501613419565b91505092915050565b6000602082840312156136e057600080fd5b60006136ee84828501613458565b91505092915050565b6000806040838503121561370a57600080fd5b600061371885828601613458565b9250506020613729858286016133c5565b9150509250929050565b6000806040838503121561374657600080fd5b600061375485828601613458565b925050602061376585828601613497565b9150509250929050565b60006020828403121561378157600080fd5b600082013567ffffffffffffffff81111561379b57600080fd5b6137a78482850161346d565b91505092915050565b6000602082840312156137c257600080fd5b60006137d084828501613497565b91505092915050565b60006137e58383613cfb565b60408301905092915050565b60006137fd8383613d2a565b60208301905092915050565b61381281614665565b82525050565b600061382382614279565b61382d81856142bf565b93506138388361424a565b8060005b8381101561386957815161385088826137d9565b975061385b836142a5565b92505060018101905061383c565b5085935050505092915050565b61387f81614284565b61388981846142d0565b92506138948261425a565b8060005b838110156138c55781516138ac87826137f1565b96506138b7836142b2565b925050600181019050613898565b505050505050565b6138d681614677565b82525050565b60006138e78261428f565b6138f181856142db565b935061390181856020860161471a565b61390a8161493f565b840191505092915050565b61391e816146f9565b82525050565b61392d816146f9565b82525050565b600061393e8261429a565b61394881856142ec565b935061395881856020860161471a565b6139618161493f565b840191505092915050565b60006139778261429a565b61398181856142fd565b935061399181856020860161471a565b80840191505092915050565b600081546139aa8161474d565b6139b481866142fd565b945060018216600081146139cf57600181146139e057613a13565b60ff19831686528186019350613a13565b6139e985614264565b60005b83811015613a0b578154818901526001820191506020810190506139ec565b838801955050505b50505092915050565b6000613a29602d836142ec565b9150613a348261495d565b604082019050919050565b6000613a4c6032836142ec565b9150613a57826149ac565b604082019050919050565b6000613a6f6026836142ec565b9150613a7a826149fb565b604082019050919050565b6000613a926025836142ec565b9150613a9d82614a4a565b604082019050919050565b6000613ab5601c836142ec565b9150613ac082614a99565b602082019050919050565b6000613ad86024836142ec565b9150613ae382614ac2565b604082019050919050565b6000613afb6019836142ec565b9150613b0682614b11565b602082019050919050565b6000613b1e600a836142ec565b9150613b2982614b3a565b602082019050919050565b6000613b416019836142ec565b9150613b4c82614b63565b602082019050919050565b6000613b646029836142ec565b9150613b6f82614b8c565b604082019050919050565b6000613b87602e836142ec565b9150613b9282614bdb565b604082019050919050565b6000613baa603e836142ec565b9150613bb582614c2a565b604082019050919050565b6000613bcd6020836142ec565b9150613bd882614c79565b602082019050919050565b6000613bf06005836142fd565b9150613bfb82614ca2565b600582019050919050565b6000613c136020836142ec565b9150613c1e82614ccb565b602082019050919050565b6000613c366018836142ec565b9150613c4182614cf4565b602082019050919050565b6000613c596021836142ec565b9150613c6482614d1d565b604082019050919050565b6000613c7c6019836142ec565b9150613c8782614d6c565b602082019050919050565b6000613c9f602e836142ec565b9150613caa82614d95565b604082019050919050565b6000613cc26013836142ec565b9150613ccd82614de4565b602082019050919050565b6000613ce56001836142fd565b9150613cf082614e0d565b600182019050919050565b604082016000820151613d116000850182613915565b506020820151613d246020850182613d2a565b50505050565b613d33816146e2565b82525050565b613d42816146e2565b82525050565b613d51816146ec565b82525050565b6000613d63828561396c565b9150613d6f828461396c565b91508190509392505050565b6000613d87828561399d565b9150613d9282613cd8565b9150613d9e828461396c565b9150613da982613be3565b91508190509392505050565b6000602082019050613dca6000830184613809565b92915050565b6000606082019050613de56000830186613809565b613df26020830185613809565b613dff6040830184613d39565b949350505050565b6000608082019050613e1c6000830187613809565b613e296020830186613809565b613e366040830185613d39565b8181036060830152613e4881846138dc565b905095945050505050565b60006020820190508181036000830152613e6d8184613818565b905092915050565b6000608082019050613e8a6000830184613876565b92915050565b6000602082019050613ea560008301846138cd565b92915050565b6000604082019050613ec06000830185613924565b613ecd6020830184613d39565b9392505050565b60006020820190508181036000830152613eee8184613933565b905092915050565b60006020820190508181036000830152613f0f81613a1c565b9050919050565b60006020820190508181036000830152613f2f81613a3f565b9050919050565b60006020820190508181036000830152613f4f81613a62565b9050919050565b60006020820190508181036000830152613f6f81613a85565b9050919050565b60006020820190508181036000830152613f8f81613aa8565b9050919050565b60006020820190508181036000830152613faf81613acb565b9050919050565b60006020820190508181036000830152613fcf81613aee565b9050919050565b60006020820190508181036000830152613fef81613b11565b9050919050565b6000602082019050818103600083015261400f81613b34565b9050919050565b6000602082019050818103600083015261402f81613b57565b9050919050565b6000602082019050818103600083015261404f81613b7a565b9050919050565b6000602082019050818103600083015261406f81613b9d565b9050919050565b6000602082019050818103600083015261408f81613bc0565b9050919050565b600060208201905081810360008301526140af81613c06565b9050919050565b600060208201905081810360008301526140cf81613c29565b9050919050565b600060208201905081810360008301526140ef81613c4c565b9050919050565b6000602082019050818103600083015261410f81613c6f565b9050919050565b6000602082019050818103600083015261412f81613c92565b9050919050565b6000602082019050818103600083015261414f81613cb5565b9050919050565b600060208201905061416b6000830184613d39565b92915050565b60006040820190506141866000830185613d39565b6141936020830184613924565b9392505050565b60006040820190506141af6000830185613d48565b6141bc6020830184613d39565b9392505050565b60006141cd6141de565b90506141d9828261477f565b919050565b6000604051905090565b600067ffffffffffffffff82111561420357614202614910565b5b61420c8261493f565b9050602081019050919050565b600067ffffffffffffffff82111561423457614233614910565b5b61423d8261493f565b9050602081019050919050565b6000819050602082019050919050565b6000819050919050565b60008190508160005260206000209050919050565b600081519050919050565b600060049050919050565b600081519050919050565b600081519050919050565b6000602082019050919050565b6000602082019050919050565b600082825260208201905092915050565b600081905092915050565b600082825260208201905092915050565b600082825260208201905092915050565b600081905092915050565b6000614313826146e2565b915061431e836146e2565b9250827fffffffffffffffffffffffffffffffffffffffffffffffffffffffffffffffff0382111561435357614352614854565b5b828201905092915050565b6000614369826146ec565b9150614374836146ec565b92508260ff0382111561438a57614389614854565b5b828201905092915050565b60006143a0826146e2565b91506143ab836146e2565b9250826143bb576143ba614883565b5b828204905092915050565b60006143d1826146ec565b91506143dc836146ec565b9250826143ec576143eb614883565b5b828204905092915050565b6000808291508390505b60018511156144415780860481111561441d5761441c614854565b5b600185161561442c5780820291505b808102905061443a85614950565b9450614401565b94509492505050565b6000614455826146e2565b9150614460836146ec565b925061448d7fffffffffffffffffffffffffffffffffffffffffffffffffffffffffffffffff8484614495565b905092915050565b6000826144a55760019050614561565b816144b35760009050614561565b81600181146144c957600281146144d357614502565b6001915050614561565b60ff8411156144e5576144e4614854565b5b8360020a9150848211156144fc576144fb614854565b5b50614561565b5060208310610133831016604e8410600b84101617156145375782820a90508381111561453257614531614854565b5b614561565b61454484848460016143f7565b9250905081840481111561455b5761455a614854565b5b81810290505b9392505050565b6000614573826146e2565b915061457e836146e2565b9250817fffffffffffffffffffffffffffffffffffffffffffffffffffffffffffffffff04831182151516156145b7576145b6614854565b5b828202905092915050565b60006145cd826146ec565b91506145d8836146ec565b92508160ff04831182151516156145f2576145f1614854565b5b828202905092915050565b6000614608826146e2565b9150614613836146e2565b92508282101561462657614625614854565b5b828203905092915050565b600061463c826146ec565b9150614647836146ec565b92508282101561465a57614659614854565b5b828203905092915050565b6000614670826146c2565b9050919050565b60008115159050919050565b60007fffffffff0000000000000000000000000000000000000000000000000000000082169050919050565b60008190506146bd82614e36565b919050565b600073ffffffffffffffffffffffffffffffffffffffff82169050919050565b6000819050919050565b600060ff82169050919050565b6000614704826146af565b9050919050565b82818337600083830152505050565b60005b8381101561473857808201518184015260208101905061471d565b83811115614747576000848401525b50505050565b6000600282049050600182168061476557607f821691505b60208210811415614779576147786148e1565b5b50919050565b6147888261493f565b810181811067ffffffffffffffff821117156147a7576147a6614910565b5b80604052505050565b60006147bb826146e2565b91507fffffffffffffffffffffffffffffffffffffffffffffffffffffffffffffffff8214156147ee576147ed614854565b5b600182019050919050565b6000614804826146ec565b915060ff82141561481857614817614854565b5b600182019050919050565b600061482e826146e2565b9150614839836146e2565b92508261484957614848614883565b5b828206905092915050565b7f4e487b7100000000000000000000000000000000000000000000000000000000600052601160045260246000fd5b7f4e487b7100000000000000000000000000000000000000000000000000000000600052601260045260246000fd5b7f4e487b7100000000000000000000000000000000000000000000000000000000600052602160045260246000fd5b7f4e487b7100000000000000000000000000000000000000000000000000000000600052602260045260246000fd5b7f4e487b7100000000000000000000000000000000000000000000000000000000600052604160045260246000fd5b6000601f19601f8301169050919050565b60008160011c9050919050565b7f4552433732313a2063616c6c6572206973206e6f7420746f6b656e206f776e6560008201527f72206f7220617070726f76656400000000000000000000000000000000000000602082015250565b7f4552433732313a207472616e7366657220746f206e6f6e20455243373231526560008201527f63656976657220696d706c656d656e7465720000000000000000000000000000602082015250565b7f4f776e61626c653a206e6577206f776e657220697320746865207a65726f206160008201527f6464726573730000000000000000000000000000000000000000000000000000602082015250565b7f4552433732313a207472616e736665722066726f6d20696e636f72726563742060008201527f6f776e6572000000000000000000000000000000000000000000000000000000602082015250565b7f4552433732313a20746f6b656e20616c7265616479206d696e74656400000000600082015250565b7f4552433732313a207472616e7366657220746f20746865207a65726f2061646460008201527f7265737300000000000000000000000000000000000000000000000000000000602082015250565b7f4552433732313a20617070726f766520746f2063616c6c657200000000000000600082015250565b7f627579206661696c656400000000000000000000000000000000000000000000600082015250565b7f506c6179657220616c7265616479206861732061207061737300000000000000600082015250565b7f4552433732313a2061646472657373207a65726f206973206e6f74206120766160008201527f6c6964206f776e65720000000000000000000000000000000000000000000000602082015250565b7f45524337323155524953746f726167653a2055524920736574206f66206e6f6e60008201527f6578697374656e7420746f6b656e000000000000000000000000000000000000602082015250565b7f4552433732313a20617070726f76652063616c6c6572206973206e6f7420746f60008201527f6b656e206f776e6572206e6f7220617070726f76656420666f7220616c6c0000602082015250565b7f4552433732313a206d696e7420746f20746865207a65726f2061646472657373600082015250565b7f2e6a736f6e000000000000000000000000000000000000000000000000000000600082015250565b7f4f776e61626c653a2063616c6c6572206973206e6f7420746865206f776e6572600082015250565b7f4552433732313a20696e76616c696420746f6b656e2049440000000000000000600082015250565b7f4552433732313a20617070726f76616c20746f2063757272656e74206f776e6560008201527f7200000000000000000000000000000000000000000000000000000000000000602082015250565b7f5573657220646f6573206e6f7420686176652061207061737300000000000000600082015250565b7f4552433732313a2063616c6c6572206973206e6f7420746f6b656e206f776e6560008201527f72206e6f7220617070726f766564000000000000000000000000000000000000602082015250565b7f5061737320646f6573206e6f7420657869737400000000000000000000000000600082015250565b7f2f00000000000000000000000000000000000000000000000000000000000000600082015250565b60048110614e4757614e466148b2565b5b50565b614e5381614665565b8114614e5e57600080fd5b50565b614e6a81614677565b8114614e7557600080fd5b50565b614e8181614683565b8114614e8c57600080fd5b50565b60048110614e9c57600080fd5b50565b614ea8816146e2565b8114614eb357600080fd5b5056fea2646970667358221220a4c7d679c7fba713e3c2ed290089acaa116a1815378072ab3ebb6e04e0bfcb8364736f6c63430008010033",
  "linkReferences": {},
  "deployedLinkReferences": {}
}