{
  "_format": "hh-sol-artifact-1",
  "contractName": "PredictorPass",
  "sourceName": "contracts/PredictorPass.sol",
  "abi": [
    {
      "inputs": [],
      "stateMutability": "nonpayable",
      "type": "constructor"
    },
    {
      "anonymous": false,
      "inputs": [
        {
          "indexed": true,
          "internalType": "address",
          "name": "owner",
          "type": "address"
        },
        {
          "indexed": true,
          "internalType": "address",
          "name": "approved",
          "type": "address"
        },
        {
          "indexed": true,
          "internalType": "uint256",
          "name": "tokenId",
          "type": "uint256"
        }
      ],
      "name": "Approval",
      "type": "event"
    },
    {
      "anonymous": false,
      "inputs": [
        {
          "indexed": true,
          "internalType": "address",
          "name": "owner",
          "type": "address"
        },
        {
          "indexed": true,
          "internalType": "address",
          "name": "operator",
          "type": "address"
        },
        {
          "indexed": false,
          "internalType": "bool",
          "name": "approved",
          "type": "bool"
        }
      ],
      "name": "ApprovalForAll",
      "type": "event"
    },
    {
      "anonymous": false,
      "inputs": [
        {
          "indexed": true,
          "internalType": "address",
          "name": "owner",
          "type": "address"
        },
        {
          "indexed": false,
          "internalType": "uint256",
          "name": "id",
          "type": "uint256"
        },
        {
          "indexed": false,
          "internalType": "enum PredictorPass.PassType",
          "name": "passType",
          "type": "uint8"
        }
      ],
      "name": "NewPass",
      "type": "event"
    },
    {
      "anonymous": false,
      "inputs": [
        {
          "indexed": true,
          "internalType": "address",
          "name": "previousOwner",
          "type": "address"
        },
        {
          "indexed": true,
          "internalType": "address",
          "name": "newOwner",
          "type": "address"
        }
      ],
      "name": "OwnershipTransferred",
      "type": "event"
    },
    {
      "anonymous": false,
      "inputs": [
        {
          "indexed": true,
          "internalType": "address",
          "name": "from",
          "type": "address"
        },
        {
          "indexed": true,
          "internalType": "address",
          "name": "to",
          "type": "address"
        },
        {
          "indexed": true,
          "internalType": "uint256",
          "name": "tokenId",
          "type": "uint256"
        }
      ],
      "name": "Transfer",
      "type": "event"
    },
    {
      "inputs": [
        {
          "internalType": "address",
          "name": "_addr",
          "type": "address"
        },
        {
          "internalType": "uint8",
          "name": "_discount",
          "type": "uint8"
        }
      ],
      "name": "addDiscount",
      "outputs": [],
      "stateMutability": "nonpayable",
      "type": "function"
    },
    {
      "inputs": [
        {
          "internalType": "address",
          "name": "to",
          "type": "address"
        },
        {
          "internalType": "uint256",
          "name": "tokenId",
          "type": "uint256"
        }
      ],
      "name": "approve",
      "outputs": [],
      "stateMutability": "nonpayable",
      "type": "function"
    },
    {
      "inputs": [
        {
          "internalType": "address",
          "name": "owner",
          "type": "address"
        }
      ],
      "name": "balanceOf",
      "outputs": [
        {
          "internalType": "uint256",
          "name": "",
          "type": "uint256"
        }
      ],
      "stateMutability": "view",
      "type": "function"
    },
    {
      "inputs": [
        {
          "internalType": "address",
          "name": "",
          "type": "address"
        }
      ],
      "name": "discounts",
      "outputs": [
        {
          "internalType": "uint8",
          "name": "",
          "type": "uint8"
        }
      ],
      "stateMutability": "view",
      "type": "function"
    },
    {
      "inputs": [
        {
          "internalType": "enum PredictorPass.PassType",
          "name": "",
          "type": "uint8"
        }
      ],
      "name": "fees",
      "outputs": [
        {
          "internalType": "uint256",
          "name": "",
          "type": "uint256"
        }
      ],
      "stateMutability": "view",
      "type": "function"
    },
    {
      "inputs": [
        {
          "internalType": "uint256",
          "name": "tokenId",
          "type": "uint256"
        }
      ],
      "name": "getApproved",
      "outputs": [
        {
          "internalType": "address",
          "name": "",
          "type": "address"
        }
      ],
      "stateMutability": "view",
      "type": "function"
    },
    {
      "inputs": [
        {
          "internalType": "address",
          "name": "_addr",
          "type": "address"
        }
      ],
      "name": "getDiscount",
      "outputs": [
        {
          "internalType": "uint8",
          "name": "",
          "type": "uint8"
        }
      ],
      "stateMutability": "view",
      "type": "function"
    },
    {
      "inputs": [
        {
          "internalType": "uint256",
          "name": "_id",
          "type": "uint256"
        }
      ],
      "name": "getPass",
      "outputs": [
        {
          "internalType": "uint8",
          "name": "",
          "type": "uint8"
        },
        {
          "internalType": "uint256",
          "name": "",
          "type": "uint256"
        }
      ],
      "stateMutability": "view",
      "type": "function"
    },
    {
      "inputs": [],
      "name": "getPasses",
      "outputs": [
        {
          "components": [
            {
              "internalType": "enum PredictorPass.PassType",
              "name": "passType",
              "type": "uint8"
            },
            {
              "internalType": "uint256",
              "name": "id",
              "type": "uint256"
            }
          ],
          "internalType": "struct PredictorPass.Pass[]",
          "name": "",
          "type": "tuple[]"
        }
      ],
      "stateMutability": "view",
      "type": "function"
    },
    {
      "inputs": [
        {
          "internalType": "address",
          "name": "_addr",
          "type": "address"
        }
      ],
      "name": "getPlayerPass",
      "outputs": [
        {
          "internalType": "uint8",
          "name": "",
          "type": "uint8"
        },
        {
          "internalType": "uint256",
          "name": "",
          "type": "uint256"
        }
      ],
      "stateMutability": "view",
      "type": "function"
    },
    {
      "inputs": [
        {
          "internalType": "address",
          "name": "_addr",
          "type": "address"
        }
      ],
      "name": "getPlayerPassId",
      "outputs": [
        {
          "internalType": "uint256",
          "name": "",
          "type": "uint256"
        }
      ],
      "stateMutability": "view",
      "type": "function"
    },
    {
      "inputs": [
        {
          "internalType": "address",
          "name": "owner",
          "type": "address"
        },
        {
          "internalType": "address",
          "name": "operator",
          "type": "address"
        }
      ],
      "name": "isApprovedForAll",
      "outputs": [
        {
          "internalType": "bool",
          "name": "",
          "type": "bool"
        }
      ],
      "stateMutability": "view",
      "type": "function"
    },
    {
      "inputs": [
        {
          "internalType": "enum PredictorPass.PassType",
          "name": "_passType",
          "type": "uint8"
        }
      ],
      "name": "mintPass",
      "outputs": [],
      "stateMutability": "payable",
      "type": "function"
    },
    {
      "inputs": [],
      "name": "name",
      "outputs": [
        {
          "internalType": "string",
          "name": "",
          "type": "string"
        }
      ],
      "stateMutability": "view",
      "type": "function"
    },
    {
      "inputs": [],
      "name": "owner",
      "outputs": [
        {
          "internalType": "address",
          "name": "",
          "type": "address"
        }
      ],
      "stateMutability": "view",
      "type": "function"
    },
    {
      "inputs": [
        {
          "internalType": "uint256",
          "name": "tokenId",
          "type": "uint256"
        }
      ],
      "name": "ownerOf",
      "outputs": [
        {
          "internalType": "address",
          "name": "",
          "type": "address"
        }
      ],
      "stateMutability": "view",
      "type": "function"
    },
    {
      "inputs": [
        {
          "internalType": "uint256",
          "name": "",
          "type": "uint256"
        }
      ],
      "name": "passes",
      "outputs": [
        {
          "internalType": "enum PredictorPass.PassType",
          "name": "passType",
          "type": "uint8"
        },
        {
          "internalType": "uint256",
          "name": "id",
          "type": "uint256"
        }
      ],
      "stateMutability": "view",
      "type": "function"
    },
    {
      "inputs": [
        {
          "internalType": "address",
          "name": "",
          "type": "address"
        }
      ],
      "name": "playerPassId",
      "outputs": [
        {
          "internalType": "uint256",
          "name": "",
          "type": "uint256"
        }
      ],
      "stateMutability": "view",
      "type": "function"
    },
    {
      "inputs": [
        {
          "internalType": "address",
          "name": "_addr",
          "type": "address"
        }
      ],
      "name": "removeDiscount",
      "outputs": [],
      "stateMutability": "nonpayable",
      "type": "function"
    },
    {
      "inputs": [],
      "name": "renounceOwnership",
      "outputs": [],
      "stateMutability": "nonpayable",
      "type": "function"
    },
    {
      "inputs": [
        {
          "internalType": "address",
          "name": "from",
          "type": "address"
        },
        {
          "internalType": "address",
          "name": "to",
          "type": "address"
        },
        {
          "internalType": "uint256",
          "name": "tokenId",
          "type": "uint256"
        }
      ],
      "name": "safeTransferFrom",
      "outputs": [],
      "stateMutability": "nonpayable",
      "type": "function"
    },
    {
      "inputs": [
        {
          "internalType": "address",
          "name": "from",
          "type": "address"
        },
        {
          "internalType": "address",
          "name": "to",
          "type": "address"
        },
        {
          "internalType": "uint256",
          "name": "tokenId",
          "type": "uint256"
        },
        {
          "internalType": "bytes",
          "name": "data",
          "type": "bytes"
        }
      ],
      "name": "safeTransferFrom",
      "outputs": [],
      "stateMutability": "nonpayable",
      "type": "function"
    },
    {
      "inputs": [
        {
          "internalType": "address",
          "name": "operator",
          "type": "address"
        },
        {
          "internalType": "bool",
          "name": "approved",
          "type": "bool"
        }
      ],
      "name": "setApprovalForAll",
      "outputs": [],
      "stateMutability": "nonpayable",
      "type": "function"
    },
    {
      "inputs": [
        {
          "internalType": "bytes4",
          "name": "interfaceId",
          "type": "bytes4"
        }
      ],
      "name": "supportsInterface",
      "outputs": [
        {
          "internalType": "bool",
          "name": "",
          "type": "bool"
        }
      ],
      "stateMutability": "view",
      "type": "function"
    },
    {
      "inputs": [],
      "name": "symbol",
      "outputs": [
        {
          "internalType": "string",
          "name": "",
          "type": "string"
        }
      ],
      "stateMutability": "view",
      "type": "function"
    },
    {
      "inputs": [
        {
          "internalType": "uint256",
          "name": "tokenId",
          "type": "uint256"
        }
      ],
      "name": "tokenURI",
      "outputs": [
        {
          "internalType": "string",
          "name": "",
          "type": "string"
        }
      ],
      "stateMutability": "view",
      "type": "function"
    },
    {
      "inputs": [
        {
          "internalType": "address",
          "name": "from",
          "type": "address"
        },
        {
          "internalType": "address",
          "name": "to",
          "type": "address"
        },
        {
          "internalType": "uint256",
          "name": "tokenId",
          "type": "uint256"
        }
      ],
      "name": "transferFrom",
      "outputs": [],
      "stateMutability": "nonpayable",
      "type": "function"
    },
    {
      "inputs": [
        {
          "internalType": "address",
          "name": "newOwner",
          "type": "address"
        }
      ],
      "name": "transferOwnership",
      "outputs": [],
      "stateMutability": "nonpayable",
      "type": "function"
    },
    {
      "inputs": [
        {
          "internalType": "enum PredictorPass.PassType",
          "name": "_passType",
          "type": "uint8"
        },
        {
          "internalType": "uint256",
          "name": "_fee",
          "type": "uint256"
        }
      ],
      "name": "updateFee",
      "outputs": [],
      "stateMutability": "nonpayable",
      "type": "function"
    },
    {
      "inputs": [],
      "name": "withdraw",
      "outputs": [],
      "stateMutability": "payable",
      "type": "function"
    }
  ],
  "bytecode": "0x60806040523480156200001157600080fd5b506040518060400160405280600e81526020017f507265646963746f7220506173730000000000000000000000000000000000008152506040518060400160405280600281526020017f5050000000000000000000000000000000000000000000000000000000000000815250816000908051906020019062000096929190620004ca565b508060019080519060200190620000af929190620004ca565b505050620000d2620000c6620003fc60201b60201c565b6200040460201b60201c565b600b6040518060400160405280600060038111156200011a577f4e487b7100000000000000000000000000000000000000000000000000000000600052602160045260246000fd5b81526020016000815250908060018154018082558091505060019003906000526020600020906002020160009091909190915060008201518160000160006101000a81548160ff021916908360038111156200019f577f4e487b7100000000000000000000000000000000000000000000000000000000600052602160045260246000fd5b0217905550602082015181600101555050662386f26fc1000060096000806003811115620001f6577f4e487b7100000000000000000000000000000000000000000000000000000000600052602160045260246000fd5b60038111156200022f577f4e487b7100000000000000000000000000000000000000000000000000000000600052602160045260246000fd5b81526020019081526020016000208190555066470de4df820000600960006001600381111562000288577f4e487b7100000000000000000000000000000000000000000000000000000000600052602160045260246000fd5b6003811115620002c1577f4e487b7100000000000000000000000000000000000000000000000000000000600052602160045260246000fd5b815260200190815260200160002081905550666a94d74f43000060096000600260038111156200031a577f4e487b7100000000000000000000000000000000000000000000000000000000600052602160045260246000fd5b600381111562000353577f4e487b7100000000000000000000000000000000000000000000000000000000600052602160045260246000fd5b81526020019081526020016000208190555066b1a2bc2ec5000060096000600380811115620003ab577f4e487b7100000000000000000000000000000000000000000000000000000000600052602160045260246000fd5b6003811115620003e4577f4e487b7100000000000000000000000000000000000000000000000000000000600052602160045260246000fd5b815260200190815260200160002081905550620005df565b600033905090565b6000600760009054906101000a900473ffffffffffffffffffffffffffffffffffffffff16905081600760006101000a81548173ffffffffffffffffffffffffffffffffffffffff021916908373ffffffffffffffffffffffffffffffffffffffff1602179055508173ffffffffffffffffffffffffffffffffffffffff168173ffffffffffffffffffffffffffffffffffffffff167f8be0079c531659141344cd1fd0a4f28419497f9722a3daafe3b4186f6b6457e060405160405180910390a35050565b828054620004d8906200057a565b90600052602060002090601f016020900481019282620004fc576000855562000548565b82601f106200051757805160ff191683800117855562000548565b8280016001018555821562000548579182015b82811115620005475782518255916020019190600101906200052a565b5b5090506200055791906200055b565b5090565b5b80821115620005765760008160009055506001016200055c565b5090565b600060028204905060018216806200059357607f821691505b60208210811415620005aa57620005a9620005b0565b5b50919050565b7f4e487b7100000000000000000000000000000000000000000000000000000000600052602260045260246000fd5b613d0480620005ef6000396000f3fe6080604052600436106101cd5760003560e01c80636e321ce4116100f757806395d89b4111610095578063e985e9c511610064578063e985e9c5146106b9578063eefb4271146106f6578063f2fde38b14610733578063fde1276a1461075c576101cd565b806395d89b41146105ff578063a22cb4651461062a578063b88d4fde14610653578063c87b56dd1461067c576101cd565b8063715018a6116100d1578063715018a614610578578063723f571c1461058f5780638b8436f9146105b85780638da5cb5b146105d4576101cd565b80636e321ce4146104d45780637052a5e51461051257806370a082311461053b576101cd565b8063357c13541161016f57806342842e0e1161013e57806342842e0e14610405578063467ccc451461042e57806355a6f86f146104595780636352211e14610497576101cd565b8063357c1354146103435780633ab3c647146103805780633ccfd60b146103be5780633e6175ae146103c8576101cd565b8063081812fc116101ab578063081812fc14610277578063095ea7b3146102b45780630fff4474146102dd57806323b872dd1461031a576101cd565b806301ffc9a7146101d257806306f2791a1461020f57806306fdde031461024c575b600080fd5b3480156101de57600080fd5b506101f960048036038101906101f49190612b3f565b610785565b60405161020691906130ad565b60405180910390f35b34801561021b57600080fd5b506102366004803603810190610231919061295c565b610867565b6040516102439190613357565b60405180910390f35b34801561025857600080fd5b506102616108bd565b60405161026e91906130f1565b60405180910390f35b34801561028357600080fd5b5061029e60048036038101906102999190612bf6565b61094f565b6040516102ab9190613024565b60405180910390f35b3480156102c057600080fd5b506102db60048036038101906102d69190612ac7565b610995565b005b3480156102e957600080fd5b5061030460048036038101906102ff919061295c565b610aad565b6040516103119190613357565b60405180910390f35b34801561032657600080fd5b50610341600480360381019061033c91906129c1565b610acd565b005b34801561034f57600080fd5b5061036a60048036038101906103659190612b91565b610b2d565b6040516103779190613313565b60405180910390f35b34801561038c57600080fd5b506103a760048036038101906103a2919061295c565b610b45565b6040516103b5929190613372565b60405180910390f35b6103c6610d2f565b005b3480156103d457600080fd5b506103ef60048036038101906103ea919061295c565b610d8d565b6040516103fc9190613313565b60405180910390f35b34801561041157600080fd5b5061042c600480360381019061042791906129c1565b610dd6565b005b34801561043a57600080fd5b50610443610df6565b604051610450919061308b565b60405180910390f35b34801561046557600080fd5b50610480600480360381019061047b9190612bf6565b610ee6565b60405161048e929190613372565b60405180910390f35b3480156104a357600080fd5b506104be60048036038101906104b99190612bf6565b610fcf565b6040516104cb9190613024565b60405180910390f35b3480156104e057600080fd5b506104fb60048036038101906104f69190612bf6565b611081565b6040516105099291906130c8565b60405180910390f35b34801561051e57600080fd5b5061053960048036038101906105349190612bba565b6110c2565b005b34801561054757600080fd5b50610562600480360381019061055d919061295c565b611156565b60405161056f9190613313565b60405180910390f35b34801561058457600080fd5b5061058d61120e565b005b34801561059b57600080fd5b506105b660048036038101906105b19190612b03565b611222565b005b6105d260048036038101906105cd9190612b91565b611297565b005b3480156105e057600080fd5b506105e961150c565b6040516105f69190613024565b60405180910390f35b34801561060b57600080fd5b50610614611536565b60405161062191906130f1565b60405180910390f35b34801561063657600080fd5b50610651600480360381019061064c9190612a8b565b6115c8565b005b34801561065f57600080fd5b5061067a60048036038101906106759190612a10565b6115de565b005b34801561068857600080fd5b506106a3600480360381019061069e9190612bf6565b611640565b6040516106b091906130f1565b60405180910390f35b3480156106c557600080fd5b506106e060048036038101906106db9190612985565b611753565b6040516106ed91906130ad565b60405180910390f35b34801561070257600080fd5b5061071d6004803603810190610718919061295c565b6117e7565b60405161072a9190613313565b60405180910390f35b34801561073f57600080fd5b5061075a6004803603810190610755919061295c565b6117ff565b005b34801561076857600080fd5b50610783600480360381019061077e919061295c565b611883565b005b60007f80ac58cd000000000000000000000000000000000000000000000000000000007bffffffffffffffffffffffffffffffffffffffffffffffffffffffff1916827bffffffffffffffffffffffffffffffffffffffffffffffffffffffff1916148061085057507f5b5e139f000000000000000000000000000000000000000000000000000000007bffffffffffffffffffffffffffffffffffffffffffffffffffffffff1916827bffffffffffffffffffffffffffffffffffffffffffffffffffffffff1916145b80610860575061085f826118e7565b5b9050919050565b6000600c60008373ffffffffffffffffffffffffffffffffffffffff1673ffffffffffffffffffffffffffffffffffffffff16815260200190815260200160002060009054906101000a900460ff169050919050565b6060600080546108cc9061369e565b80601f01602080910402602001604051908101604052809291908181526020018280546108f89061369e565b80156109455780601f1061091a57610100808354040283529160200191610945565b820191906000526020600020905b81548152906001019060200180831161092857829003601f168201915b5050505050905090565b600061095a82611951565b6004600083815260200190815260200160002060009054906101000a900473ffffffffffffffffffffffffffffffffffffffff169050919050565b60006109a082610fcf565b90508073ffffffffffffffffffffffffffffffffffffffff168373ffffffffffffffffffffffffffffffffffffffff161415610a11576040517f08c379a0000000000000000000000000000000000000000000000000000000008152600401610a08906132b3565b60405180910390fd5b8073ffffffffffffffffffffffffffffffffffffffff16610a3061199c565b73ffffffffffffffffffffffffffffffffffffffff161480610a5f5750610a5e81610a5961199c565b611753565b5b610a9e576040517f08c379a0000000000000000000000000000000000000000000000000000000008152600401610a9590613213565b60405180910390fd5b610aa883836119a4565b505050565b600c6020528060005260406000206000915054906101000a900460ff1681565b610ade610ad861199c565b82611a5d565b610b1d576040517f08c379a0000000000000000000000000000000000000000000000000000000008152600401610b14906132f3565b60405180910390fd5b610b28838383611af2565b505050565b60096020528060005260406000206000915090505481565b6000806000600a60008573ffffffffffffffffffffffffffffffffffffffff1673ffffffffffffffffffffffffffffffffffffffff168152602001908152602001600020541415610bcb576040517f08c379a0000000000000000000000000000000000000000000000000000000008152600401610bc2906132d3565b60405180910390fd5b600b600a60008573ffffffffffffffffffffffffffffffffffffffff1673ffffffffffffffffffffffffffffffffffffffff1681526020019081526020016000205481548110610c44577f4e487b7100000000000000000000000000000000000000000000000000000000600052603260045260246000fd5b906000526020600020906002020160000160009054906101000a900460ff166003811115610c9b577f4e487b7100000000000000000000000000000000000000000000000000000000600052602160045260246000fd5b600b600a60008673ffffffffffffffffffffffffffffffffffffffff1673ffffffffffffffffffffffffffffffffffffffff1681526020019081526020016000205481548110610d14577f4e487b7100000000000000000000000000000000000000000000000000000000600052603260045260246000fd5b90600052602060002090600202016001015491509150915091565b610d37611d59565b6000610d4161150c565b90508073ffffffffffffffffffffffffffffffffffffffff166108fc479081150290604051600060405180830381858888f19350505050158015610d89573d6000803e3d6000fd5b5050565b6000600a60008373ffffffffffffffffffffffffffffffffffffffff1673ffffffffffffffffffffffffffffffffffffffff168152602001908152602001600020549050919050565b610df1838383604051806020016040528060008152506115de565b505050565b6060600b805480602002602001604051908101604052809291908181526020016000905b82821015610edd57838290600052602060002090600202016040518060400160405290816000820160009054906101000a900460ff166003811115610e88577f4e487b7100000000000000000000000000000000000000000000000000000000600052602160045260246000fd5b6003811115610ec0577f4e487b7100000000000000000000000000000000000000000000000000000000600052602160045260246000fd5b815260200160018201548152505081526020019060010190610e1a565b50505050905090565b600080600b8381548110610f23577f4e487b7100000000000000000000000000000000000000000000000000000000600052603260045260246000fd5b906000526020600020906002020160000160009054906101000a900460ff166003811115610f7a577f4e487b7100000000000000000000000000000000000000000000000000000000600052602160045260246000fd5b600b8481548110610fb4577f4e487b7100000000000000000000000000000000000000000000000000000000600052603260045260246000fd5b90600052602060002090600202016001015491509150915091565b6000806002600084815260200190815260200160002060009054906101000a900473ffffffffffffffffffffffffffffffffffffffff169050600073ffffffffffffffffffffffffffffffffffffffff168173ffffffffffffffffffffffffffffffffffffffff161415611078576040517f08c379a000000000000000000000000000000000000000000000000000000000815260040161106f90613293565b60405180910390fd5b80915050919050565b600b818154811061109157600080fd5b90600052602060002090600202016000915090508060000160009054906101000a900460ff16908060010154905082565b6110ca611d59565b8060096000846003811115611108577f4e487b7100000000000000000000000000000000000000000000000000000000600052602160045260246000fd5b6003811115611140577f4e487b7100000000000000000000000000000000000000000000000000000000600052602160045260246000fd5b8152602001908152602001600020819055505050565b60008073ffffffffffffffffffffffffffffffffffffffff168273ffffffffffffffffffffffffffffffffffffffff1614156111c7576040517f08c379a00000000000000000000000000000000000000000000000000000000081526004016111be906131f3565b60405180910390fd5b600360008373ffffffffffffffffffffffffffffffffffffffff1673ffffffffffffffffffffffffffffffffffffffff168152602001908152602001600020549050919050565b611216611d59565b6112206000611dd7565b565b61122a611d59565b60648160ff16111561123b57600080fd5b80600c60008473ffffffffffffffffffffffffffffffffffffffff1673ffffffffffffffffffffffffffffffffffffffff16815260200190815260200160002060006101000a81548160ff021916908360ff1602179055505050565b600060038111156112d1577f4e487b7100000000000000000000000000000000000000000000000000000000600052602160045260246000fd5b81600381111561130a577f4e487b7100000000000000000000000000000000000000000000000000000000600052602160045260246000fd5b10158015611388575060038081111561134c577f4e487b7100000000000000000000000000000000000000000000000000000000600052602160045260246000fd5b816003811115611385577f4e487b7100000000000000000000000000000000000000000000000000000000600052602160045260246000fd5b11155b6113c7576040517f08c379a00000000000000000000000000000000000000000000000000000000081526004016113be906131d3565b60405180910390fd5b600c60003373ffffffffffffffffffffffffffffffffffffffff1673ffffffffffffffffffffffffffffffffffffffff16815260200190815260200160002060009054906101000a900460ff1660646114209190613582565b60ff1660096000836003811115611460577f4e487b7100000000000000000000000000000000000000000000000000000000600052602160045260246000fd5b6003811115611498577f4e487b7100000000000000000000000000000000000000000000000000000000600052602160045260246000fd5b8152602001908152602001600020546114b191906134f4565b3460646114be91906134f4565b10156114ff576040517f08c379a00000000000000000000000000000000000000000000000000000000081526004016114f690613273565b60405180910390fd5b61150881611e9d565b5050565b6000600760009054906101000a900473ffffffffffffffffffffffffffffffffffffffff16905090565b6060600180546115459061369e565b80601f01602080910402602001604051908101604052809291908181526020018280546115719061369e565b80156115be5780601f10611593576101008083540402835291602001916115be565b820191906000526020600020905b8154815290600101906020018083116115a157829003601f168201915b5050505050905090565b6115da6115d361199c565b838361203e565b5050565b6115ef6115e961199c565b83611a5d565b61162e576040517f08c379a0000000000000000000000000000000000000000000000000000000008152600401611625906132f3565b60405180910390fd5b61163a848484846121ab565b50505050565b606061164b82611951565b600060066000848152602001908152602001600020805461166b9061369e565b80601f01602080910402602001604051908101604052809291908181526020018280546116979061369e565b80156116e45780601f106116b9576101008083540402835291602001916116e4565b820191906000526020600020905b8154815290600101906020018083116116c757829003601f168201915b5050505050905060006116f5612207565b905060008151141561170b57819250505061174e565b600082511115611740578082604051602001611728929190613000565b6040516020818303038152906040529250505061174e565b6117498461221e565b925050505b919050565b6000600560008473ffffffffffffffffffffffffffffffffffffffff1673ffffffffffffffffffffffffffffffffffffffff16815260200190815260200160002060008373ffffffffffffffffffffffffffffffffffffffff1673ffffffffffffffffffffffffffffffffffffffff16815260200190815260200160002060009054906101000a900460ff16905092915050565b600a6020528060005260406000206000915090505481565b611807611d59565b600073ffffffffffffffffffffffffffffffffffffffff168173ffffffffffffffffffffffffffffffffffffffff161415611877576040517f08c379a000000000000000000000000000000000000000000000000000000000815260040161186e90613133565b60405180910390fd5b61188081611dd7565b50565b61188b611d59565b6000600c60008373ffffffffffffffffffffffffffffffffffffffff1673ffffffffffffffffffffffffffffffffffffffff16815260200190815260200160002060006101000a81548160ff021916908360ff16021790555050565b60007f01ffc9a7000000000000000000000000000000000000000000000000000000007bffffffffffffffffffffffffffffffffffffffffffffffffffffffff1916827bffffffffffffffffffffffffffffffffffffffffffffffffffffffff1916149050919050565b61195a81612286565b611999576040517f08c379a000000000000000000000000000000000000000000000000000000000815260040161199090613293565b60405180910390fd5b50565b600033905090565b816004600083815260200190815260200160002060006101000a81548173ffffffffffffffffffffffffffffffffffffffff021916908373ffffffffffffffffffffffffffffffffffffffff160217905550808273ffffffffffffffffffffffffffffffffffffffff16611a1783610fcf565b73ffffffffffffffffffffffffffffffffffffffff167f8c5be1e5ebec7d5bd14f71427d1e84f3dd0314c0f7b2291e5b200ac8c7c3b92560405160405180910390a45050565b600080611a6983610fcf565b90508073ffffffffffffffffffffffffffffffffffffffff168473ffffffffffffffffffffffffffffffffffffffff161480611aab5750611aaa8185611753565b5b80611ae957508373ffffffffffffffffffffffffffffffffffffffff16611ad18461094f565b73ffffffffffffffffffffffffffffffffffffffff16145b91505092915050565b8273ffffffffffffffffffffffffffffffffffffffff16611b1282610fcf565b73ffffffffffffffffffffffffffffffffffffffff1614611b68576040517f08c379a0000000000000000000000000000000000000000000000000000000008152600401611b5f90613153565b60405180910390fd5b600073ffffffffffffffffffffffffffffffffffffffff168273ffffffffffffffffffffffffffffffffffffffff161415611bd8576040517f08c379a0000000000000000000000000000000000000000000000000000000008152600401611bcf90613193565b60405180910390fd5b611be38383836122f2565b611bee6000826119a4565b6001600360008573ffffffffffffffffffffffffffffffffffffffff1673ffffffffffffffffffffffffffffffffffffffff1681526020019081526020016000206000828254611c3e919061354e565b925050819055506001600360008473ffffffffffffffffffffffffffffffffffffffff1673ffffffffffffffffffffffffffffffffffffffff1681526020019081526020016000206000828254611c95919061346d565b92505081905550816002600083815260200190815260200160002060006101000a81548173ffffffffffffffffffffffffffffffffffffffff021916908373ffffffffffffffffffffffffffffffffffffffff160217905550808273ffffffffffffffffffffffffffffffffffffffff168473ffffffffffffffffffffffffffffffffffffffff167fddf252ad1be2c89b69c2b068fc378daa952ba7f163c4a11628f55a4df523b3ef60405160405180910390a4611d548383836122f7565b505050565b611d6161199c565b73ffffffffffffffffffffffffffffffffffffffff16611d7f61150c565b73ffffffffffffffffffffffffffffffffffffffff1614611dd5576040517f08c379a0000000000000000000000000000000000000000000000000000000008152600401611dcc90613253565b60405180910390fd5b565b6000600760009054906101000a900473ffffffffffffffffffffffffffffffffffffffff16905081600760006101000a81548173ffffffffffffffffffffffffffffffffffffffff021916908373ffffffffffffffffffffffffffffffffffffffff1602179055508173ffffffffffffffffffffffffffffffffffffffff168173ffffffffffffffffffffffffffffffffffffffff167f8be0079c531659141344cd1fd0a4f28419497f9722a3daafe3b4186f6b6457e060405160405180910390a35050565b6000611ea960086122fc565b6000611eb56008612312565b905060006040518060400160405280856003811115611efd577f4e487b7100000000000000000000000000000000000000000000000000000000600052602160045260246000fd5b8152602001838152509050600b81908060018154018082558091505060019003906000526020600020906002020160009091909190915060008201518160000160006101000a81548160ff02191690836003811115611f85577f4e487b7100000000000000000000000000000000000000000000000000000000600052602160045260246000fd5b021790555060208201518160010155505081600a60003373ffffffffffffffffffffffffffffffffffffffff1673ffffffffffffffffffffffffffffffffffffffff16815260200190815260200160002081905550611fe43383612320565b3373ffffffffffffffffffffffffffffffffffffffff167fef965111aef937208463ba1298170fb472b7433625d24512e8f27bcf04a237a3838660405161202c92919061332e565b60405180910390a28192505050919050565b8173ffffffffffffffffffffffffffffffffffffffff168373ffffffffffffffffffffffffffffffffffffffff1614156120ad576040517f08c379a00000000000000000000000000000000000000000000000000000000081526004016120a4906131b3565b60405180910390fd5b80600560008573ffffffffffffffffffffffffffffffffffffffff1673ffffffffffffffffffffffffffffffffffffffff16815260200190815260200160002060008473ffffffffffffffffffffffffffffffffffffffff1673ffffffffffffffffffffffffffffffffffffffff16815260200190815260200160002060006101000a81548160ff0219169083151502179055508173ffffffffffffffffffffffffffffffffffffffff168373ffffffffffffffffffffffffffffffffffffffff167f17307eab39ab6107e8899845ad3d59bd9653f200f220920489ca2b5937696c318360405161219e91906130ad565b60405180910390a3505050565b6121b6848484611af2565b6121c2848484846124fa565b612201576040517f08c379a00000000000000000000000000000000000000000000000000000000081526004016121f890613113565b60405180910390fd5b50505050565b606060405180602001604052806000815250905090565b606061222982611951565b6000612233612207565b90506000815111612253576040518060200160405280600081525061227e565b8061225d84612691565b60405160200161226e929190613000565b6040516020818303038152906040525b915050919050565b60008073ffffffffffffffffffffffffffffffffffffffff166002600084815260200190815260200160002060009054906101000a900473ffffffffffffffffffffffffffffffffffffffff1673ffffffffffffffffffffffffffffffffffffffff1614159050919050565b505050565b505050565b6001816000016000828254019250508190555050565b600081600001549050919050565b600073ffffffffffffffffffffffffffffffffffffffff168273ffffffffffffffffffffffffffffffffffffffff161415612390576040517f08c379a000000000000000000000000000000000000000000000000000000000815260040161238790613233565b60405180910390fd5b61239981612286565b156123d9576040517f08c379a00000000000000000000000000000000000000000000000000000000081526004016123d090613173565b60405180910390fd5b6123e5600083836122f2565b6001600360008473ffffffffffffffffffffffffffffffffffffffff1673ffffffffffffffffffffffffffffffffffffffff1681526020019081526020016000206000828254612435919061346d565b92505081905550816002600083815260200190815260200160002060006101000a81548173ffffffffffffffffffffffffffffffffffffffff021916908373ffffffffffffffffffffffffffffffffffffffff160217905550808273ffffffffffffffffffffffffffffffffffffffff16600073ffffffffffffffffffffffffffffffffffffffff167fddf252ad1be2c89b69c2b068fc378daa952ba7f163c4a11628f55a4df523b3ef60405160405180910390a46124f6600083836122f7565b5050565b600061251b8473ffffffffffffffffffffffffffffffffffffffff1661283e565b15612684578373ffffffffffffffffffffffffffffffffffffffff1663150b7a0261254461199c565b8786866040518563ffffffff1660e01b8152600401612566949392919061303f565b602060405180830381600087803b15801561258057600080fd5b505af19250505080156125b157506040513d601f19601f820116820180604052508101906125ae9190612b68565b60015b612634573d80600081146125e1576040519150601f19603f3d011682016040523d82523d6000602084013e6125e6565b606091505b5060008151141561262c576040517f08c379a000000000000000000000000000000000000000000000000000000000815260040161262390613113565b60405180910390fd5b805181602001fd5b63150b7a0260e01b7bffffffffffffffffffffffffffffffffffffffffffffffffffffffff1916817bffffffffffffffffffffffffffffffffffffffffffffffffffffffff191614915050612689565b600190505b949350505050565b606060008214156126d9576040518060400160405280600181526020017f30000000000000000000000000000000000000000000000000000000000000008152509050612839565b600082905060005b6000821461270b5780806126f490613701565b915050600a8261270491906134c3565b91506126e1565b60008167ffffffffffffffff81111561274d577f4e487b7100000000000000000000000000000000000000000000000000000000600052604160045260246000fd5b6040519080825280601f01601f19166020018201604052801561277f5781602001600182028036833780820191505090505b5090505b6000851461283257600182612798919061354e565b9150600a856127a7919061374a565b60306127b3919061346d565b60f81b8183815181106127ef577f4e487b7100000000000000000000000000000000000000000000000000000000600052603260045260246000fd5b60200101907effffffffffffffffffffffffffffffffffffffffffffffffffffffffffffff1916908160001a905350600a8561282b91906134c3565b9450612783565b8093505050505b919050565b6000808273ffffffffffffffffffffffffffffffffffffffff163b119050919050565b600061287461286f846133c0565b61339b565b90508281526020810184848401111561288c57600080fd5b61289784828561365c565b509392505050565b6000813590506128ae81613c4b565b92915050565b6000813590506128c381613c62565b92915050565b6000813590506128d881613c79565b92915050565b6000815190506128ed81613c79565b92915050565b600082601f83011261290457600080fd5b8135612914848260208601612861565b91505092915050565b60008135905061292c81613c90565b92915050565b60008135905061294181613ca0565b92915050565b60008135905061295681613cb7565b92915050565b60006020828403121561296e57600080fd5b600061297c8482850161289f565b91505092915050565b6000806040838503121561299857600080fd5b60006129a68582860161289f565b92505060206129b78582860161289f565b9150509250929050565b6000806000606084860312156129d657600080fd5b60006129e48682870161289f565b93505060206129f58682870161289f565b9250506040612a0686828701612932565b9150509250925092565b60008060008060808587031215612a2657600080fd5b6000612a348782880161289f565b9450506020612a458782880161289f565b9350506040612a5687828801612932565b925050606085013567ffffffffffffffff811115612a7357600080fd5b612a7f878288016128f3565b91505092959194509250565b60008060408385031215612a9e57600080fd5b6000612aac8582860161289f565b9250506020612abd858286016128b4565b9150509250929050565b60008060408385031215612ada57600080fd5b6000612ae88582860161289f565b9250506020612af985828601612932565b9150509250929050565b60008060408385031215612b1657600080fd5b6000612b248582860161289f565b9250506020612b3585828601612947565b9150509250929050565b600060208284031215612b5157600080fd5b6000612b5f848285016128c9565b91505092915050565b600060208284031215612b7a57600080fd5b6000612b88848285016128de565b91505092915050565b600060208284031215612ba357600080fd5b6000612bb18482850161291d565b91505092915050565b60008060408385031215612bcd57600080fd5b6000612bdb8582860161291d565b9250506020612bec85828601612932565b9150509250929050565b600060208284031215612c0857600080fd5b6000612c1684828501612932565b91505092915050565b6000612c2b8383612fa4565b60408301905092915050565b612c40816135b6565b82525050565b6000612c5182613401565b612c5b818561342f565b9350612c66836133f1565b8060005b83811015612c97578151612c7e8882612c1f565b9750612c8983613422565b925050600181019050612c6a565b5085935050505092915050565b612cad816135c8565b82525050565b6000612cbe8261340c565b612cc88185613440565b9350612cd881856020860161366b565b612ce181613866565b840191505092915050565b612cf58161364a565b82525050565b612d048161364a565b82525050565b6000612d1582613417565b612d1f8185613451565b9350612d2f81856020860161366b565b612d3881613866565b840191505092915050565b6000612d4e82613417565b612d588185613462565b9350612d6881856020860161366b565b80840191505092915050565b6000612d81603283613451565b9150612d8c82613877565b604082019050919050565b6000612da4602683613451565b9150612daf826138c6565b604082019050919050565b6000612dc7602583613451565b9150612dd282613915565b604082019050919050565b6000612dea601c83613451565b9150612df582613964565b602082019050919050565b6000612e0d602483613451565b9150612e188261398d565b604082019050919050565b6000612e30601983613451565b9150612e3b826139dc565b602082019050919050565b6000612e53601183613451565b9150612e5e82613a05565b602082019050919050565b6000612e76602983613451565b9150612e8182613a2e565b604082019050919050565b6000612e99603e83613451565b9150612ea482613a7d565b604082019050919050565b6000612ebc602083613451565b9150612ec782613acc565b602082019050919050565b6000612edf602083613451565b9150612eea82613af5565b602082019050919050565b6000612f02601383613451565b9150612f0d82613b1e565b602082019050919050565b6000612f25601883613451565b9150612f3082613b47565b602082019050919050565b6000612f48602183613451565b9150612f5382613b70565b604082019050919050565b6000612f6b601983613451565b9150612f7682613bbf565b602082019050919050565b6000612f8e602e83613451565b9150612f9982613be8565b604082019050919050565b604082016000820151612fba6000850182612cec565b506020820151612fcd6020850182612fd3565b50505050565b612fdc81613633565b82525050565b612feb81613633565b82525050565b612ffa8161363d565b82525050565b600061300c8285612d43565b91506130188284612d43565b91508190509392505050565b60006020820190506130396000830184612c37565b92915050565b60006080820190506130546000830187612c37565b6130616020830186612c37565b61306e6040830185612fe2565b81810360608301526130808184612cb3565b905095945050505050565b600060208201905081810360008301526130a58184612c46565b905092915050565b60006020820190506130c26000830184612ca4565b92915050565b60006040820190506130dd6000830185612cfb565b6130ea6020830184612fe2565b9392505050565b6000602082019050818103600083015261310b8184612d0a565b905092915050565b6000602082019050818103600083015261312c81612d74565b9050919050565b6000602082019050818103600083015261314c81612d97565b9050919050565b6000602082019050818103600083015261316c81612dba565b9050919050565b6000602082019050818103600083015261318c81612ddd565b9050919050565b600060208201905081810360008301526131ac81612e00565b9050919050565b600060208201905081810360008301526131cc81612e23565b9050919050565b600060208201905081810360008301526131ec81612e46565b9050919050565b6000602082019050818103600083015261320c81612e69565b9050919050565b6000602082019050818103600083015261322c81612e8c565b9050919050565b6000602082019050818103600083015261324c81612eaf565b9050919050565b6000602082019050818103600083015261326c81612ed2565b9050919050565b6000602082019050818103600083015261328c81612ef5565b9050919050565b600060208201905081810360008301526132ac81612f18565b9050919050565b600060208201905081810360008301526132cc81612f3b565b9050919050565b600060208201905081810360008301526132ec81612f5e565b9050919050565b6000602082019050818103600083015261330c81612f81565b9050919050565b60006020820190506133286000830184612fe2565b92915050565b60006040820190506133436000830185612fe2565b6133506020830184612cfb565b9392505050565b600060208201905061336c6000830184612ff1565b92915050565b60006040820190506133876000830185612ff1565b6133946020830184612fe2565b9392505050565b60006133a56133b6565b90506133b182826136d0565b919050565b6000604051905090565b600067ffffffffffffffff8211156133db576133da613837565b5b6133e482613866565b9050602081019050919050565b6000819050602082019050919050565b600081519050919050565b600081519050919050565b600081519050919050565b6000602082019050919050565b600082825260208201905092915050565b600082825260208201905092915050565b600082825260208201905092915050565b600081905092915050565b600061347882613633565b915061348383613633565b9250827fffffffffffffffffffffffffffffffffffffffffffffffffffffffffffffffff038211156134b8576134b761377b565b5b828201905092915050565b60006134ce82613633565b91506134d983613633565b9250826134e9576134e86137aa565b5b828204905092915050565b60006134ff82613633565b915061350a83613633565b9250817fffffffffffffffffffffffffffffffffffffffffffffffffffffffffffffffff04831182151516156135435761354261377b565b5b828202905092915050565b600061355982613633565b915061356483613633565b9250828210156135775761357661377b565b5b828203905092915050565b600061358d8261363d565b91506135988361363d565b9250828210156135ab576135aa61377b565b5b828203905092915050565b60006135c182613613565b9050919050565b60008115159050919050565b60007fffffffff0000000000000000000000000000000000000000000000000000000082169050919050565b600081905061360e82613c37565b919050565b600073ffffffffffffffffffffffffffffffffffffffff82169050919050565b6000819050919050565b600060ff82169050919050565b600061365582613600565b9050919050565b82818337600083830152505050565b60005b8381101561368957808201518184015260208101905061366e565b83811115613698576000848401525b50505050565b600060028204905060018216806136b657607f821691505b602082108114156136ca576136c9613808565b5b50919050565b6136d982613866565b810181811067ffffffffffffffff821117156136f8576136f7613837565b5b80604052505050565b600061370c82613633565b91507fffffffffffffffffffffffffffffffffffffffffffffffffffffffffffffffff82141561373f5761373e61377b565b5b600182019050919050565b600061375582613633565b915061376083613633565b9250826137705761376f6137aa565b5b828206905092915050565b7f4e487b7100000000000000000000000000000000000000000000000000000000600052601160045260246000fd5b7f4e487b7100000000000000000000000000000000000000000000000000000000600052601260045260246000fd5b7f4e487b7100000000000000000000000000000000000000000000000000000000600052602160045260246000fd5b7f4e487b7100000000000000000000000000000000000000000000000000000000600052602260045260246000fd5b7f4e487b7100000000000000000000000000000000000000000000000000000000600052604160045260246000fd5b6000601f19601f8301169050919050565b7f4552433732313a207472616e7366657220746f206e6f6e20455243373231526560008201527f63656976657220696d706c656d656e7465720000000000000000000000000000602082015250565b7f4f776e61626c653a206e6577206f776e657220697320746865207a65726f206160008201527f6464726573730000000000000000000000000000000000000000000000000000602082015250565b7f4552433732313a207472616e736665722066726f6d20696e636f72726563742060008201527f6f776e6572000000000000000000000000000000000000000000000000000000602082015250565b7f4552433732313a20746f6b656e20616c7265616479206d696e74656400000000600082015250565b7f4552433732313a207472616e7366657220746f20746865207a65726f2061646460008201527f7265737300000000000000000000000000000000000000000000000000000000602082015250565b7f4552433732313a20617070726f766520746f2063616c6c657200000000000000600082015250565b7f496e76616c696420706173732074797065000000000000000000000000000000600082015250565b7f4552433732313a2061646472657373207a65726f206973206e6f74206120766160008201527f6c6964206f776e65720000000000000000000000000000000000000000000000602082015250565b7f4552433732313a20617070726f76652063616c6c6572206973206e6f7420746f60008201527f6b656e206f776e6572206e6f7220617070726f76656420666f7220616c6c0000602082015250565b7f4552433732313a206d696e7420746f20746865207a65726f2061646472657373600082015250565b7f4f776e61626c653a2063616c6c6572206973206e6f7420746865206f776e6572600082015250565b7f4e6f7420656e6f756768204554482073656e7400000000000000000000000000600082015250565b7f4552433732313a20696e76616c696420746f6b656e2049440000000000000000600082015250565b7f4552433732313a20617070726f76616c20746f2063757272656e74206f776e6560008201527f7200000000000000000000000000000000000000000000000000000000000000602082015250565b7f5573657220646f6573206e6f7420686176652061207061737300000000000000600082015250565b7f4552433732313a2063616c6c6572206973206e6f7420746f6b656e206f776e6560008201527f72206e6f7220617070726f766564000000000000000000000000000000000000602082015250565b60048110613c4857613c476137d9565b5b50565b613c54816135b6565b8114613c5f57600080fd5b50565b613c6b816135c8565b8114613c7657600080fd5b50565b613c82816135d4565b8114613c8d57600080fd5b50565b60048110613c9d57600080fd5b50565b613ca981613633565b8114613cb457600080fd5b50565b613cc08161363d565b8114613ccb57600080fd5b5056fea2646970667358221220c406098397ccf02d4a12f27ac4cc8d0e8f9ff4f4fa066a84456ba46b1f01ce0464736f6c63430008010033",
  "linkReferences": {},
  "deployedLinkReferences": {}
}