{
  "_format": "hh-sol-artifact-1",
  "contractName": "PredictorPass",
  "sourceName": "contracts/PredictorPass.sol",
  "abi": [
    {
      "inputs": [
        {
          "internalType": "string",
          "name": "_baseURI",
          "type": "string"
        }
      ],
      "stateMutability": "nonpayable",
      "type": "constructor"
    },
    {
      "anonymous": false,
      "inputs": [
        {
          "indexed": true,
          "internalType": "address",
          "name": "owner",
          "type": "address"
        },
        {
          "indexed": true,
          "internalType": "address",
          "name": "approved",
          "type": "address"
        },
        {
          "indexed": true,
          "internalType": "uint256",
          "name": "tokenId",
          "type": "uint256"
        }
      ],
      "name": "Approval",
      "type": "event"
    },
    {
      "anonymous": false,
      "inputs": [
        {
          "indexed": true,
          "internalType": "address",
          "name": "owner",
          "type": "address"
        },
        {
          "indexed": true,
          "internalType": "address",
          "name": "operator",
          "type": "address"
        },
        {
          "indexed": false,
          "internalType": "bool",
          "name": "approved",
          "type": "bool"
        }
      ],
      "name": "ApprovalForAll",
      "type": "event"
    },
    {
      "anonymous": false,
      "inputs": [
        {
          "indexed": true,
          "internalType": "address",
          "name": "owner",
          "type": "address"
        },
        {
          "indexed": false,
          "internalType": "uint256",
          "name": "id",
          "type": "uint256"
        },
        {
          "indexed": false,
          "internalType": "enum PredictorPass.PassType",
          "name": "passType",
          "type": "uint8"
        }
      ],
      "name": "NewPass",
      "type": "event"
    },
    {
      "anonymous": false,
      "inputs": [
        {
          "indexed": true,
          "internalType": "address",
          "name": "previousOwner",
          "type": "address"
        },
        {
          "indexed": true,
          "internalType": "address",
          "name": "newOwner",
          "type": "address"
        }
      ],
      "name": "OwnershipTransferred",
      "type": "event"
    },
    {
      "anonymous": false,
      "inputs": [
        {
          "indexed": true,
          "internalType": "address",
          "name": "from",
          "type": "address"
        },
        {
          "indexed": true,
          "internalType": "address",
          "name": "to",
          "type": "address"
        },
        {
          "indexed": true,
          "internalType": "uint256",
          "name": "tokenId",
          "type": "uint256"
        }
      ],
      "name": "Transfer",
      "type": "event"
    },
    {
      "inputs": [
        {
          "internalType": "address",
          "name": "to",
          "type": "address"
        },
        {
          "internalType": "uint256",
          "name": "tokenId",
          "type": "uint256"
        }
      ],
      "name": "approve",
      "outputs": [],
      "stateMutability": "nonpayable",
      "type": "function"
    },
    {
      "inputs": [
        {
          "internalType": "address",
          "name": "owner",
          "type": "address"
        }
      ],
      "name": "balanceOf",
      "outputs": [
        {
          "internalType": "uint256",
          "name": "",
          "type": "uint256"
        }
      ],
      "stateMutability": "view",
      "type": "function"
    },
    {
      "inputs": [],
      "name": "baseURI",
      "outputs": [
        {
          "internalType": "string",
          "name": "",
          "type": "string"
        }
      ],
      "stateMutability": "view",
      "type": "function"
    },
    {
      "inputs": [
        {
          "internalType": "enum PredictorPass.PassType",
          "name": "",
          "type": "uint8"
        }
      ],
      "name": "fees",
      "outputs": [
        {
          "internalType": "uint256",
          "name": "",
          "type": "uint256"
        }
      ],
      "stateMutability": "view",
      "type": "function"
    },
    {
      "inputs": [
        {
          "internalType": "uint256",
          "name": "tokenId",
          "type": "uint256"
        }
      ],
      "name": "getApproved",
      "outputs": [
        {
          "internalType": "address",
          "name": "",
          "type": "address"
        }
      ],
      "stateMutability": "view",
      "type": "function"
    },
    {
      "inputs": [],
      "name": "getFees",
      "outputs": [
        {
          "internalType": "uint256[4]",
          "name": "",
          "type": "uint256[4]"
        }
      ],
      "stateMutability": "view",
      "type": "function"
    },
    {
      "inputs": [
        {
          "internalType": "uint256",
          "name": "_id",
          "type": "uint256"
        }
      ],
      "name": "getPass",
      "outputs": [
        {
          "internalType": "uint8",
          "name": "",
          "type": "uint8"
        },
        {
          "internalType": "uint256",
          "name": "",
          "type": "uint256"
        }
      ],
      "stateMutability": "view",
      "type": "function"
    },
    {
      "inputs": [],
      "name": "getPasses",
      "outputs": [
        {
          "components": [
            {
              "internalType": "enum PredictorPass.PassType",
              "name": "passType",
              "type": "uint8"
            },
            {
              "internalType": "uint256",
              "name": "id",
              "type": "uint256"
            }
          ],
          "internalType": "struct PredictorPass.Pass[]",
          "name": "",
          "type": "tuple[]"
        }
      ],
      "stateMutability": "view",
      "type": "function"
    },
    {
      "inputs": [
        {
          "internalType": "address",
          "name": "_addr",
          "type": "address"
        }
      ],
      "name": "getPlayerPass",
      "outputs": [
        {
          "internalType": "uint8",
          "name": "",
          "type": "uint8"
        },
        {
          "internalType": "uint256",
          "name": "",
          "type": "uint256"
        }
      ],
      "stateMutability": "view",
      "type": "function"
    },
    {
      "inputs": [
        {
          "internalType": "address",
          "name": "_addr",
          "type": "address"
        }
      ],
      "name": "getPlayerPassId",
      "outputs": [
        {
          "internalType": "uint256",
          "name": "",
          "type": "uint256"
        }
      ],
      "stateMutability": "view",
      "type": "function"
    },
    {
      "inputs": [],
      "name": "getTokenIds",
      "outputs": [
        {
          "internalType": "uint256",
          "name": "",
          "type": "uint256"
        }
      ],
      "stateMutability": "view",
      "type": "function"
    },
    {
      "inputs": [
        {
          "internalType": "address",
          "name": "owner",
          "type": "address"
        },
        {
          "internalType": "address",
          "name": "operator",
          "type": "address"
        }
      ],
      "name": "isApprovedForAll",
      "outputs": [
        {
          "internalType": "bool",
          "name": "",
          "type": "bool"
        }
      ],
      "stateMutability": "view",
      "type": "function"
    },
    {
      "inputs": [
        {
          "internalType": "enum PredictorPass.PassType",
          "name": "_passType",
          "type": "uint8"
        }
      ],
      "name": "mintPass",
      "outputs": [],
      "stateMutability": "payable",
      "type": "function"
    },
    {
      "inputs": [],
      "name": "name",
      "outputs": [
        {
          "internalType": "string",
          "name": "",
          "type": "string"
        }
      ],
      "stateMutability": "view",
      "type": "function"
    },
    {
      "inputs": [],
      "name": "owner",
      "outputs": [
        {
          "internalType": "address",
          "name": "",
          "type": "address"
        }
      ],
      "stateMutability": "view",
      "type": "function"
    },
    {
      "inputs": [
        {
          "internalType": "enum PredictorPass.PassType",
          "name": "_passType",
          "type": "uint8"
        },
        {
          "internalType": "address",
          "name": "_addr",
          "type": "address"
        }
      ],
      "name": "ownerMint",
      "outputs": [
        {
          "internalType": "uint256",
          "name": "",
          "type": "uint256"
        }
      ],
      "stateMutability": "nonpayable",
      "type": "function"
    },
    {
      "inputs": [
        {
          "internalType": "uint256",
          "name": "tokenId",
          "type": "uint256"
        }
      ],
      "name": "ownerOf",
      "outputs": [
        {
          "internalType": "address",
          "name": "",
          "type": "address"
        }
      ],
      "stateMutability": "view",
      "type": "function"
    },
    {
      "inputs": [
        {
          "internalType": "uint256",
          "name": "",
          "type": "uint256"
        }
      ],
      "name": "passes",
      "outputs": [
        {
          "internalType": "enum PredictorPass.PassType",
          "name": "passType",
          "type": "uint8"
        },
        {
          "internalType": "uint256",
          "name": "id",
          "type": "uint256"
        }
      ],
      "stateMutability": "view",
      "type": "function"
    },
    {
      "inputs": [
        {
          "internalType": "address",
          "name": "",
          "type": "address"
        }
      ],
      "name": "playerPassId",
      "outputs": [
        {
          "internalType": "uint256",
          "name": "",
          "type": "uint256"
        }
      ],
      "stateMutability": "view",
      "type": "function"
    },
    {
      "inputs": [],
      "name": "renounceOwnership",
      "outputs": [],
      "stateMutability": "nonpayable",
      "type": "function"
    },
    {
      "inputs": [
        {
          "internalType": "address",
          "name": "from",
          "type": "address"
        },
        {
          "internalType": "address",
          "name": "to",
          "type": "address"
        },
        {
          "internalType": "uint256",
          "name": "tokenId",
          "type": "uint256"
        }
      ],
      "name": "safeTransferFrom",
      "outputs": [],
      "stateMutability": "nonpayable",
      "type": "function"
    },
    {
      "inputs": [
        {
          "internalType": "address",
          "name": "from",
          "type": "address"
        },
        {
          "internalType": "address",
          "name": "to",
          "type": "address"
        },
        {
          "internalType": "uint256",
          "name": "tokenId",
          "type": "uint256"
        },
        {
          "internalType": "bytes",
          "name": "data",
          "type": "bytes"
        }
      ],
      "name": "safeTransferFrom",
      "outputs": [],
      "stateMutability": "nonpayable",
      "type": "function"
    },
    {
      "inputs": [
        {
          "internalType": "address",
          "name": "operator",
          "type": "address"
        },
        {
          "internalType": "bool",
          "name": "approved",
          "type": "bool"
        }
      ],
      "name": "setApprovalForAll",
      "outputs": [],
      "stateMutability": "nonpayable",
      "type": "function"
    },
    {
      "inputs": [
        {
          "internalType": "string",
          "name": "_baseURI",
          "type": "string"
        }
      ],
      "name": "setBaseURI",
      "outputs": [],
      "stateMutability": "nonpayable",
      "type": "function"
    },
    {
      "inputs": [
        {
          "internalType": "bytes4",
          "name": "interfaceId",
          "type": "bytes4"
        }
      ],
      "name": "supportsInterface",
      "outputs": [
        {
          "internalType": "bool",
          "name": "",
          "type": "bool"
        }
      ],
      "stateMutability": "view",
      "type": "function"
    },
    {
      "inputs": [],
      "name": "symbol",
      "outputs": [
        {
          "internalType": "string",
          "name": "",
          "type": "string"
        }
      ],
      "stateMutability": "view",
      "type": "function"
    },
    {
      "inputs": [
        {
          "internalType": "uint256",
          "name": "tokenId",
          "type": "uint256"
        }
      ],
      "name": "tokenURI",
      "outputs": [
        {
          "internalType": "string",
          "name": "",
          "type": "string"
        }
      ],
      "stateMutability": "view",
      "type": "function"
    },
    {
      "inputs": [
        {
          "internalType": "enum PredictorPass.PassType",
          "name": "_passType",
          "type": "uint8"
        }
      ],
      "name": "tokenURI",
      "outputs": [
        {
          "internalType": "string",
          "name": "",
          "type": "string"
        }
      ],
      "stateMutability": "view",
      "type": "function"
    },
    {
      "inputs": [
        {
          "internalType": "address",
          "name": "from",
          "type": "address"
        },
        {
          "internalType": "address",
          "name": "to",
          "type": "address"
        },
        {
          "internalType": "uint256",
          "name": "tokenId",
          "type": "uint256"
        }
      ],
      "name": "transferFrom",
      "outputs": [],
      "stateMutability": "nonpayable",
      "type": "function"
    },
    {
      "inputs": [
        {
          "internalType": "address",
          "name": "newOwner",
          "type": "address"
        }
      ],
      "name": "transferOwnership",
      "outputs": [],
      "stateMutability": "nonpayable",
      "type": "function"
    },
    {
      "inputs": [
        {
          "internalType": "enum PredictorPass.PassType",
          "name": "_passType",
          "type": "uint8"
        },
        {
          "internalType": "uint256",
          "name": "_fee",
          "type": "uint256"
        }
      ],
      "name": "updateFee",
      "outputs": [],
      "stateMutability": "nonpayable",
      "type": "function"
    },
    {
      "inputs": [],
      "name": "withdraw",
      "outputs": [],
      "stateMutability": "payable",
      "type": "function"
    }
  ],
  "bytecode": "0x60806040523480156200001157600080fd5b5060405162004ec438038062004ec483398181016040528101906200003791906200062b565b6040518060400160405280600e81526020017f507265646963746f7220506173730000000000000000000000000000000000008152506040518060400160405280600281526020017f50500000000000000000000000000000000000000000000000000000000000008152508160009080519060200190620000bb92919062000509565b508060019080519060200190620000d492919062000509565b505050620000f7620000eb6200043b60201b60201c565b6200044360201b60201c565b80600990805190602001906200010f92919062000509565b50600c60405180604001604052806000600381111562000158577f4e487b7100000000000000000000000000000000000000000000000000000000600052602160045260246000fd5b81526020016000815250908060018154018082558091505060019003906000526020600020906002020160009091909190915060008201518160000160006101000a81548160ff02191690836003811115620001dd577f4e487b7100000000000000000000000000000000000000000000000000000000600052602160045260246000fd5b0217905550602082015181600101555050662386f26fc10000600a600080600381111562000234577f4e487b7100000000000000000000000000000000000000000000000000000000600052602160045260246000fd5b60038111156200026d577f4e487b7100000000000000000000000000000000000000000000000000000000600052602160045260246000fd5b81526020019081526020016000208190555066470de4df820000600a600060016003811115620002c6577f4e487b7100000000000000000000000000000000000000000000000000000000600052602160045260246000fd5b6003811115620002ff577f4e487b7100000000000000000000000000000000000000000000000000000000600052602160045260246000fd5b815260200190815260200160002081905550666a94d74f430000600a60006002600381111562000358577f4e487b7100000000000000000000000000000000000000000000000000000000600052602160045260246000fd5b600381111562000391577f4e487b7100000000000000000000000000000000000000000000000000000000600052602160045260246000fd5b81526020019081526020016000208190555066b1a2bc2ec50000600a6000600380811115620003e9577f4e487b7100000000000000000000000000000000000000000000000000000000600052602160045260246000fd5b600381111562000422577f4e487b7100000000000000000000000000000000000000000000000000000000600052602160045260246000fd5b81526020019081526020016000208190555050620007e0565b600033905090565b6000600760009054906101000a900473ffffffffffffffffffffffffffffffffffffffff16905081600760006101000a81548173ffffffffffffffffffffffffffffffffffffffff021916908373ffffffffffffffffffffffffffffffffffffffff1602179055508173ffffffffffffffffffffffffffffffffffffffff168173ffffffffffffffffffffffffffffffffffffffff167f8be0079c531659141344cd1fd0a4f28419497f9722a3daafe3b4186f6b6457e060405160405180910390a35050565b828054620005179062000705565b90600052602060002090601f0160209004810192826200053b576000855562000587565b82601f106200055657805160ff191683800117855562000587565b8280016001018555821562000587579182015b828111156200058657825182559160200191906001019062000569565b5b5090506200059691906200059a565b5090565b5b80821115620005b55760008160009055506001016200059b565b5090565b6000620005d0620005ca8462000699565b62000670565b905082815260208101848484011115620005e957600080fd5b620005f6848285620006cf565b509392505050565b600082601f8301126200061057600080fd5b815162000622848260208601620005b9565b91505092915050565b6000602082840312156200063e57600080fd5b600082015167ffffffffffffffff8111156200065957600080fd5b6200066784828501620005fe565b91505092915050565b60006200067c6200068f565b90506200068a82826200073b565b919050565b6000604051905090565b600067ffffffffffffffff821115620006b757620006b6620007a0565b5b620006c282620007cf565b9050602081019050919050565b60005b83811015620006ef578082015181840152602081019050620006d2565b83811115620006ff576000848401525b50505050565b600060028204905060018216806200071e57607f821691505b6020821081141562000735576200073462000771565b5b50919050565b6200074682620007cf565b810181811067ffffffffffffffff82111715620007685762000767620007a0565b5b80604052505050565b7f4e487b7100000000000000000000000000000000000000000000000000000000600052602260045260246000fd5b7f4e487b7100000000000000000000000000000000000000000000000000000000600052604160045260246000fd5b6000601f19601f8301169050919050565b6146d480620007f06000396000f3fe6080604052600436106101e35760003560e01c80636e321ce411610102578063a22cb46511610095578063e985e9c511610064578063e985e9c514610713578063eefb427114610750578063f2fde38b1461078d578063f8c213fa146107b6576101e3565b8063a22cb46514610659578063b88d4fde14610682578063c87b56dd146106ab578063db8d55f1146106e8576101e3565b80637b99fab5116100d15780637b99fab5146105aa5780638b8436f9146105e75780638da5cb5b1461060357806395d89b411461062e576101e3565b80636e321ce4146104ef5780637052a5e51461052d57806370a0823114610556578063715018a614610593576101e3565b80633e6175ae1161017a57806355f804b31161014957806355f804b3146104335780636352211e1461045c57806367f718a9146104995780636c0360eb146104c4576101e3565b80633e6175ae1461036457806342842e0e146103a1578063467ccc45146103ca57806355a6f86f146103f5576101e3565b806323b872dd116101b657806323b872dd146102b6578063357c1354146102df5780633ab3c6471461031c5780633ccfd60b1461035a576101e3565b806301ffc9a7146101e857806306fdde0314610225578063081812fc14610250578063095ea7b31461028d575b600080fd5b3480156101f457600080fd5b5061020f600480360381019061020a91906131dd565b6107f3565b60405161021c9190613951565b60405180910390f35b34801561023157600080fd5b5061023a6108d5565b6040516102479190613995565b60405180910390f35b34801561025c57600080fd5b5061027760048036038101906102729190613311565b610967565b60405161028491906138ad565b60405180910390f35b34801561029957600080fd5b506102b460048036038101906102af91906131a1565b6109ad565b005b3480156102c257600080fd5b506102dd60048036038101906102d8919061309b565b610ac5565b005b3480156102eb57600080fd5b506103066004803603810190610301919061322f565b610b25565b6040516103139190613bb7565b60405180910390f35b34801561032857600080fd5b50610343600480360381019061033e9190613036565b610b3d565b604051610351929190613bfb565b60405180910390f35b610362610ca4565b005b34801561037057600080fd5b5061038b60048036038101906103869190613036565b610d02565b6040516103989190613bb7565b60405180910390f35b3480156103ad57600080fd5b506103c860048036038101906103c3919061309b565b610d4b565b005b3480156103d657600080fd5b506103df610d6b565b6040516103ec9190613914565b60405180910390f35b34801561040157600080fd5b5061041c60048036038101906104179190613311565b610e5b565b60405161042a929190613bfb565b60405180910390f35b34801561043f57600080fd5b5061045a600480360381019061045591906132d0565b610f44565b005b34801561046857600080fd5b50610483600480360381019061047e9190613311565b610f66565b60405161049091906138ad565b60405180910390f35b3480156104a557600080fd5b506104ae611018565b6040516104bb9190613bb7565b60405180910390f35b3480156104d057600080fd5b506104d9611031565b6040516104e69190613995565b60405180910390f35b3480156104fb57600080fd5b5061051660048036038101906105119190613311565b6110bf565b60405161052492919061396c565b60405180910390f35b34801561053957600080fd5b50610554600480360381019061054f9190613294565b611100565b005b34801561056257600080fd5b5061057d60048036038101906105789190613036565b611194565b60405161058a9190613bb7565b60405180910390f35b34801561059f57600080fd5b506105a861124c565b005b3480156105b657600080fd5b506105d160048036038101906105cc9190613258565b611260565b6040516105de9190613bb7565b60405180910390f35b61060160048036038101906105fc919061322f565b6113ac565b005b34801561060f57600080fd5b506106186115b0565b60405161062591906138ad565b60405180910390f35b34801561063a57600080fd5b506106436115da565b6040516106509190613995565b60405180910390f35b34801561066557600080fd5b50610680600480360381019061067b9190613165565b61166c565b005b34801561068e57600080fd5b506106a960048036038101906106a491906130ea565b611682565b005b3480156106b757600080fd5b506106d260048036038101906106cd9190613311565b6116e4565b6040516106df9190613995565b60405180910390f35b3480156106f457600080fd5b506106fd6117f7565b60405161070a9190613936565b60405180910390f35b34801561071f57600080fd5b5061073a6004803603810190610735919061305f565b611a33565b6040516107479190613951565b60405180910390f35b34801561075c57600080fd5b5061077760048036038101906107729190613036565b611ac7565b6040516107849190613bb7565b60405180910390f35b34801561079957600080fd5b506107b460048036038101906107af9190613036565b611adf565b005b3480156107c257600080fd5b506107dd60048036038101906107d8919061322f565b611b63565b6040516107ea9190613995565b60405180910390f35b60007f80ac58cd000000000000000000000000000000000000000000000000000000007bffffffffffffffffffffffffffffffffffffffffffffffffffffffff1916827bffffffffffffffffffffffffffffffffffffffffffffffffffffffff191614806108be57507f5b5e139f000000000000000000000000000000000000000000000000000000007bffffffffffffffffffffffffffffffffffffffffffffffffffffffff1916827bffffffffffffffffffffffffffffffffffffffffffffffffffffffff1916145b806108ce57506108cd82611bcf565b5b9050919050565b6060600080546108e490613fe3565b80601f016020809104026020016040519081016040528092919081815260200182805461091090613fe3565b801561095d5780601f106109325761010080835404028352916020019161095d565b820191906000526020600020905b81548152906001019060200180831161094057829003601f168201915b5050505050905090565b600061097282611c39565b6004600083815260200190815260200160002060009054906101000a900473ffffffffffffffffffffffffffffffffffffffff169050919050565b60006109b882610f66565b90508073ffffffffffffffffffffffffffffffffffffffff168373ffffffffffffffffffffffffffffffffffffffff161415610a29576040517f08c379a0000000000000000000000000000000000000000000000000000000008152600401610a2090613b77565b60405180910390fd5b8073ffffffffffffffffffffffffffffffffffffffff16610a48611c84565b73ffffffffffffffffffffffffffffffffffffffff161480610a775750610a7681610a71611c84565b611a33565b5b610ab6576040517f08c379a0000000000000000000000000000000000000000000000000000000008152600401610aad90613ad7565b60405180910390fd5b610ac08383611c8c565b505050565b610ad6610ad0611c84565b82611d45565b610b15576040517f08c379a0000000000000000000000000000000000000000000000000000000008152600401610b0c90613b97565b60405180910390fd5b610b20838383611dda565b505050565b600a6020528060005260406000206000915090505481565b600080600c600b60008573ffffffffffffffffffffffffffffffffffffffff1673ffffffffffffffffffffffffffffffffffffffff1681526020019081526020016000205481548110610bb9577f4e487b7100000000000000000000000000000000000000000000000000000000600052603260045260246000fd5b906000526020600020906002020160000160009054906101000a900460ff166003811115610c10577f4e487b7100000000000000000000000000000000000000000000000000000000600052602160045260246000fd5b600c600b60008673ffffffffffffffffffffffffffffffffffffffff1673ffffffffffffffffffffffffffffffffffffffff1681526020019081526020016000205481548110610c89577f4e487b7100000000000000000000000000000000000000000000000000000000600052603260045260246000fd5b90600052602060002090600202016001015491509150915091565b610cac612041565b6000610cb66115b0565b90508073ffffffffffffffffffffffffffffffffffffffff166108fc479081150290604051600060405180830381858888f19350505050158015610cfe573d6000803e3d6000fd5b5050565b6000600b60008373ffffffffffffffffffffffffffffffffffffffff1673ffffffffffffffffffffffffffffffffffffffff168152602001908152602001600020549050919050565b610d6683838360405180602001604052806000815250611682565b505050565b6060600c805480602002602001604051908101604052809291908181526020016000905b82821015610e5257838290600052602060002090600202016040518060400160405290816000820160009054906101000a900460ff166003811115610dfd577f4e487b7100000000000000000000000000000000000000000000000000000000600052602160045260246000fd5b6003811115610e35577f4e487b7100000000000000000000000000000000000000000000000000000000600052602160045260246000fd5b815260200160018201548152505081526020019060010190610d8f565b50505050905090565b600080600c8381548110610e98577f4e487b7100000000000000000000000000000000000000000000000000000000600052603260045260246000fd5b906000526020600020906002020160000160009054906101000a900460ff166003811115610eef577f4e487b7100000000000000000000000000000000000000000000000000000000600052602160045260246000fd5b600c8481548110610f29577f4e487b7100000000000000000000000000000000000000000000000000000000600052603260045260246000fd5b90600052602060002090600202016001015491509150915091565b610f4c612041565b8060099080519060200190610f62929190612e23565b5050565b6000806002600084815260200190815260200160002060009054906101000a900473ffffffffffffffffffffffffffffffffffffffff169050600073ffffffffffffffffffffffffffffffffffffffff168173ffffffffffffffffffffffffffffffffffffffff16141561100f576040517f08c379a000000000000000000000000000000000000000000000000000000000815260040161100690613b57565b60405180910390fd5b80915050919050565b6000611022612041565b61102c60086120bf565b905090565b6009805461103e90613fe3565b80601f016020809104026020016040519081016040528092919081815260200182805461106a90613fe3565b80156110b75780601f1061108c576101008083540402835291602001916110b7565b820191906000526020600020905b81548152906001019060200180831161109a57829003601f168201915b505050505081565b600c81815481106110cf57600080fd5b90600052602060002090600202016000915090508060000160009054906101000a900460ff16908060010154905082565b611108612041565b80600a6000846003811115611146577f4e487b7100000000000000000000000000000000000000000000000000000000600052602160045260246000fd5b600381111561117e577f4e487b7100000000000000000000000000000000000000000000000000000000600052602160045260246000fd5b8152602001908152602001600020819055505050565b60008073ffffffffffffffffffffffffffffffffffffffff168273ffffffffffffffffffffffffffffffffffffffff161415611205576040517f08c379a00000000000000000000000000000000000000000000000000000000081526004016111fc90613a97565b60405180910390fd5b600360008373ffffffffffffffffffffffffffffffffffffffff1673ffffffffffffffffffffffffffffffffffffffff168152602001908152602001600020549050919050565b611254612041565b61125e60006120cd565b565b600061126a612041565b600060038111156112a4577f4e487b7100000000000000000000000000000000000000000000000000000000600052602160045260246000fd5b8360038111156112dd577f4e487b7100000000000000000000000000000000000000000000000000000000600052602160045260246000fd5b1015801561135b575060038081111561131f577f4e487b7100000000000000000000000000000000000000000000000000000000600052602160045260246000fd5b836003811115611358577f4e487b7100000000000000000000000000000000000000000000000000000000600052602160045260246000fd5b11155b61139a576040517f08c379a000000000000000000000000000000000000000000000000000000000815260040161139190613a77565b60405180910390fd5b6113a48383612193565b905092915050565b600060038111156113e6577f4e487b7100000000000000000000000000000000000000000000000000000000600052602160045260246000fd5b81600381111561141f577f4e487b7100000000000000000000000000000000000000000000000000000000600052602160045260246000fd5b1015801561149d5750600380811115611461577f4e487b7100000000000000000000000000000000000000000000000000000000600052602160045260246000fd5b81600381111561149a577f4e487b7100000000000000000000000000000000000000000000000000000000600052602160045260246000fd5b11155b6114dc576040517f08c379a00000000000000000000000000000000000000000000000000000000081526004016114d390613a77565b60405180910390fd5b600a6000826003811115611519577f4e487b7100000000000000000000000000000000000000000000000000000000600052602160045260246000fd5b6003811115611551577f4e487b7100000000000000000000000000000000000000000000000000000000600052602160045260246000fd5b8152602001908152602001600020543410156115a2576040517f08c379a000000000000000000000000000000000000000000000000000000000815260040161159990613b37565b60405180910390fd5b6115ac8133612193565b5050565b6000600760009054906101000a900473ffffffffffffffffffffffffffffffffffffffff16905090565b6060600180546115e990613fe3565b80601f016020809104026020016040519081016040528092919081815260200182805461161590613fe3565b80156116625780601f1061163757610100808354040283529160200191611662565b820191906000526020600020905b81548152906001019060200180831161164557829003601f168201915b5050505050905090565b61167e611677611c84565b83836123b6565b5050565b61169361168d611c84565b83611d45565b6116d2576040517f08c379a00000000000000000000000000000000000000000000000000000000081526004016116c990613b97565b60405180910390fd5b6116de84848484612523565b50505050565b60606116ef82611c39565b600060066000848152602001908152602001600020805461170f90613fe3565b80601f016020809104026020016040519081016040528092919081815260200182805461173b90613fe3565b80156117885780601f1061175d57610100808354040283529160200191611788565b820191906000526020600020905b81548152906001019060200180831161176b57829003601f168201915b50505050509050600061179961257f565b90506000815114156117af5781925050506117f2565b6000825111156117e45780826040516020016117cc92919061384f565b604051602081830303815290604052925050506117f2565b6117ed84612596565b925050505b919050565b6117ff612ea9565b6040518060800160405280600a6000806003811115611847577f4e487b7100000000000000000000000000000000000000000000000000000000600052602160045260246000fd5b600381111561187f577f4e487b7100000000000000000000000000000000000000000000000000000000600052602160045260246000fd5b8152602001908152602001600020548152602001600a6000600160038111156118d1577f4e487b7100000000000000000000000000000000000000000000000000000000600052602160045260246000fd5b6003811115611909577f4e487b7100000000000000000000000000000000000000000000000000000000600052602160045260246000fd5b8152602001908152602001600020548152602001600a60006002600381111561195b577f4e487b7100000000000000000000000000000000000000000000000000000000600052602160045260246000fd5b6003811115611993577f4e487b7100000000000000000000000000000000000000000000000000000000600052602160045260246000fd5b8152602001908152602001600020548152602001600a60006003808111156119e4577f4e487b7100000000000000000000000000000000000000000000000000000000600052602160045260246000fd5b6003811115611a1c577f4e487b7100000000000000000000000000000000000000000000000000000000600052602160045260246000fd5b815260200190815260200160002054815250905090565b6000600560008473ffffffffffffffffffffffffffffffffffffffff1673ffffffffffffffffffffffffffffffffffffffff16815260200190815260200160002060008373ffffffffffffffffffffffffffffffffffffffff1673ffffffffffffffffffffffffffffffffffffffff16815260200190815260200160002060009054906101000a900460ff16905092915050565b600b6020528060005260406000206000915090505481565b611ae7612041565b600073ffffffffffffffffffffffffffffffffffffffff168173ffffffffffffffffffffffffffffffffffffffff161415611b57576040517f08c379a0000000000000000000000000000000000000000000000000000000008152600401611b4e906139d7565b60405180910390fd5b611b60816120cd565b50565b60606009611ba8836003811115611ba3577f4e487b7100000000000000000000000000000000000000000000000000000000600052602160045260246000fd5b6125fe565b604051602001611bb9929190613873565b6040516020818303038152906040529050919050565b60007f01ffc9a7000000000000000000000000000000000000000000000000000000007bffffffffffffffffffffffffffffffffffffffffffffffffffffffff1916827bffffffffffffffffffffffffffffffffffffffffffffffffffffffff1916149050919050565b611c42816127e2565b611c81576040517f08c379a0000000000000000000000000000000000000000000000000000000008152600401611c7890613b57565b60405180910390fd5b50565b600033905090565b816004600083815260200190815260200160002060006101000a81548173ffffffffffffffffffffffffffffffffffffffff021916908373ffffffffffffffffffffffffffffffffffffffff160217905550808273ffffffffffffffffffffffffffffffffffffffff16611cff83610f66565b73ffffffffffffffffffffffffffffffffffffffff167f8c5be1e5ebec7d5bd14f71427d1e84f3dd0314c0f7b2291e5b200ac8c7c3b92560405160405180910390a45050565b600080611d5183610f66565b90508073ffffffffffffffffffffffffffffffffffffffff168473ffffffffffffffffffffffffffffffffffffffff161480611d935750611d928185611a33565b5b80611dd157508373ffffffffffffffffffffffffffffffffffffffff16611db984610967565b73ffffffffffffffffffffffffffffffffffffffff16145b91505092915050565b8273ffffffffffffffffffffffffffffffffffffffff16611dfa82610f66565b73ffffffffffffffffffffffffffffffffffffffff1614611e50576040517f08c379a0000000000000000000000000000000000000000000000000000000008152600401611e47906139f7565b60405180910390fd5b600073ffffffffffffffffffffffffffffffffffffffff168273ffffffffffffffffffffffffffffffffffffffff161415611ec0576040517f08c379a0000000000000000000000000000000000000000000000000000000008152600401611eb790613a37565b60405180910390fd5b611ecb83838361284e565b611ed6600082611c8c565b6001600360008573ffffffffffffffffffffffffffffffffffffffff1673ffffffffffffffffffffffffffffffffffffffff1681526020019081526020016000206000828254611f269190613e93565b925050819055506001600360008473ffffffffffffffffffffffffffffffffffffffff1673ffffffffffffffffffffffffffffffffffffffff1681526020019081526020016000206000828254611f7d9190613d69565b92505081905550816002600083815260200190815260200160002060006101000a81548173ffffffffffffffffffffffffffffffffffffffff021916908373ffffffffffffffffffffffffffffffffffffffff160217905550808273ffffffffffffffffffffffffffffffffffffffff168473ffffffffffffffffffffffffffffffffffffffff167fddf252ad1be2c89b69c2b068fc378daa952ba7f163c4a11628f55a4df523b3ef60405160405180910390a461203c838383612853565b505050565b612049611c84565b73ffffffffffffffffffffffffffffffffffffffff166120676115b0565b73ffffffffffffffffffffffffffffffffffffffff16146120bd576040517f08c379a00000000000000000000000000000000000000000000000000000000081526004016120b490613b17565b60405180910390fd5b565b600081600001549050919050565b6000600760009054906101000a900473ffffffffffffffffffffffffffffffffffffffff16905081600760006101000a81548173ffffffffffffffffffffffffffffffffffffffff021916908373ffffffffffffffffffffffffffffffffffffffff1602179055508173ffffffffffffffffffffffffffffffffffffffff168173ffffffffffffffffffffffffffffffffffffffff167f8be0079c531659141344cd1fd0a4f28419497f9722a3daafe3b4186f6b6457e060405160405180910390a35050565b60008073ffffffffffffffffffffffffffffffffffffffff168273ffffffffffffffffffffffffffffffffffffffff161415612204576040517f08c379a00000000000000000000000000000000000000000000000000000000081526004016121fb90613af7565b60405180910390fd5b61220e6008612858565b600061221a60086120bf565b905060006040518060400160405280866003811115612262577f4e487b7100000000000000000000000000000000000000000000000000000000600052602160045260246000fd5b8152602001838152509050612277848361286e565b600c81908060018154018082558091505060019003906000526020600020906002020160009091909190915060008201518160000160006101000a81548160ff021916908360038111156122f4577f4e487b7100000000000000000000000000000000000000000000000000000000600052602160045260246000fd5b021790555060208201518160010155505081600b60008673ffffffffffffffffffffffffffffffffffffffff1673ffffffffffffffffffffffffffffffffffffffff1681526020019081526020016000208190555061235b8261235687611b63565b612a48565b8373ffffffffffffffffffffffffffffffffffffffff167fef965111aef937208463ba1298170fb472b7433625d24512e8f27bcf04a237a383876040516123a3929190613bd2565b60405180910390a2819250505092915050565b8173ffffffffffffffffffffffffffffffffffffffff168373ffffffffffffffffffffffffffffffffffffffff161415612425576040517f08c379a000000000000000000000000000000000000000000000000000000000815260040161241c90613a57565b60405180910390fd5b80600560008573ffffffffffffffffffffffffffffffffffffffff1673ffffffffffffffffffffffffffffffffffffffff16815260200190815260200160002060008473ffffffffffffffffffffffffffffffffffffffff1673ffffffffffffffffffffffffffffffffffffffff16815260200190815260200160002060006101000a81548160ff0219169083151502179055508173ffffffffffffffffffffffffffffffffffffffff168373ffffffffffffffffffffffffffffffffffffffff167f17307eab39ab6107e8899845ad3d59bd9653f200f220920489ca2b5937696c31836040516125169190613951565b60405180910390a3505050565b61252e848484611dda565b61253a84848484612abc565b612579576040517f08c379a0000000000000000000000000000000000000000000000000000000008152600401612570906139b7565b60405180910390fd5b50505050565b606060405180602001604052806000815250905090565b60606125a182611c39565b60006125ab61257f565b905060008151116125cb57604051806020016040528060008152506125f6565b806125d584612c53565b6040516020016125e692919061384f565b6040516020818303038152906040525b915050919050565b606060008260ff161415612649576040518060400160405280600181526020017f300000000000000000000000000000000000000000000000000000000000000081525090506127dd565b600082905060005b60008260ff161461267e5780806126679061408f565b915050600a826126779190613e27565b9150612651565b60008160ff1667ffffffffffffffff8111156126c3577f4e487b7100000000000000000000000000000000000000000000000000000000600052604160045260246000fd5b6040519080825280601f01601f1916602001820160405280156126f55781602001600182028036833780820191505090505b50905060008260ff1690505b60008660ff16146127d5576001816127199190613e93565b90506000600a808861272b9190613e27565b6127359190613e58565b876127409190613ec7565b603061274c9190613dbf565b905060008160f81b905080848481518110612790577f4e487b7100000000000000000000000000000000000000000000000000000000600052603260045260246000fd5b60200101907effffffffffffffffffffffffffffffffffffffffffffffffffffffffffffff1916908160001a905350600a886127cc9190613e27565b97505050612701565b819450505050505b919050565b60008073ffffffffffffffffffffffffffffffffffffffff166002600084815260200190815260200160002060009054906101000a900473ffffffffffffffffffffffffffffffffffffffff1673ffffffffffffffffffffffffffffffffffffffff1614159050919050565b505050565b505050565b6001816000016000828254019250508190555050565b600073ffffffffffffffffffffffffffffffffffffffff168273ffffffffffffffffffffffffffffffffffffffff1614156128de576040517f08c379a00000000000000000000000000000000000000000000000000000000081526004016128d590613af7565b60405180910390fd5b6128e7816127e2565b15612927576040517f08c379a000000000000000000000000000000000000000000000000000000000815260040161291e90613a17565b60405180910390fd5b6129336000838361284e565b6001600360008473ffffffffffffffffffffffffffffffffffffffff1673ffffffffffffffffffffffffffffffffffffffff16815260200190815260200160002060008282546129839190613d69565b92505081905550816002600083815260200190815260200160002060006101000a81548173ffffffffffffffffffffffffffffffffffffffff021916908373ffffffffffffffffffffffffffffffffffffffff160217905550808273ffffffffffffffffffffffffffffffffffffffff16600073ffffffffffffffffffffffffffffffffffffffff167fddf252ad1be2c89b69c2b068fc378daa952ba7f163c4a11628f55a4df523b3ef60405160405180910390a4612a4460008383612853565b5050565b612a51826127e2565b612a90576040517f08c379a0000000000000000000000000000000000000000000000000000000008152600401612a8790613ab7565b60405180910390fd5b80600660008481526020019081526020016000209080519060200190612ab7929190612e23565b505050565b6000612add8473ffffffffffffffffffffffffffffffffffffffff16612e00565b15612c46578373ffffffffffffffffffffffffffffffffffffffff1663150b7a02612b06611c84565b8786866040518563ffffffff1660e01b8152600401612b2894939291906138c8565b602060405180830381600087803b158015612b4257600080fd5b505af1925050508015612b7357506040513d601f19601f82011682018060405250810190612b709190613206565b60015b612bf6573d8060008114612ba3576040519150601f19603f3d011682016040523d82523d6000602084013e612ba8565b606091505b50600081511415612bee576040517f08c379a0000000000000000000000000000000000000000000000000000000008152600401612be5906139b7565b60405180910390fd5b805181602001fd5b63150b7a0260e01b7bffffffffffffffffffffffffffffffffffffffffffffffffffffffff1916817bffffffffffffffffffffffffffffffffffffffffffffffffffffffff191614915050612c4b565b600190505b949350505050565b60606000821415612c9b576040518060400160405280600181526020017f30000000000000000000000000000000000000000000000000000000000000008152509050612dfb565b600082905060005b60008214612ccd578080612cb690614046565b915050600a82612cc69190613df6565b9150612ca3565b60008167ffffffffffffffff811115612d0f577f4e487b7100000000000000000000000000000000000000000000000000000000600052604160045260246000fd5b6040519080825280601f01601f191660200182016040528015612d415781602001600182028036833780820191505090505b5090505b60008514612df457600182612d5a9190613e93565b9150600a85612d6991906140b9565b6030612d759190613d69565b60f81b818381518110612db1577f4e487b7100000000000000000000000000000000000000000000000000000000600052603260045260246000fd5b60200101907effffffffffffffffffffffffffffffffffffffffffffffffffffffffffffff1916908160001a905350600a85612ded9190613df6565b9450612d45565b8093505050505b919050565b6000808273ffffffffffffffffffffffffffffffffffffffff163b119050919050565b828054612e2f90613fe3565b90600052602060002090601f016020900481019282612e515760008555612e98565b82601f10612e6a57805160ff1916838001178555612e98565b82800160010185558215612e98579182015b82811115612e97578251825591602001919060010190612e7c565b5b509050612ea59190612ecb565b5090565b6040518060800160405280600490602082028036833780820191505090505090565b5b80821115612ee4576000816000905550600101612ecc565b5090565b6000612efb612ef684613c49565b613c24565b905082815260208101848484011115612f1357600080fd5b612f1e848285613fa1565b509392505050565b6000612f39612f3484613c7a565b613c24565b905082815260208101848484011115612f5157600080fd5b612f5c848285613fa1565b509392505050565b600081359050612f7381614632565b92915050565b600081359050612f8881614649565b92915050565b600081359050612f9d81614660565b92915050565b600081519050612fb281614660565b92915050565b600082601f830112612fc957600080fd5b8135612fd9848260208601612ee8565b91505092915050565b600081359050612ff181614677565b92915050565b600082601f83011261300857600080fd5b8135613018848260208601612f26565b91505092915050565b60008135905061303081614687565b92915050565b60006020828403121561304857600080fd5b600061305684828501612f64565b91505092915050565b6000806040838503121561307257600080fd5b600061308085828601612f64565b925050602061309185828601612f64565b9150509250929050565b6000806000606084860312156130b057600080fd5b60006130be86828701612f64565b93505060206130cf86828701612f64565b92505060406130e086828701613021565b9150509250925092565b6000806000806080858703121561310057600080fd5b600061310e87828801612f64565b945050602061311f87828801612f64565b935050604061313087828801613021565b925050606085013567ffffffffffffffff81111561314d57600080fd5b61315987828801612fb8565b91505092959194509250565b6000806040838503121561317857600080fd5b600061318685828601612f64565b925050602061319785828601612f79565b9150509250929050565b600080604083850312156131b457600080fd5b60006131c285828601612f64565b92505060206131d385828601613021565b9150509250929050565b6000602082840312156131ef57600080fd5b60006131fd84828501612f8e565b91505092915050565b60006020828403121561321857600080fd5b600061322684828501612fa3565b91505092915050565b60006020828403121561324157600080fd5b600061324f84828501612fe2565b91505092915050565b6000806040838503121561326b57600080fd5b600061327985828601612fe2565b925050602061328a85828601612f64565b9150509250929050565b600080604083850312156132a757600080fd5b60006132b585828601612fe2565b92505060206132c685828601613021565b9150509250929050565b6000602082840312156132e257600080fd5b600082013567ffffffffffffffff8111156132fc57600080fd5b61330884828501612ff7565b91505092915050565b60006020828403121561332357600080fd5b600061333184828501613021565b91505092915050565b600061334683836137f3565b60408301905092915050565b600061335e8383613822565b60208301905092915050565b61337381613efb565b82525050565b600061338482613cda565b61338e8185613d20565b935061339983613cab565b8060005b838110156133ca5781516133b1888261333a565b97506133bc83613d06565b92505060018101905061339d565b5085935050505092915050565b6133e081613ce5565b6133ea8184613d31565b92506133f582613cbb565b8060005b8381101561342657815161340d8782613352565b965061341883613d13565b9250506001810190506133f9565b505050505050565b61343781613f0d565b82525050565b600061344882613cf0565b6134528185613d3c565b9350613462818560208601613fb0565b61346b816141d5565b840191505092915050565b61347f81613f8f565b82525050565b61348e81613f8f565b82525050565b600061349f82613cfb565b6134a98185613d4d565b93506134b9818560208601613fb0565b6134c2816141d5565b840191505092915050565b60006134d882613cfb565b6134e28185613d5e565b93506134f2818560208601613fb0565b80840191505092915050565b6000815461350b81613fe3565b6135158186613d5e565b94506001821660008114613530576001811461354157613574565b60ff19831686528186019350613574565b61354a85613cc5565b60005b8381101561356c5781548189015260018201915060208101905061354d565b838801955050505b50505092915050565b600061358a603283613d4d565b9150613595826141e6565b604082019050919050565b60006135ad602683613d4d565b91506135b882614235565b604082019050919050565b60006135d0602583613d4d565b91506135db82614284565b604082019050919050565b60006135f3601c83613d4d565b91506135fe826142d3565b602082019050919050565b6000613616602483613d4d565b9150613621826142fc565b604082019050919050565b6000613639601983613d4d565b91506136448261434b565b602082019050919050565b600061365c601183613d4d565b915061366782614374565b602082019050919050565b600061367f602983613d4d565b915061368a8261439d565b604082019050919050565b60006136a2602e83613d4d565b91506136ad826143ec565b604082019050919050565b60006136c5603e83613d4d565b91506136d08261443b565b604082019050919050565b60006136e8602083613d4d565b91506136f38261448a565b602082019050919050565b600061370b600583613d5e565b9150613716826144b3565b600582019050919050565b600061372e602083613d4d565b9150613739826144dc565b602082019050919050565b6000613751601383613d4d565b915061375c82614505565b602082019050919050565b6000613774601883613d4d565b915061377f8261452e565b602082019050919050565b6000613797602183613d4d565b91506137a282614557565b604082019050919050565b60006137ba602e83613d4d565b91506137c5826145a6565b604082019050919050565b60006137dd600183613d5e565b91506137e8826145f5565b600182019050919050565b6040820160008201516138096000850182613476565b50602082015161381c6020850182613822565b50505050565b61382b81613f78565b82525050565b61383a81613f78565b82525050565b61384981613f82565b82525050565b600061385b82856134cd565b915061386782846134cd565b91508190509392505050565b600061387f82856134fe565b915061388a826137d0565b915061389682846134cd565b91506138a1826136fe565b91508190509392505050565b60006020820190506138c2600083018461336a565b92915050565b60006080820190506138dd600083018761336a565b6138ea602083018661336a565b6138f76040830185613831565b8181036060830152613909818461343d565b905095945050505050565b6000602082019050818103600083015261392e8184613379565b905092915050565b600060808201905061394b60008301846133d7565b92915050565b6000602082019050613966600083018461342e565b92915050565b60006040820190506139816000830185613485565b61398e6020830184613831565b9392505050565b600060208201905081810360008301526139af8184613494565b905092915050565b600060208201905081810360008301526139d08161357d565b9050919050565b600060208201905081810360008301526139f0816135a0565b9050919050565b60006020820190508181036000830152613a10816135c3565b9050919050565b60006020820190508181036000830152613a30816135e6565b9050919050565b60006020820190508181036000830152613a5081613609565b9050919050565b60006020820190508181036000830152613a708161362c565b9050919050565b60006020820190508181036000830152613a908161364f565b9050919050565b60006020820190508181036000830152613ab081613672565b9050919050565b60006020820190508181036000830152613ad081613695565b9050919050565b60006020820190508181036000830152613af0816136b8565b9050919050565b60006020820190508181036000830152613b10816136db565b9050919050565b60006020820190508181036000830152613b3081613721565b9050919050565b60006020820190508181036000830152613b5081613744565b9050919050565b60006020820190508181036000830152613b7081613767565b9050919050565b60006020820190508181036000830152613b908161378a565b9050919050565b60006020820190508181036000830152613bb0816137ad565b9050919050565b6000602082019050613bcc6000830184613831565b92915050565b6000604082019050613be76000830185613831565b613bf46020830184613485565b9392505050565b6000604082019050613c106000830185613840565b613c1d6020830184613831565b9392505050565b6000613c2e613c3f565b9050613c3a8282614015565b919050565b6000604051905090565b600067ffffffffffffffff821115613c6457613c636141a6565b5b613c6d826141d5565b9050602081019050919050565b600067ffffffffffffffff821115613c9557613c946141a6565b5b613c9e826141d5565b9050602081019050919050565b6000819050602082019050919050565b6000819050919050565b60008190508160005260206000209050919050565b600081519050919050565b600060049050919050565b600081519050919050565b600081519050919050565b6000602082019050919050565b6000602082019050919050565b600082825260208201905092915050565b600081905092915050565b600082825260208201905092915050565b600082825260208201905092915050565b600081905092915050565b6000613d7482613f78565b9150613d7f83613f78565b9250827fffffffffffffffffffffffffffffffffffffffffffffffffffffffffffffffff03821115613db457613db36140ea565b5b828201905092915050565b6000613dca82613f82565b9150613dd583613f82565b92508260ff03821115613deb57613dea6140ea565b5b828201905092915050565b6000613e0182613f78565b9150613e0c83613f78565b925082613e1c57613e1b614119565b5b828204905092915050565b6000613e3282613f82565b9150613e3d83613f82565b925082613e4d57613e4c614119565b5b828204905092915050565b6000613e6382613f82565b9150613e6e83613f82565b92508160ff0483118215151615613e8857613e876140ea565b5b828202905092915050565b6000613e9e82613f78565b9150613ea983613f78565b925082821015613ebc57613ebb6140ea565b5b828203905092915050565b6000613ed282613f82565b9150613edd83613f82565b925082821015613ef057613eef6140ea565b5b828203905092915050565b6000613f0682613f58565b9050919050565b60008115159050919050565b60007fffffffff0000000000000000000000000000000000000000000000000000000082169050919050565b6000819050613f538261461e565b919050565b600073ffffffffffffffffffffffffffffffffffffffff82169050919050565b6000819050919050565b600060ff82169050919050565b6000613f9a82613f45565b9050919050565b82818337600083830152505050565b60005b83811015613fce578082015181840152602081019050613fb3565b83811115613fdd576000848401525b50505050565b60006002820490506001821680613ffb57607f821691505b6020821081141561400f5761400e614177565b5b50919050565b61401e826141d5565b810181811067ffffffffffffffff8211171561403d5761403c6141a6565b5b80604052505050565b600061405182613f78565b91507fffffffffffffffffffffffffffffffffffffffffffffffffffffffffffffffff821415614084576140836140ea565b5b600182019050919050565b600061409a82613f82565b915060ff8214156140ae576140ad6140ea565b5b600182019050919050565b60006140c482613f78565b91506140cf83613f78565b9250826140df576140de614119565b5b828206905092915050565b7f4e487b7100000000000000000000000000000000000000000000000000000000600052601160045260246000fd5b7f4e487b7100000000000000000000000000000000000000000000000000000000600052601260045260246000fd5b7f4e487b7100000000000000000000000000000000000000000000000000000000600052602160045260246000fd5b7f4e487b7100000000000000000000000000000000000000000000000000000000600052602260045260246000fd5b7f4e487b7100000000000000000000000000000000000000000000000000000000600052604160045260246000fd5b6000601f19601f8301169050919050565b7f4552433732313a207472616e7366657220746f206e6f6e20455243373231526560008201527f63656976657220696d706c656d656e7465720000000000000000000000000000602082015250565b7f4f776e61626c653a206e6577206f776e657220697320746865207a65726f206160008201527f6464726573730000000000000000000000000000000000000000000000000000602082015250565b7f4552433732313a207472616e736665722066726f6d20696e636f72726563742060008201527f6f776e6572000000000000000000000000000000000000000000000000000000602082015250565b7f4552433732313a20746f6b656e20616c7265616479206d696e74656400000000600082015250565b7f4552433732313a207472616e7366657220746f20746865207a65726f2061646460008201527f7265737300000000000000000000000000000000000000000000000000000000602082015250565b7f4552433732313a20617070726f766520746f2063616c6c657200000000000000600082015250565b7f496e76616c696420706173732074797065000000000000000000000000000000600082015250565b7f4552433732313a2061646472657373207a65726f206973206e6f74206120766160008201527f6c6964206f776e65720000000000000000000000000000000000000000000000602082015250565b7f45524337323155524953746f726167653a2055524920736574206f66206e6f6e60008201527f6578697374656e7420746f6b656e000000000000000000000000000000000000602082015250565b7f4552433732313a20617070726f76652063616c6c6572206973206e6f7420746f60008201527f6b656e206f776e6572206e6f7220617070726f76656420666f7220616c6c0000602082015250565b7f4552433732313a206d696e7420746f20746865207a65726f2061646472657373600082015250565b7f2e6a736f6e000000000000000000000000000000000000000000000000000000600082015250565b7f4f776e61626c653a2063616c6c6572206973206e6f7420746865206f776e6572600082015250565b7f4e6f7420656e6f756768204554482073656e7400000000000000000000000000600082015250565b7f4552433732313a20696e76616c696420746f6b656e2049440000000000000000600082015250565b7f4552433732313a20617070726f76616c20746f2063757272656e74206f776e6560008201527f7200000000000000000000000000000000000000000000000000000000000000602082015250565b7f4552433732313a2063616c6c6572206973206e6f7420746f6b656e206f776e6560008201527f72206e6f7220617070726f766564000000000000000000000000000000000000602082015250565b7f2f00000000000000000000000000000000000000000000000000000000000000600082015250565b6004811061462f5761462e614148565b5b50565b61463b81613efb565b811461464657600080fd5b50565b61465281613f0d565b811461465d57600080fd5b50565b61466981613f19565b811461467457600080fd5b50565b6004811061468457600080fd5b50565b61469081613f78565b811461469b57600080fd5b5056fea2646970667358221220e90a00e0d329bd06c9a3b45999886a9b40d2d19afd3e603bbc60c6b195a5662364736f6c63430008010033",
  "linkReferences": {},
  "deployedLinkReferences": {}
}